:020000040800F2
:1000000000000A2069330108B9330108B933010837
:10001000B9330108B9330108B9330108B93301080C
:10002000000000000000000000000000B9330108DB
:10003000B933010800000000B933010827FD0008AA
:10004000B9330108B9330108B9330108B9330108DC
:10005000B9330108B9330108B9330108B9330108CC
:10006000B9330108B9330108B9330108E9FE0008C2
:10007000EFFE0008F5FE0008FBFE000801FF000887
:1000800007FF00080DFF000813FF000819FF000814
:1000900021FF000829FF000831FF000839FF000890
:1000A00041FF000849FF000851FF0008B93301086B
:1000B000B9330108B9330108B9330108B93301086C
:1000C000B9330108B9330108B9330108B93301085C
:1000D00000000000B9330108B9330108B933010841
:1000E000B9330108B9330108F5E50008B93301084F
:1000F00009E600080DE6000821E6000835E60008DC
:1001000049E600085DE6000871E60008B933010819
:10011000B9330108B9330108B9330108B93301080B
:10012000B9330108B9330108F9090108110A0108B6
:100130002D0A0108490A0108610A0108910A01080B
:10014000B9330108B933010885E60008B93301085D
:1001500099E60008B9330108B9330108D9E6000867
:10016000EDE6000801E70008A9290108B9330108F4
:10017000B9330108B9330108B9330108B9330108AB
:10018000B9330108B9330108B9330108B93301089B
:10019000B9330108790A0108F10A0108090B0108BD
:1001A000B9330108B9330108B9330108B93301087B
:1001B000B9330108B9330108B9330108B93301086B
:1001C000B9330108B9330108A90A0108C10A0108B5
:1001D000D90A0108210B010800000000B933010809
:1001E000B9330108B9330108000000000000000025
:1001F000B93301080000000000000000B933010815
:10020000B9330108B9330108B9330108000000000F
:1002100000000000B933010800000000B9330108F4
:100220009DE60008B1E60008C5E60008B9330108FC
:10023000B9330108B9330108B9330108B9330108EA
:0C024000B9330108B9330108B9330108D3
:1002500010F8012B11F8013B012A28BF9A42F7D070
:10026000D01A7047034613F8012B002AFBD1181A45
:100270000138704781F0004102E000BF83F0004385
:1002800030B54FEA41044FEA430594EA050F08BF31
:1002900090EA020F1FBF54EA000C55EA020C7FEAF5
:1002A000645C7FEA655C00F0E2804FEA5454D4EB72
:1002B0005555B8BF6D420CDD2C4480EA020281EA3C
:1002C000030382EA000083EA010180EA020281EA74
:1002D0000303362D88BF30BD11F0004F4FEA0131C6
:1002E0004FF4801C4CEA113102D0404261EB4101D5
:1002F00013F0004F4FEA03334CEA133302D052425B
:1003000063EB430394EA050F00F0A780A4F1010416
:10031000D5F1200E0DDB02FA0EFC22FA05F2801850
:1003200041F1000103FA0EF2801843FA05F3594136
:100330000EE0A5F120050EF1200E012A03FA0EFCB5
:1003400028BF4CF0020C43FA05F3C01851EBE371DF
:1003500001F0004507D54FF0000EDCF1000C7EEBFC
:1003600000006EEB0101B1F5801F1BD3B1F5001F3A
:100370000CD349085FEA30004FEA3C0C04F1010459
:100380004FEA445212F5800F80F09A80BCF1004F82
:1003900008BF5FEA500C50F1000041EB045141EA04
:1003A000050130BD5FEA4C0C404141EB0101013CCD
:1003B00028BFB1F5801FE9D291F0000F04BF0146BC
:1003C0000020B1FA81F308BF2033A3F10B03B3F18E
:1003D00020020CDA0C3208DD02F1140CC2F10C021E
:1003E00001FA0CF021FA02F10CE002F11402D8BF7C
:1003F000C2F1200C01FA02F120FA0CFCDCBF41EA48
:100400000C019040E41AA2BF01EB0451294330BD16
:100410006FEA04041F3C1CDA0C340EDC04F11404F3
:10042000C4F1200220FA04F001FA02F340EA0300CA
:1004300021FA04F345EA030130BDC4F10C04C4F110
:10044000200220FA02F001FA04F340EA03002946F0
:1004500030BD21FA04F0294630BD94F0000F83F43A
:10046000801306BF81F480110134013D4EE77FEA1D
:10047000645C18BF7FEA655C29D094EA050F08BF69
:1004800090EA020F05D054EA000C04BF194610464A
:1004900030BD91EA030F1EBF0021002030BD5FEA8E
:1004A000545C05D14000494128BF41F0004130BDB6
:1004B00014F580043CBF01F5801130BD01F000450A
:1004C00045F0FE4141F470014FF0000030BD7FEA7D
:1004D000645C1ABF194610467FEA655C1CBF0B4678
:1004E000024650EA013406BF52EA033591EA030F8F
:1004F00041F4002130BD00BF90F0000F04BF002187
:10050000704730B54FF4806404F132044FF00005B9
:100510004FF0000150E700BF90F0000F04BF002132
:10052000704730B54FF4806404F1320410F0004598
:1005300048BF40424FF000013EE700BF42004FEA93
:10054000E2014FEA31014FEA02701FBF12F07F4310
:1005500093F07F4F81F06051704732F07F4208BFC7
:10056000704793F07F4F04BF41F40021704730B5CE
:100570004FF4607401F0004521F000411CE700BF1A
:1005800050EA010208BF704730B54FF000050AE09D
:1005900050EA010208BF704730B511F0004502D59E
:1005A000404261EB41014FF4806404F132045FEAA0
:1005B000915C3FF4D8AE4FF003025FEADC0C18BF49
:1005C00003325FEADC0C18BF033202EBDC02C2F13B
:1005D000200300FA03FC20FA02F001FA03FE40EACD
:1005E0000E0021FA02F11444BDE600BF70B54FF0D1
:1005F000FF0C4CF4E06C1CEA11541DBF1CEA1355AF
:1006000094EA0C0F95EA0C0F00F0DEF82C4481EA16
:10061000030621EA4C5123EA4C5350EA013518BF36
:1006200052EA033541F4801143F4801338D0A0FB23
:1006300002CE4FF00005E1FB02E506F00042E0FBD0
:1006400003E54FF00006E1FB03569CF0000F18BFD6
:100650004EF0010EA4F1FF04B6F5007F64F540747E
:1006600004D25FEA4E0E6D4146EB060642EAC62111
:1006700041EA55514FEAC52040EA5E504FEACE2E7E
:10068000B4F1FD0C88BFBCF5E06F1ED8BEF1004F81
:1006900008BF5FEA500E50F1000041EB045170BDFD
:1006A00006F0004646EA010140EA020081EA030141
:1006B000B4EB5C04C2BFD4EB0C0541EA045170BD3D
:1006C00041F480114FF0000E013C00F3AB8014F1B7
:1006D000360FDEBF002001F0004170BDC4F1000400
:1006E000203C35DA0C341BDC04F11404C4F1200581
:1006F00000FA05F320FA04F001FA05F240EA0200DC
:1007000001F0004221F0004110EBD37021FA04F611
:1007100042EB06015EEA430E08BF20EAD37070BDCB
:10072000C4F10C04C4F1200500FA04F320FA05F02A
:1007300001FA04F240EA020001F0004110EBD3702C
:1007400041F100015EEA430E08BF20EAD37070BD9C
:10075000C4F1200500FA05F24EEA020E20FA04F375
:1007600001FA05F243EA020321FA04F001F0004124
:1007700021FA04F220EA020000EBD3705EEA430E95
:1007800008BF20EAD37070BD94F0000F0FD101F0C4
:100790000046400041EB010111F4801F08BF013CFD
:1007A000F7D041EA060195F0000F18BF704703F03B
:1007B0000046520043EB030313F4801F08BF013DC2
:1007C000F7D043EA0603704794EA0C0F0CEA13557E
:1007D00018BF95EA0C0F0CD050EA410618BF52EA38
:1007E0004306D1D181EA030101F000414FF000003E
:1007F00070BD50EA410606BF1046194652EA43064C
:1008000019D094EA0C0F02D150EA013613D195EABF
:100810000C0F05D152EA03361CBF104619460AD107
:1008200081EA030101F0004141F0FE4141F4700111
:100830004FF0000070BD41F0FE4141F4780170BD01
:1008400070B54FF0FF0C4CF4E06C1CEA11541DBF66
:100850001CEA135594EA0C0F95EA0C0F00F0A7F868
:10086000A4EB050481EA030E52EA03354FEA013195
:1008700000F088804FEA03334FF0805545EA1313A8
:1008800043EA12634FEA022245EA111545EA106570
:100890004FEA00260EF000419D4208BF964244F107
:1008A000FD0404F5407402D25B084FEA3202B61A26
:1008B00065EB03055B084FEA32024FF480104FF4FA
:1008C000002CB6EB020E75EB030E22BFB61A75466E
:1008D00040EA0C005B084FEA3202B6EB020E75EB01
:1008E000030E22BFB61A754640EA5C005B084FEA69
:1008F0003202B6EB020E75EB030E22BFB61A754636
:1009000040EA9C005B084FEA3202B6EB020E75EB40
:10091000030E22BFB61A754640EADC0055EA060E01
:1009200018D04FEA051545EA16754FEA06164FEA44
:10093000C30343EA52734FEAC2025FEA1C1CC0D1F0
:1009400011F4801F0BD141EA00014FF000004FF07D
:10095000004CB6E711F4801F04BF01430020B4F13E
:10096000FD0C88BFBCF5E06F3FF6AFAEB5EB030CF6
:1009700004BFB6EB020C5FEA500C50F1000041EBF3
:10098000045170BD0EF0004E4EEA113114EB5C04C0
:10099000C2BFD4EB0C0541EA045170BD41F4801193
:1009A0004FF0000E013C90E645EA060E8DE60CEA9B
:1009B000135594EA0C0F08BF95EA0C0F3FF43BAFB8
:1009C00094EA0C0F0AD150EA01347FF434AF95EA6F
:1009D0000C0F7FF425AF104619462CE795EA0C0F53
:1009E00006D152EA03353FF4FDAE1046194622E720
:1009F00050EA410618BF52EA43067FF4C5AE50EAFA
:100A000041047FF40DAF52EA43057FF4EBAE12E7E9
:100A10004FF0FF3C06E000BF4FF0010C02E000BFCA
:100A20004FF0010C4DF804CD4FEA410C7FEA6C5CAD
:100A30004FEA430C18BF7FEA6C5C1BD001B050EA50
:100A4000410C0CBF52EA430C91EA030F02BF90EA3B
:100A5000020F0020704710F1000F91EA030F58BFFA
:100A6000994208BF90422CBFD8176FEAE37040F05C
:100A7000010070474FEA410C7FEA6C5C02D150EAFA
:100A8000013C07D14FEA430C7FEA6C5CD6D152EAB5
:100A9000033CD3D05DF8040B704700BF844610467A
:100AA00062468C461946634600E000BF01B5FFF779
:100AB000B7FF002848BF10F1000F01BD4DF808ED49
:100AC000FFF7F4FF0CBF012000205DF808FB00BF1A
:100AD0004DF808EDFFF7EAFF34BF012000205DF874
:100AE00008FB00BF4DF808EDFFF7E0FF94BF0120C1
:100AF00000205DF808FB00BF4DF808EDFFF7CEFFC2
:100B000094BF012000205DF808FB00BF4DF808ED00
:100B1000FFF7C4FF34BF012000205DF808FB00BFD1
:100B20004FEA410212F5001215D211D56FF4787315
:100B3000B3EB625212D94FEAC12343F0004343EAB8
:100B4000505311F0004F23FA02F018BF4042704793
:100B50004FF00000704750EA013005D111F000401D
:100B600008BF6FF0004070474FF00000704700BFB3
:100B70004A0011D212F5001211D20DD56FF478731C
:100B8000B3EB62520ED44FEAC12343F0004343EA71
:100B9000505323FA02F070474FF00000704750EABC
:100BA000013002D14FF0FF3070474FF00000704726
:100BB0004FEA4102B2F1E04324BFB3F5001CDCF17F
:100BC000FE5C0DD901F0004C4FEAC0024CEA5070B7
:100BD000B2F1004F40EB830008BF20F001007047E6
:100BE00011F0804F21D113F13872BCBF01F00040E9
:100BF000704741F480114FEA5252C2F11802C2F11B
:100C0000200C10FA0CF320FA02F018BF40F001009B
:100C10004FEAC1234FEAD32303FA0CFC40EA0C004D
:100C200023FA02F34FEA4303CCE77FEA625307D18A
:100C300050EA01331EBF4FF0FE4040F440007047C1
:100C400001F0004040F0FE4040F40000704700BF5B
:100C500053B94AB9002908BF00281CBF4FF0FF3123
:100C60004FF0FF3000F00CB8ADF1080C6DE904CE88
:100C700015F004FEDDF804E0DDE9022304B070475E
:100C8000704700BF10B5054C237833B9044B13B13E
:100C90000448AFF300800123237010BDAC04002092
:100CA00000000000D06B010808B5034B1BB10349DD
:100CB0000348AFF3008008BD00000000B00400202E
:100CC000D06B01084FF08043F7B59B4C5B6B9B4E9C
:100CD000256823605D1B3369AB4238D8656012F02C
:100CE00059FC6062237D1BB901232375636A236469
:100CF00040F6B7339D422CD9914B9D422CD8914A56
:100D000044F62063B2FBF5F29A4200D893B2A38175
:100D1000A389B6F834229BB29A423CBFA389A6F8B5
:100D20003432A37C03F0FF028BB9A389B6F82812F2
:100D30009BB2994212D80423E374236A01332362DD
:100D40007379042B03D1637C83F00103637403B0D4
:100D5000F0BD44F62063DAE70023D8E7B6F80612C0
:100D60009942E8D9B6F8041299426DD80323764A1D
:100D700076481168E374764B00FB013313606422FC
:100D80001B0EB3FBF2F102FB11334A2BD5D9737959
:100D9000042B00F08B80A28996F8243290B2002BAD
:100DA00040F08D8044F61F63984296BFFA2250228D
:100DB000B0FBF2F2237E8CBF94465FFA82FC002BDC
:100DC00000F0A080634B13F90C70C2EB421E02EBE3
:100DD0008E0207EB8701520001EB810192B28B007A
:100DE000904299B219D9BCF1500F16D094F818E07E
:100DF0000CF10103DBB2BEF1000F00F08B80DFF8D5
:100E000054C11CF90330821ADB1B53436422534341
:100E1000FA2293FBF2F319440BB2627D52B196F9B8
:100E20002E22C2EB422102EB8101C2EBC10203EB95
:100E3000820213B241F270729342A8BF1346464A2F
:100E40009342B8BF134646E0B6F80212994217D84B
:100E50000223E3743C4B3D491B683D4A01FB0322DE
:100E60006421130EB3FBF1F001FB1033312B8CBF67
:100E70000023012334490A60002B7FF45EAF86E72C
:100E8000B6F8001299420FD80123E3742E4B2F4974
:100E90001B682F4A01FB03226421130EB3FBF1F000
:100EA00001FB1033182BE2E7E27470E7637C83F0F8
:100EB00001036374637C002B7FF46DAF47E7B6F8E2
:100EC00026328342FFF46EAF96F9253203EB83039B
:100ED00003EB83039B00B068E381C01A00283FDC6A
:100EE00001221E4B9A61002340F2E1420093009BD5
:100EF000934219DD4FF48032184B9A61E369013354
:100F0000E36124E75121B37901FB0363634493F95F
:100F100018705AE74FF0510E96F806C00EFB0C6C95
:100F2000634493F918306EE700BF00BF00BF00BFF5
:100F3000009B01330093DAE7F40400203C05002015
:100F4000808D5B000046C323000000200D66190061
:100F50005FF36E3C727D010818FCFFFF0004024243
:100F600044F61F62A3899BB293429ABFFA22B3FB55
:100F7000F2F35023174A98BFDBB252F8231042F223
:100F800010720023A1FB0001FFF762FEB0EB550FCA
:100F900001D8632811D801220F4B9A61002340F237
:100FA000E1420193019B9342A4DC00BF00BF00BF5C
:100FB00000BF019B01330193F4E70022074B092195
:100FC0001A605A62D8621A610122DA6019602274CA
:100FD000BDE600BF78070020000402420004004084
:100FE0000F4B82B01A7C8AB1002201200D491A747D
:100FF000886140F2E1410192019A8A4208DD4FF492
:101000008031084A9161DA690132DA6102B07047D1
:1010100000BF00BF00BF00BF019A01320192EBE7A1
:10102000F404002000040242012A02D101600020E1
:101030007047022A05D0032AF9D0002AF7D10260AE
:10104000F5E70B680360F2E703681847836810B59B
:10105000044613B1032201469847204610BD000004
:1010600000226423FA2010B50649074CB4FBF3F3C1
:101070000132512A41F8043B02D000FB02F3F5E7AC
:1010800010BD00BF78070020AB21EF092DE9F0412A
:10109000B42086B00EF00DFC0446324D4FF0804176
:1010A0000DF03EFB192120462C600DF089F92868CF
:1010B00000224FF0FF310DF077FA2B4B28681B7D93
:1010C000002B4AD0002308220093C22300240121D0
:1010D0000DF028F9DFF8A880244B254F02AA012142
:1010E000286802930394CDF8148004970DF05FFBF9
:1010F00002A8FFF7ABFF224621462D2005F0B8FCE1
:1011000028680DF03AF8B4200EF0D3FB0646194DCE
:1011100019490DF005FB304619212E600DF050F9EC
:10112000224628684FF6FF710DF03EFA134B02A9D4
:1011300028680293CDE9047803940DF059FB02A8C6
:10114000FFF784FF224601212E2005F091FC28683C
:1011500006B0BDE8F0410CF022BF00930922C22383
:10116000B4E700BFF00400203C050020C50C0008D7
:1011700029100008EC04002000040040E10F0008E2
:101180004910000813B50C4C20680CF008FF0B4BFD
:1011900020681B7D63B1002308220093C223012134
:1011A0000DF0C0F8206802B0BDE810400CF0E5BFBB
:1011B00000930922C223F2E7F00400203C0500203E
:1011C000254A10B5D2F88C3043F00703C2F88C30B2
:1011D000BFF34F8F214B04241A68022122F44F726F
:1011E00022F003021A601A68CA2042F48A7242F09E
:1011F00001021A609A6842F44F7242F003029A6048
:101200004FF480329A614FF400329A614FF48012A9
:101210009A619C6112F018F90221C32012F014F9AE
:1012200002211C2012F010F90D4B21461A68C02033
:1012300022F040621A60DA6822F04062DA6012F04E
:1012400003F92146C82012F0FFF82146BDE81040FE
:10125000C12012F0F9B800BF000C024400040242A1
:10126000000802420C2012F0BBB800000023421E0E
:1012700000F2372012F8011F82420B44FAD10148D4
:1012800058407047EFBEADDE70B54FF40F720021CD
:10129000254813F007FC244A244B40F6B834136069
:1012A00040F20223938040F2DC53C2E9024301235F
:1012B00013754FF47A73154600261446136105F131
:1012C000180051221A49013613F081FC062E05F14F
:1012D0005105F4D1174B184AC4F8003203F17A7360
:1012E00003F57A73C4F80432144B4FF47A71C4E9ED
:1012F00082236423A4F8103241F244631048C4E905
:101300008613C4F820320F4BC4E989034FF40063FD
:10131000A4F82C320523044884F82E32FFF7A6FFE8
:10132000C4F8380270BD00BF3C050020452311CD34
:10133000727D0108F82AEC2C28231027F82AC8000F
:101340000105F401C832B80B02680D4B10B59A4282
:1013500013D10379013B092B0FD84379022B01D01C
:10136000042B0AD18379052B07D8D0F83842FFF730
:101370007DFF231A5842584110BD0020FCE700BFF2
:10138000452311CD00B5594B95B0DB7D002B00F006
:10139000A98001A80222564902F05AFA01A802F0D7
:1013A000DDFA002800F09E80524901A811F0D8FC17
:1013B000514901A811F0D4FC504901A811F0D0FC0A
:1013C0004C4901A811F0CCFC01A811F0C1FC4C491A
:1013D00001A811F0C5FC4B4901A811F0C1FC4A4914
:1013E00001A811F0BDFC494901A811F0B9FC484918
:1013F00001A811F0B5FC474901A811F0B1FC46491C
:1014000001A811F0ADFC454901A811F0A9FC01A803
:1014100011F09EFC424901A811F0A2FC414901A82B
:1014200011F09EFC404901A811F09AFC3F4901A827
:1014300011F096FC3E4901A811F092FC01A811F0B0
:1014400087FC3C4901A811F08BFC3B4901A811F035
:1014500087FC3A4901A811F083FC394901A811F031
:101460007FFC384901A811F07BFC374901A811F035
:1014700077FC364901A811F073FC01A811F068FC53
:10148000334901A811F06CFC324901A811F068FC45
:10149000314901A811F064FC304901A811F060FC49
:1014A00001A811F055FC2E4901A811F059FC2D4955
:1014B00001A811F055FC2C4901A811F051FC2B4951
:1014C00001A811F04DFC2A4901A811F049FC094975
:1014D00001A811F045FC01A802F007FA25492648A9
:1014E00011F03EFC15B05DF804FB00BFF4040020D1
:1014F000E86B0108FF6B0108286C0108456C0108C6
:10150000646C0108746C0108966C0108B56C0108E4
:10151000CE6C0108E26C0108026D0108176D01082C
:101520002F6D0108366D01085B6D0108836D0108A0
:10153000A66D0108C06D0108CE6D0108F16D0108AE
:10154000136E01082E6E01084B6E0108706E0108C3
:10155000976E0108A36E0108C66E0108EC6E0108C3
:10156000046F0108186F01082B6F0108446F010810
:101570005C6F01087E6F0108580D002030B5B14B3B
:1015800095B0DB7D002B00F05A81AF4802F02EF9B8
:1015900010B1AD4802F03EF901A80222AA4902F0BA
:1015A00057F901A802F0DAF9002800F04881642513
:1015B000A64901A811F0D4FBA54901A811F0D0FB60
:1015C000A44901A811F0CCFB01A8A34C11F0C0FB69
:1015D000A24901A811F0C4FBA14901A811F0ACFB7C
:1015E0000A22617901A811F045FC9E4901A811F079
:1015F000A3FBA1790A22013101A811F018FC01A86E
:1016000011F0A6FB984901A811F0AAFB974901A87F
:1016100011F092FBA1680A2291FBF5F101A811F0EB
:10162000E2FB934901A811F087FBA3680A2293FB10
:10163000F5F101A805FB113111F003FC8D4901A85A
:1016400011F07AFBE1680A2291FBF5F101A811F093
:10165000CAFB874901A811F06FFBE3680A2293FBDC
:10166000F5F101A805FB113111F0EBFB824901A84E
:1016700011F062FB814B217D814A0A25002918BFA8
:101680001A4601A8114611F06BFB7E4901A811F022
:1016900053FB21692A46B1FBF5F101A811F0F4FBD7
:1016A00001A811F055FB784901A811F059FB7749C1
:1016B00001A811F041FB2A46B4F8001201A811F06C
:1016C000B6FB734901A811F037FB2A46B4F80212A1
:1016D00001A811F0ACFB6F4901A811F02DFB2A46BF
:1016E000B4F8041201A811F0A2FB6B4901A811F093
:1016F00023FB2A46B4F8061201A811F098FB01A8B2
:1017000011F026FB654901A811F02AFB644901A8E4
:1017100011F012FB2A46B4F8081201A811F087FB59
:10172000604901A811F008FB2A46B4F80A1201A882
:1017300011F07DFB5C4901A811F0FEFA2A46B4F8CD
:101740000C1201A811F073FB584901A811F0F4FA2A
:101750002A46B4F80E1201A811F069FB544901A8F9
:1017600011F0EAFA2A46B4F8101201A811F05FFB52
:1017700001A811F0EDFA4F4901A811F0F1FA4E4914
:1017800001A811F0D9FA4D4B94F824124C4A01A843
:10179000002918BF1A46114611F0E2FA494901A87A
:1017A00011F0CAFA2A4694F9251201A811F03FFB5C
:1017B000454901A811F0C0FA2A46B4F8261201A83A
:1017C00011F035FB01A811F0C3FA404901A811F04E
:1017D000C7FA3F4901A811F0AFFA2A46B4F8281217
:1017E00001A811F024FB3B4901A811F0A5FA2A46F3
:1017F00094F92E1201A811F01AFB01A811F0A8FA11
:10180000354901A811F0ACFA344901A811F094FA55
:101810002A46D4F8301201A811F036FB304901A84D
:1018200011F08AFAB4F834122A4601A811F0FFFA2E
:1018300001A802F05AF82B492B4811F091FA15B083
:1018400030BD00BFF4040020A06F0108B96F01088B
:10185000CF6F0108EC6F01083C05002012700108F1
:101860001B700108217001082D70010837700108F4
:101870004B78010845700108527001088D6F01080E
:10188000946F0108587001086970010877700108A9
:10189000817001088D70010897700108A47001081B
:1018A000B2700108BF700108BA700108CA7001085F
:1018B000DD700108EF700108FA7001084B73010830
:1018C0009C6F0108037101080B7101081471010874
:1018D0001E7101082B7101083C7101084971010852
:1018E0005971010863710108580D002070B5384B1B
:1018F0000446DB7D9CB0002B36D0052834D8354912
:1019000003A811F063FB651C03A909A811F07FFB74
:101910000A22294606A811F095FB06A909A811F08C
:10192000D9FB2D4911F0E2FB0146684611F06FFB2F
:1019300006A811F009FB09A811F006FB03A811F095
:1019400003FB009801F052FF10B1009801F062FF14
:1019500009A80222009901F07BFF09A801F0FEFF0F
:1019600020B9684611F0F0FA1CB070BD1B4909A8F7
:1019700011F0E2F90A22294609A811F058FA18498B
:1019800009A811F0EDF9174909A811F0E9F909A81A
:1019900011F0DEF95123144D44F61A7603FB045579
:1019A00000240A22214609A811F03FFA0F4909A88C
:1019B00011F0C2F9FA340A2215F9011F09A811F031
:1019C00036FAB442EDD109A801F08FFFC9E700BF94
:1019D000F404002075710108FA6B01088571010893
:1019E00095710108B971010853050020957401082B
:1019F00010B50024E0B20134FFF778FF062CF9D1CE
:101A0000BDE810400149024811F0AAB9DA71010895
:101A1000580D002008B5FFF7B5FCFFF7AFFDFFF745
:101A2000E7FFBDE808400249024811F099B900BF3C
:101A3000EC710108580D002008B50C4BDB7D9BB103
:101A40000B4801F0D3FE78B90A490B4811F088F928
:101A5000FFF798FCFFF792FDFFF7CAFFBDE80840CB
:101A60000649054811F07CB908BD00BFF404002008
:101A7000E86B0108FF710108580D00201E72010873
:101A800038B511F087FD424B93F83C20042A11D061
:101A90001A7E62B9DA7D52B15A7DA2B99A7D92B9A5
:101AA0001A7D02F0FF0182B983F83C1002E00322A4
:101AB00083F83C2093F83C20042A1AD8DFE802F08F
:101AC00007141A3645000222F2E70122F0E7314AF4
:101AD0001368C31AB3F5FA7F0BD310602E4A53690B
:101AE00083F00403536104E02A4A1368C31A632B8A
:101AF000F3D838BD294A274C13782168032B8CBFB3
:101B00004FF416756425411AA942F2D32060032BC5
:101B100088BF0423204993BF01338B6100234869A8
:101B20009CBF80F0040048611370E2E71B4A194C27
:101B300013782168052B8CBF4FF416756425411A64
:101B4000A942D6D32060052BE2E712490A68821A1F
:101B5000952ACED9124A0860927993F83D10013245
:101B60005200D2B291420C4A0AD2516981F004016A
:101B7000516193F83D200132D2B283F83D20B8E79D
:101B800004219161002283F83D2083F83C20B0E7D6
:101B9000F4040020E804002000040242E4040020D1
:101BA0003C05002010B5C02011F038FC104C80B26C
:101BB0002085C82011F032FC80B26085C12011F070
:101BC0002DFC80B2A0850B49228DB1F82A3292B249
:101BD00093428CBF002301236375628DB1F82C32D0
:101BE00092B2934234BF00230123A37510BD00BFFE
:101BF000F40400203C050020092815D9B0F57F6FBA
:101C000015D80C4AD2F81832434340F6C41048BFE6
:101C100003F6FF73A0EB2330D2F81432642293FB57
:101C2000F2F3184400B2704740F6B83070470248EB
:101C3000704700BF3C05002070FEFFFF70B511F03B
:101C4000A9FC2349234A8B89B2F80C429BB29C42DF
:101C50001ED8214DB2F810622C68041BB4420AD37E
:101C60001E4C2860207880F00105012825701C4852
:101C700018D002248461487D38BB897D29BBB2F825
:101C800028229A4221D94FF48012154B9A6170BDD7
:101C9000B2F80A429C4208D80F4DB2F80E622C6886
:101CA000041BDBE74FF40034E4E7B2F808020C4C05
:101CB000984295BF02254FF40035A561A56194BFF8
:101CC0000124002405480470D5E71022044BDDE709
:101CD000F40400203C050020E0040020DC04002087
:101CE0000004024210B5044C237D23B111F052FCD4
:101CF000236CC01A606410BDF404002070B5AD49B7
:101D0000044611F007FA40B1AB4B99890A2289B217
:101D1000AA48BDE8704011F08AB82046A84911F0E1
:101D2000F9F9C0B16424A44D0A22E989A34809B293
:101D300091FBF4F111F079F8A249A04810F0FCFFF2
:101D4000E98909B291FBF4F304FB131109B20029EC
:101D5000B8BF4942DAE720469B4911F0DBF9064655
:101D6000A0B1954B0A25188D80B2FFF745FF90FB77
:101D7000F5F604462A4631B2904811F056F89149DA
:101D80008E4810F0D9FF05FB1641DFE720468F494A
:101D900011F0C0F90546D0B1874B8D4A5B8DD2F862
:101DA0001C229BB253438B4C03EB431393FBF4F481
:101DB0000A22314624B2814811F037F881497F4820
:101DC00010F0BAFF84EAE471A1EBE4719EE72046CB
:101DD000814911F09FF978B1774B7D4A9B8DD2F8FC
:101DE00020229BB253437B4C03EB431393FBF4F44D
:101DF0000A22294624B2DEE72046784911F08AF902
:101E000020B1734B0A229979013181E72046744948
:101E100011F080F938B1BDE870406D4B0A22597954
:101E2000664811F027B820466E4911F073F920B1C9
:101E3000674B0A22B3F834126AE720466A4911F068
:101E400069F940B10A22624BD3F830125B48BDE811
:101E5000704011F019B82046644911F05BF9002870
:101E60003DD064245A4D0A22A968544891FBF4F1EC
:101E700010F0B9FF5349514810F05EFFAB680A22D9
:101E800093FBF4F14D4804FB113110F0ACFF5849BD
:101E90004A4810F051FFE9680A2291FBF4F14748E3
:101EA00010F0A1FF4749454810F046FFEB680A22B1
:101EB00093FBF4F1414804FB113110F094FF4C49BD
:101EC0003E4810F039FF297D4A4B4B4A002918BF84
:101ED0001A461146BDE87040384810F041BF204610
:101EE000464911F017F910B3394C0A22B4F8001220
:101EF000324810F09AFF3E49304810F01DFF0A2288
:101F0000B4F802122D4810F090FF39492B4810F018
:101F100013FF0A22B4F80412284810F086FF34494F
:101F2000264810F009FF0A22B4F80612F0E620460F
:101F3000334911F0EFF8C0B1254C0A22B4F8081269
:101F40001E4810F072FF2A491C4810F0F5FE0A22C4
:101F5000B4F80A12194810F068FF2549174810F024
:101F6000EBFE0A22B4F80C12D2E62046254911F005
:101F7000D1F800284CD0164C234B94F82412234A55
:101F80000E48002918BF1A46114610F0D5FE184910
:101F90000A4810F0D1FE0A2294F92512074810F0E1
:101FA00044FF1349054810F0C7FE0A22B4F8261270
:101FB000AEE600BFCA6C0108F4040020580D0020F2
:101FC000237401084B78010830720108357201084A
:101FD0003C050020F0D870023D72010846720108ED
:101FE0004A7201086B7A01080577010851720108ED
:101FF000587201088D6F0108946F01085A72010828
:1020000062720108687201084B7301089C6F010835
:102010002046414911F07EF870B1404C0A22B4F8D4
:1020200028123F4810F001FF3E493D4810F084FE61
:102030000A2294F92E126BE620463B4911F06AF809
:1020400028B10A22354B1969B1FBF2F1FEE62046B0
:10205000364911F05FF830B3304C0A22D4F814122C
:102060002F4810F0C0FE2F492D4810F065FE0A22BF
:10207000D4F818122A4810F0B6FE2A49284810F061
:102080005BFE0A22D4F81C12254810F0ACFE25494C
:10209000234810F051FED4F820120A22BDE8704007
:1020A0001F4810F0CEBE2046214911F033F8B0B1E0
:1020B000204C0A22218D1A4889B210F0B6FE194927
:1020C000174810F039FE618D0A2289B2144810F0C9
:1020D000ACFE1449124810F02FFEA18D16E62046E2
:1020E000154911F017F818B1124B0A225968ADE6DC
:1020F0002046124911F00EF860B11149084810F05D
:102100001BFE0C4B0A229989054889B210F08DFEFE
:102110000C49DFE60C49DDE6717201083C05002040
:10212000580D002058720108797201087F72010869
:1021300083720108F404002087720108AB7501085E
:102140008E720108C96C01089772010830B53D21F3
:1021500087B0044611F01DF8051E06DAA049A14813
:1021600007B0BDE8304010F0FBBD2B4600222146F1
:10217000684611F011F82146A3686A1C03A811F003
:102180000BF8684611F02EF803A811F02BF86846FA
:10219000954910F0BFFFB0B103A811F04BF8022829
:1021A00001D0042803D1914B5871914900E0914925
:1021B0008C4810F0D5FD03A810F0C6FE684610F05C
:1021C000C3FE07B030BD68468B4910F0A3FF50B185
:1021D00003A811F02FF80138052802D8834B987115
:1021E000E3E78649E4E76846854910F093FF60B16C
:1021F00003A811F031F8DFED837A20EE270ABDEE57
:10220000C00A7A4B83ED020ACFE768467E4910F098
:1022100081FF60B103A811F01FF8DFED7A7A20EE9C
:10222000270ABDEEC00A714B83ED030ABDE768467D
:10223000764910F06FFF90B1754903A810F06AFF5E
:1022400058B9744903A810F065FF003818BF012081
:10225000664B1875FEF796FFA7E70120F8E768467A
:102260006D4910F057FF38B103A810F0E3FF0A23BF
:1022700058435E4B186198E76846684910F04AFF7A
:1022800030B103A810F0D6FF584BA3F800028CE73A
:102290006846634910F03EFF30B103A810F0CAFF52
:1022A000524BA3F8020280E768465E4910F032FF05
:1022B00030B103A810F0BEFF4C4BA3F8040274E742
:1022C0006846594910F026FF30B103A810F0B2FF5C
:1022D000464BA3F8060268E76846544910F01AFF17
:1022E00030B103A810F0A6FF404BA3F808025CE74A
:1022F00068464F4910F00EFF30B103A810F09AFF66
:102300003A4BA3F80A0250E768464A4910F002FF28
:1023100030B103A810F08EFF344BA3F80C0244E751
:102320006846454910F0F6FE88B13A4903A810F016
:10233000F1FE50B9414903A810F0ECFE003818BF77
:1023400001202A4B83F824022FE70120F9E7684691
:102350003B4910F0DFFE30B103A810F06BFF234BB8
:1023600083F8250221E76846364910F0D3FE30B1E4
:1023700003A810F05FFF1D4BA3F8260215E768467F
:10238000314910F0C7FE30B103A810F053FF174BCE
:10239000A3F8280209E768462C4910F0BBFE30B1CB
:1023A00003A810F047FF114B83F82E02FDE66846A4
:1023B000274910F0AFFE30B103A810F03BFF0B4BE4
:1023C000C3F81402F1E66846224910F0A3FE002883
:1023D00042D003A810F02EFF044BC3F81802E4E625
:1023E000A5720108580D00204A7201083C05002022
:1023F0005F780108BA72010846720108CB720108C1
:10240000D97201080000C842E6720108F2720108A0
:102410008D6F0108EA6E0108FF7201080C73010854
:102420001973010828730108357301084573010801
:102430004E7301085A730108657301084B73010854
:102440007573010885730108927301089E73010872
:10245000AE730108BE73010868460C4910F05AFEBD
:1024600030B103A810F0E6FE094BC3F81C029CE64D
:102470006846084910F04EFE30B103A810F0DAFEAD
:10248000034BC3F8200290E6034991E6CD7301089F
:102490003C050020DC73010897720108F0B520218B
:1024A00087B0054610F075FE061E06DA56495748F5
:1024B00007B0BDE8F04010F053BC33460022294677
:1024C00003A810F069FE03A810F0B4FE044603A8A8
:1024D000671E10F039FD052F01D94D49E7E7721C41
:1024E0002946AB68684610F057FE684610F07AFE41
:1024F0006846484910F00EFE064638B34649434840
:1025000010F01AFC0A222146404810F08EFC434984
:102510003E4810F011FC51220025414B02FB0434CF
:102520000A2214F9011F394810F07FFC502D07D101
:10253000364810F00DFC684610F006FD07B0F0BDFF
:102540003849324810F0F8FB0135E9E720216846A8
:1025500010F01FFE051E04DA33492C4810F000FC71
:10256000E9E72B463246694603A810F015FE03A89A
:1025700010F060FE064603A810F0E6FC6A1C6946EF
:10258000029B03A810F008FE03A810F053FE0546B6
:1025900003A810F0D9FC44F62062964201D92349E1
:1025A000DBE705F10A03462B01D92149D5E7B3B290
:1025B000934218BFFA224FF0510114BFB3FBF2F35C
:1025C00050231C4A18BFDBB201FB07220F481344FB
:1025D00019491D7610F0B0FB0A2221460B4810F075
:1025E00024FC1649094810F0A7FB0A223146074887
:1025F00010F01BFC1249054810F09EFB0A222946E8
:10260000024810F014FC96E7EF730108580D002003
:10261000FE7301081074010846720108166F010864
:102620000205002058720108147401082A74010878
:10263000367401083C050020CC6C01085174010877
:1026400095740108F8B54F4C4F49504810F074FB91
:10265000A1890A2289B24D4810F0E7FB4C494B484A
:1026600010F06AFB6421E3890A221BB293FBF1F1AB
:10267000464810F0DAFB4649444810F05DFB208DD7
:102680000A2680B2FFF7B8FA90FBF6F1324609B29B
:102690003E4810F0CAFB3F4D3D493C4810F04CFB12
:1026A000618DD5F81C3289B259433B4F01EB411182
:1026B00091FBF7F109B2324691FBF6F1334810F085
:1026C000B4FB3349314810F037FBA18DD5F82032E7
:1026D00089B2594301EB411191FBF7F109B232463E
:1026E00091FBF6F1294810F0A0FB2949274810F08A
:1026F00023FBA97932460131244810F096FB244986
:10270000224810F019FB3246E17C204810F0B0FB63
:102710001F491E4810F010FB217D637D003918BF52
:1027200001210BB141F00201A37D0BB141F0040185
:10273000A37C0BB141F00801237E0BB141F01001E5
:102740000A22124810F094FB1149104810F0F4FAD4
:102750000A22B5F834120D4810F067FB0C490B48FB
:1027600010F0EAFA4FF47A72636C3C20B3FBF2F398
:10277000D5F830120A2200FB0131BDE8F8400348C9
:1027800010F082BBF404002054740108580D00209E
:10279000587201083C050020F0D8700270B57149EC
:1027A000714810F0DDFA71496F48714C10F0C4FAAD
:1027B00070496D4810F0C0FA6F496B4810F0BCFAD0
:1027C0006E4B217D6E4A6425002918BF1A46664863
:1027D000114610F0C5FA6B49634810F0ADFAA189B3
:1027E000694E0A2289B2604810F021FB67495E48B1
:1027F00010F0A2FA0A22B6F834125B4810F017FB68
:102800006349594810F098FAE1890A2209B291FB0C
:10281000F5F1554810F009FB5E49534810F08CFA69
:10282000E1890A2209B291FBF5F305FB131109B204
:102830000029B8BF494289B24B4810F0F6FA564910
:10284000494810F08DFA5549474810F075FAB179AA
:102850000A220131444810F0EAFA5149424810F086
:102860006BFA504B7179504A3F48022908BF1A460B
:10287000114610F075FA4D493B4810F05DFA208D75
:102880000A2580B2FFF7B8F990FBF5F12A4609B2A4
:10289000354810F0CAFA4649334810F061FA454904
:1028A000314810F049FA2A4600212F48638D10F074
:1028B000BCFA41492C4810F053FA40492A4810F01C
:1028C0003BFA2A46D6F83012274810F0DDFA3C4988
:1028D000254810F031FA2A46E169234810F0D4FA6D
:1028E0003849214810F028FA2A46216A1E4810F07B
:1028F000CBFA35491C4810F01FFAE17D334B344ABE
:102900001948002918BF1A46114610F029FA314912
:10291000154810F011FA217E2F4B304A1248002939
:1029200018BF1A46114610F01BFA2D490E4810F038
:1029300003FAA17C2B4B2C4A0B48002918BF1A46DE
:10294000114610F00DFA2949074810F0F5F9E17C1D
:102950002A46054810F08EFABDE870402449024826
:1029600010F0FEB973740108580D00209774010827
:10297000F4040020B1740108CD74010858740108F2
:102980005C740108D67401083C050020DC74010861
:10299000E37401084B780108FC6C01081F750108FD
:1029A000EC7401086174010864740108F37401088F
:1029B000006D0108FA74010801750108037501082A
:1029C0000B75010811750108177501085F7801087A
:1029D000677401081C7501086C74010870740108A3
:1029E000257501084B7301089C6F01082C750108BF
:1029F0003675010808B52349234810F0B1F9234979
:102A0000214810F0ADF922491F4810F0A9F92149D9
:102A10001D4810F0A5F920491B4810F0A1F91F49E5
:102A2000194810F09DF91E49174810F099F91D49F1
:102A3000154810F095F91C49134810F091F91B49FD
:102A4000114810F08DF91A490F4810F089F9194909
:102A50000D4810F085F918490B4810F081F9174915
:102A6000094810F07DF91649074810F079F9154921
:102A7000054810F075F9BDE808401349024810F008
:102A80006FB900BF58750108580D00206A7501081C
:102A9000B2750108CA750108F075010821760108B0
:102AA0004A7601086676010896760108BA7601082A
:102AB000D3760108F57601080B7701082D77010818
:102AC00051770108747701084675010870B5534CB9
:102AD0009CB0E37D002B35D0514903A810F076FA65
:102AE00003A909A810F093FA3C234E4E0A22D6F807
:102AF000301206A8B1FBF3F110F0B6FA06A909A846
:102B000010F0E8FA484910F0F1FA0146684610F072
:102B10007EFA06A810F018FA09A810F015FA03A812
:102B200010F012FA009800F061FE022205460099AA
:102B300009A800F08DFE09A800F010FF20B9684632
:102B400010F002FA1CB070BD1DB9384909A810F088
:102B500007F910F01FFD0A22014609A810F07BF9C1
:102B6000334909A810F0E8F8A1890A2289B209A816
:102B700010F05BF92E4909A810F0DEF86421E38912
:102B80000A221BB293FBF1F109A810F04EF9284973
:102B900009A810F0D1F8208D0A2580B2FFF72CF893
:102BA00090FBF5F12A4609B209A810F03EF9204938
:102BB00009A810F0C1F82A46002109A8638D10F079
:102BC00034F91B4909A810F0B7F8B1792A46013148
:102BD00009A810F02AF9164909A810F0ADF82A46FC
:102BE000E17C09A810F044F9114909A810F0A4F8F3
:102BF000617DA37D003918BF012149000BB141F06F
:102C00000401A37C0BB141F008010A2209A810F0CD
:102C100031F909A800F069FE91E700BFF404002033
:102C2000937701083C050020A4770108A9770108E3
:102C30005872010800B5154B95B0DB7D13B31448ED
:102C4000FEF714FB124BC3F83802124800F0CEFD19
:102C500010B1104800F0DEFD01A802220D4900F07D
:102C6000F7FD01A800F07AFE60B109494FF40F7238
:102C700001A800F085FD01A800F037FE06490748CD
:102C800010F06EF815B05DF804FB00BFF4040020EE
:102C90003C050020CF770108E6770108580D002099
:102CA00030B5234CADF5237DE37D23B90123237695
:102CB0000DF5237D30BD1F4800F098FD58B91E4921
:102CC0001E4810F04DF8012323760DF5237DBDE855
:102CD0003040FFF7AFBF68460122164900F0B8FD4B
:102CE000684600F03BFE0028E0D04FF40F7213A9B5
:102CF000684600F0EDFD0546684600F0F6FDB5F5C6
:102D00000F7F03D113A8FEF71FFB20B90C490B4816
:102D100010F026F8CAE713A92A460A4811F057FF0F
:102D2000002309490548237610F01AF8C0E700BFD0
:102D3000F4040020CF770108F3770108580D002034
:102D40000D7801083C0500202C78010838B513499E
:102D5000134810F005F801223121124800F03AFD25
:102D6000114D044638B911490D480FF0F9FF012300
:102D7000EC752B7638BD01230D490948EB750FF032
:102D8000EFFF0C4800F032FD10B90A4800F039FDA1
:102D9000FFF786FFBDE83840FEF74EBE3A780108DF
:102DA000580D0020BC080020F40400204D780108D4
:102DB0005C7801086278010838B5364D4822002158
:102DC000284611F06FFE0123C0206B7610F026FB21
:102DD000044610F0E1FB304B44401C60FEF7F0F974
:102DE000FEF740FA4FF4E1312C480EF0CBFB10F027
:102DF000D1FB044629480EF0C7FB48B910F0CAFBC6
:102E0000001BB0F5FA6F03D20A2010F0C7FBF1E700
:102E1000234922480FF0A4FF224920480FF0A0FFC9
:102E200021491E480FF09CFFFEF72EFAFFF78EFF98
:102E3000FEF716F9FEF72AF94FF480231B4CC82041
:102E4000A36110F0ABFB0423A361194C194913488B
:102E50000FF072FF184B6179184A1048022908BF19
:102E60001A4611460FF07CFF15490C480FF064FF1D
:102E7000A1790A22094801310FF0D9FF2B7E1BB13D
:102E8000104906480FF06CFFBDE838400E49034872
:102E90000FF066BFF404002000000020580D002051
:102EA00080780108A77801089F6C0108000402429D
:102EB0003C050020CD7401086E7801087778010880
:102EC0001F750108C7780108EA780108062210B5C5
:102ED0000E4CA3790133B3FBF2F102FB1133042250
:102EE000A3710B4B83F83C20002283F83D20FFF7B1
:102EF000A1FE084908480FF01FFFA1790A22BDE88A
:102F00001040054801310FF092BF00BF3C05002082
:102F1000F40400201F750108580D002070B5CA2068
:102F200010F0FCFAB0FA80F01E4C4009A07410F0CA
:102F300031FB0646C32010F0F1FAB0FA80F594F8A0
:102F400031306D09AB421CBF666384F83150636B4E
:102F5000F31A632B08D994F83030012B02D108B151
:102F6000FFF7B4FF84F830500F4B1D6994F83320FD
:102F700005F4005385F40055C5F34035AA421CBF43
:102F8000A66384F83350A26BB61A632E08D994F85E
:102F90003220012A02D10BB1FFF798FF84F832509A
:102FA00070BD00BFF40400200008024210B50E4CB2
:102FB000E37DBBB14EF65F22636C934212D94EF6AD
:102FC0006021B3FBF1F3094AD2F830120B44C2F886
:102FD00030320023636410F0DDFA2064BDE8104055
:102FE000FFF728BE10BD00BFF40400203C05002000
:102FF00030B5A64BA5B0DB7DF3B1A54800F0F6FBDC
:1030000030B9A449A44825B0BDE830400FF0A8BEAF
:1030100011A801229E4900F01BFC11A800F09EFCA3
:1030200050B111A800F0AFFB40B911A800F05DFC51
:103030009A4999480FF094FE25B030BD3F230A21EC
:1030400001AA11A80FF050FF002400F190036B4477
:1030500003F88C4C9DF80430232BE2D05B2BE0D09E
:103060000228DEDD3D2101A811F024FD0028D8D082
:1030700000F8014B01AB1D4613F8012B202AFAD0B2
:10308000044623780130202BFAD028468449FDF7E6
:10309000DFF848B9204610F0A8FC022801D0042827
:1030A000BFD1804B5871BCE728467F49FDF7D0F867
:1030B00040B9204610F099FC01380528B1D8794B69
:1030C0009871AEE728467949FDF7C2F868B92046FD
:1030D00010F088FC764B51EC100B0022FDF786FABD
:1030E000FDF71EFD6F4B98609BE728467149FDF781
:1030F000AFF868B9204610F075FC6D4B51EC100B21
:103100000022FDF773FAFDF70BFD664BD86088E7E8
:1031100028466949FDF79CF848B92046674911F0EF
:10312000E8FC003818BF01205E4B187579E7284687
:103130006349FDF78DF838B9204610F056FC0A2394
:103140005843584B18616CE728465E49FDF780F8F4
:1031500030B9204610F049FC524BA3F8000260E75A
:1031600028465949FDF774F830B9204610F03DFC67
:103170004C4BA3F8020254E728465449FDF768F87F
:1031800030B9204610F031FC464BA3F8040248E762
:1031900028464F49FDF75CF830B9204610F025FC71
:1031A000404BA3F806023CE728464A49FDF750F891
:1031B00030B9204610F019FC3A4BA3F8080230E76A
:1031C00028464549FDF744F830B9204610F00DFC7B
:1031D000344BA3F80A0224E728464049FDF738F8A3
:1031E00030B9204610F001FC2E4BA3F80C0218E772
:1031F00028463B49FDF72CF830B9204610F0F5FB86
:10320000284BA3F80E020CE728463649FDF720F8B4
:1032100030B9204610F0E9FB224BA3F8100200E77A
:1032200028463149FDF714F850B920462F4911F0CE
:1032300060FC003818BF01201A4B83F82402F0E626
:1032400028462B49FDF704F830B9204610F0CDFB95
:10325000144B83F82502E4E628462649FCF7F8FFDC
:1032600030B9204610F0C1FB0E4BA3F82602D8E679
:1032700028462149FCF7ECFF00283FD1204610F0FA
:10328000B4FB084BA3F82802CBE600BFF4040020EF
:10329000A06F0108F2780108580D0020D5790108C7
:1032A000027901083C05002007790108127901081C
:1032B000000059401F7901082B7901088D6F010822
:1032C00030790108407901084979010854790108E9
:1032D0005D7901086979010875790108707901083B
:1032E0007F79010891790108A27901084B730108DF
:1032F000AA790108B1790108B97901082846064977
:10330000FCF7A6FF00287FF48CAE204610F06DFB82
:10331000024B83F82E0284E6C57901083C050020A3
:103320002DE9F047454DA2B02E7E2B7DF6B223B19C
:103330001EB901232B76BFF34F8F0027404904A805
:103340000FF044FEB94604A90FA801370FF05FFE45
:103350000A22394607A80FF075FE07A90FA80FF03B
:10336000B9FE38490FF0C2FE014601A80FF04FFE2A
:1033700007A80FF0E9FD0FA80FF0E6FD04A80FF075
:10338000E3FD019800F032FA88B10FA801220199FB
:1033900000F05EFA0FA800F0E1FA40B14FF000082B
:1033A0000FA800F0F0F9A0B90FA800F09EFA01A84C
:1033B0000FF0CAFD062FC1D12B7D1BB116B9BFF38B
:1033C0004F8F2E762049214822B0BDE8F0470FF0FC
:1033D000C7BC1F230A2107AA0FA80FF085FD00F123
:1033E00088036B4403F86C8C9DF81C30232BD7D0DA
:1033F0000228D5DD3D2107A811F05CFB044600281A
:10340000CED004F8018B07A810F0EFFA82462046D0
:1034100010F0EBFA44F620639A45C1D800F10A0394
:10342000462BBDD8FA2351229AFBF3FA084B02FB34
:1034300009339A448AF81800B2E700BFF404002068
:1034400075710108FA6B0108E7790108580D002031
:103450003C05002038B5124C124913480FF080FC8F
:10346000257E237DEDB243B13DB901232376BFF321
:103470004F8F0E490C480FF073FCFFF7B9FDFFF7B3
:103480004FFFFFF7D7FB237D1BB115B9BFF34F8F5C
:10349000257607490448BDE838400FF061BC00BFFD
:1034A000F4040020F9790108580D0020067A01087B
:1034B000277A010810B56C4886B00DF0EDFF60B1B9
:1034C0000A22684668490FF027FD68460FF08AFE19
:1034D000029B23B968460FF037FD06B010BD634963
:1034E00003A80FF073FD684603A90FF03BFE0446E6
:1034F00003A80FF029FD64B103A804226946029BCA
:103500000FF04AFE03A8FEF7F9FB03A80FF01CFD1D
:10351000E0E7574903A80FF059FD684603A90FF0EB
:1035200021FE044603A80FF00FFD4CB103A80422AE
:103530006946029B0FF030FE03A8FEF707FEE4E7A2
:103540004C4903A80FF042FD684603A90FF00AFE9C
:10355000044603A80FF0F8FC4CB103A80422694606
:10356000029B0FF019FE03A8FEF798FFCDE768460F
:1035700041490FF0CFFD10B1FFF75CFBAAE76846A9
:103580003E490FF0C7FD10B1FFF78AFBA2E768467E
:103590003B490FF0BFFD10B1FDF776FE9AE7684694
:1035A00038490FF0B7FD10B1FFF7F8F892E7684619
:1035B00035490FF0AFFD10B1FFF71CFA8AE76846F6
:1035C00032490FF0A7FD044640B10022304B31498B
:1035D000A3F8342224480FF0C3FB7BE768462E494A
:1035E0000FF098FD30B12A4BC3F83042FFF722FBB1
:1035F0002A49EFE768462A490FF08CFD10B1FEF723
:1036000009FA67E7684627490FF084FD10B1FFF714
:1036100021FF5FE7684624490FF07CFD10B1FEF7FB
:10362000E7F957E7684621490FF074FD10B1FFF73D
:1036300077FEA1E768461E490FF06CFD10B1FDF75B
:103640009DFF47E768461B490FF064FD10B1FFF787
:10365000CFFC91E7184904480FF06EFB6946024819
:103660000FF088FB36E700BF580D0020437A0108B1
:10367000487A0108907101084D7A0108527A0108D0
:10368000577A01085F7A0108F0760108667A010826
:103690003C050020707A0108007701087B7A010858
:1036A000877A01088E7A0108957A0108A07A0108C4
:1036B000AB7A010884770108BA7A010838B50FF0AF
:1036C00069FF0446FFF72AFCFEF7DAF91F4A136880
:1036D000E31A092B02D91460FEF764FA1C4A136836
:1036E000E31A132B02D91460FEF7A8FA194A1368DB
:1036F000E31A312B02D91460FEF7A4FF164DFFF731
:10370000D9FE2B7D3BB1154A1368E31A632B02D90E
:103710001460FFF7DBF9FEF7E5FA4EF65F21104A79
:103720001368E31A8B4202D91460FFF73FFC2B7D2C
:103730005BB16B6AE41AB4F5FA7F06D900232B75E6
:10374000AB81BDE83840FFF731BC38BDD80400205C
:10375000D4040020D0040020F4040020CC04002075
:10376000C80400200020704707B503688DF80710D3
:1037700001225B680DF10701984703B05DF804FB77
:1037800003685B6A18474369D8685B69C01A47F6E3
:10379000FF73984228BF1846704707B50122406959
:1037A00001AB0DF1030101F05FFE20B99DF90300AB
:1037B00003B05DF804FB4FF0FF30F9E7406901F01A
:1037C000CFBF07B5406901AB01F002FF019803B01C
:1037D0005DF804FB10B5044600F0F2F828B104F1DE
:1037E0002400BDE8104000F021B910BD00B5C7B0FD
:1037F000694602F0FEF8B0FA80F0400947B05DF883
:1038000004FB08B502F080F900F0F700B0FA80F090
:10381000400908BD08B502F018F9B0FA80F0400977
:1038200008BD000038B50D464FF47A7300210446F8
:10383000C0E90113054BC0E90411036030221830C0
:1038400011F030F9204684F8485038BDCC7D01088D
:1038500070B50D46002116460446FFF7E3FF2846E3
:10386000FCF700FD013010F0C9F8206100B9FEE757
:10387000294611F0A4F94FF40A7010F0BFF8606106
:1038800000B9FEE70023022E0360A36105D128469C
:10389000FFF7ACFF002808BF0A26324629466069B8
:1038A00001F0EEFC84F8480080B10026606910F059
:1038B000ADF82946666104F1180002F04FF884F86B
:1038C000480018B1206910F0A1F82661204670BDAB
:1038D00007B5406901AB01F0C7FD18B9019803B005
:1038E0005DF804FB4FF0FF30F9E7036910B50446BB
:1038F000C3B1406958B1036823B101F031FF606979
:1039000001F079FF606910F081F800236361A36919
:103910001BB104F1180002F063F8206910F076F88A
:103920000023236110BD406908B5C368994205D8DA
:1039300001F070FFB0FA80F0400908BD0020FCE7FC
:1039400038B5036804465B699847054663692046B5
:1039500059690139FFF7E7FF284638BD034600697A
:1039600050B15A6922B99869003818BF01207047D0
:103970001268002AF7D0012070470000014800F0CB
:1039800003B800BFBC0800200B4A0C4B516F1960F4
:10399000D2F8A4105960516E9960D2F89410D96091
:1039A000116E5961D2F890201A614FF0FF32C3E9CD
:1039B0000622C3E908227047F08B010804000020AA
:1039C0000B46312B10B51146044607D100F0D8F94B
:1039D000C0B9204600F01AFA012014E0DAB2302A09
:1039E0000CD8104803F4E06350F822001843431C3D
:1039F00008D000F00FF90028E8D003E003F0C00081
:103A0000C02801D0002010BDCF2AFBD8064A03F001
:103A10003F0052F82000034A03F4E06352F820000C
:103A2000E4E700BFF08B0108B08B010838B500F562
:103A30000D7504462946074802F01CF940B90122D9
:103A40002946204601F0F8FBB0FA80F0400938BD65
:103A50000020FCE7F47D010891FAA1F3B3FA83F3A7
:103A600091FAA1F130B5B1FA81F1032584685B00C8
:103A700005FA03F3490024EA03038A401A438260EB
:103A800030BD91FAA1F3B3FA83F391FAA1F130B505
:103A9000B1FA81F1032504685B0005FA03F34900DC
:103AA00024EA03038A401A43026030BD91FAA1F36D
:103AB000B3FA83F391FAA1F130B5B1FA81F103259C
:103AC000C4685B0005FA03F3490024EA03038A4053
:103AD0001A43C26030BD00002DE9F047444C206815
:103AE000431C0BD1434B1868434B20601B68636039
:103AF000424B1B68A360424B1B68E36023693D494E
:103B0000013302BF3F4B1B6823616369013302BF6E
:103B10003D4B1B686361636A013302BF3B4B1B680B
:103B200063620CF063FB3449804660680CF05EFB16
:103B300032498246A0680CF059FB31490746E068DB
:103B40000CF054FB2F49814620690CF04FFB2E49A5
:103B5000054660690CF04AFB0646B8F1000F02D139
:103B60000120BDE8F087BAF1000FF9D0002FF7D09F
:103B7000B9F1000FF4D0002DF2D00028F0D051465A
:103B800040460CF05AFB4946804638460CF055FB3F
:103B90003146074628460CF050FB3946064640465B
:103BA0000CF04BFB314681460CF047FB0546B8F163
:103BB000000FD5D0002FD3D0002ED1D0B9F1000FF7
:103BC000CED00028CCD0E369114E0133306004D14F
:103BD0003068B0FA80F04009C3E70C49606A0CF025
:103BE00005FB29460CF029FB0028F1D1B8E700BFFE
:103BF00004000020F4830108DC830108C483010869
:103C0000AC830108248401080C840108A083010806
:103C1000180B002038B50446C0F303100D460BF016
:103C20004DFE60B1074B04F00F0453F82420064BFF
:103C30001A60064B18600020054B1D6038BD01203E
:103C4000FCE700BFC88201083400002030000020DB
:103C50002C000020074B1A68074B12691B6893431E
:103C60000CBF01200020054B1B68C31A5842584165
:103C7000704700BF30000020340000202C000020DE
:103C800007B5009313460A460146044807F018FB9F
:103C9000003818BF012003B05DF804FB180B0020AA
:103CA00007B5009313460A460146044807F0E4FBB3
:103CB000003818BF012003B05DF804FB180B00208A
:103CC00037B5194C1949054620680CF077FA1849A0
:103CD00060680CF073FA1749A0680CF06FFA164987
:103CE000E0680CF06BFA154920690CF067FA60691E
:103CF00013490CF063FA606A431C02D011490CF0BE
:103D00005DFA2A68104B9A420CD1104BD3F89420DC
:103D100042F40062C3F89420D3F8943003F40063B3
:103D20000193019B03B030BD04000020F48301081F
:103D3000DC830108C4830108AC83010824840108E2
:103D40000C840108A083010800800046000C024496
:103D5000094B10B51C68094B214603221868FFF770
:103D60007BFE21460022FFF78CFE2146BDE8104075
:103D70000122FFF79BBE00BF34000020300000206E
:103D800038B51B4C94F8303003F0FF056BBBFFF7E0
:103D9000A3FE012801D1012038BD04236361154B26
:103DA000C4E901551A684FF6FF739A42C4E90355F6
:103DB00011D10F480021FFF783FF0D4807F0AAFF3C
:103DC0000028E8D14FF48041094807F0D1FE0038BF
:103DD00018BF0120E0E720462946FFF7B9FFFFF7AB
:103DE00039FF0128E5D00220D6E70020D4E700BF44
:103DF000180B00203400002008B5034807F076FFB8
:103E0000043818BF012008BD180B002001460148E6
:103E100007F09CBE180B0020034B1A1803EB80031D
:103E20005B68107A5B6818479C0B002038B5084D1A
:103E300004462B5C53B905EB800252682B181268BC
:103E4000187A904708B901232B5538BD0020FCE7AC
:103E50009C0B002030B4054C251804EB80046068EE
:103E60008468287AA44630BC604700BF9C0B0020C1
:103E700030B4054C251804EB80046068C468287AC7
:103E8000A44630BC604700BF9C0B002010B4054B1B
:103E90001C1803EB80035B68207A1B695DF8044BF8
:103EA000184700BF9C0B00200020704730B5124B14
:103EB00015461C788BB014F0010419D1032919D8C8
:103EC000DFE801F00D02081001A8FFF79FFF079B34
:103ED0002B6004E001A8FFF799FF089B2B80204688
:103EE0000BB030BD01A8FFF791FF089B5B0AEFE71D
:103EF0000324F4E70424F2E73800002008B508465C
:103F000011461A464FF0FF33FFF7CAFE20B9FFF7FC
:103F100073FF0028FBD108BD0120FCE7012310B589
:103F2000054C2370FFF768FF18B9237803F0FE03F0
:103F30002370207810BD00BF3800002008B5084667
:103F400011461A464FF0FF33FFF79AFE20B9FFF7EC
:103F500053FF0028FBD108BD0120FCE738B501253F
:103F6000084C2570FFF70CFF50B92570FFF744FF90
:103F700018B9237803F0FE0323702378DBB2237093
:103F8000207838BD38000020006870470B0A0170A7
:103F900043700B0C090E8370C1707047836902393E
:103FA000023B8B4283BF4389C06A01FB03000020B0
:103FB0007047034600F10B010020C20142EA5002A3
:103FC00013F8010B50FA82F28B42D0B2F5D1704750
:103FD00003687BB11A4612F8011B1F2908D93A2938
:103FE000F9D11978302905D102339A4202D1026001
:103FF000002070474FF0FF30704738B50D4604463B
:1040000018B9092000232B6038BD0368002BF8D0B5
:104010001A78002AF5D08188DA889142F1D158784F
:10402000FFF7FAFE10F00100EBD12368EBE738B59B
:1040300003790446C3B100F13405026B012329461C
:104040004078FFF715FF88B9216B636AE269CB1AE4
:104050009342207108D2E378022B05D10A44012350
:1040600029466078FFF704FF002038BD0120FCE7F7
:104070002DE9F0470026D0F800908E758369074639
:104080000C46002B7ED0C36A01335ED10023184654
:10409000F9694D1E15F8012F0130202A0DD0052A8F
:1040A00008BFE522092805D10B2B9FBF2E27E61854
:1040B00077720133E618727201330B28EAD10020BF
:1040C000E2185072A27D002A4FD1002B44D008255F
:1040D00004F108035A78581C002A55D11B1B083BD1
:1040E0003DE0B8F1000F05D100F520539BB2B3F5C8
:1040F000006F13D340F2523140EA084001F0C2FD94
:10410000FF28C5F1FF0A18D9BAF1010F20D96319A8
:10411000020A9A75D875022300201D448046023693
:10412000D9F80C30985B0028DBD1B8F1000F18BF2C
:10413000002500232544AB75A8E748B1BAF1000F6C
:1041400008D0631998750123E6E7B0463546E7E7DE
:104150000025EAE75546E8E73F23A375012300223F
:1041600023449A750B7B03B96372CB7A01F11C006F
:1041700003F03F032372FFF707FF2060CB8AE38041
:104180000B8BA380BDE8F0872E2A134609D0413A55
:10419000192A03D80A7B154200D020334373034603
:1041A00098E71025FAE7F8B50446FFF740FF054603
:1041B000002842D12378032B37D16779012F34D1DE
:1041C00004F1340601464FF40072304610F06AFCE8
:1041D000552384F83232AA2384F833325223412201
:1041E000722184F8343084F83530612384F8372024
:1041F00084F8363084F81B3284F8181284F81912C7
:1042000084F81A22616904F50770FFF7BFFE21697F
:1042100004F50870FFF7BAFE226A3B4601323146C8
:1042200060782263FFF724FE6571002260781146F2
:10423000FFF72CFE003818BF0120F8BDC2F307239A
:104240008A76CB760378032B01BF120C0A75120A0B
:104250004A75704738B5036B04468B420D460FD044
:10426000FFF7E5FE58B901232A46607804F13401CE
:10427000FFF7F0FD10B101204FF0FF35256338BD89
:104280000020FCE738B5002303714FF0FF330363D0
:104290000446FFF7DFFF00283FD194F83430B4F82C
:1042A0003252EB2B03D01833DBB2012B2ED84AF657
:1042B00055239D4206D108221A4904F1860010F0C8
:1042C000E1FB48B3B4F83F30B3F5007F1ED194F85A
:1042D0004130DBB15A1E1A4218D1B4F84230ABB1AA
:1042E00094F84430013B012B10D8B4F845306BB141
:1042F000B4F847307F2B06D804F15400FFF744FE92
:10430000B0F5803F02D3B4F84A3043B94AF655209D
:10431000854214BF0320022038BD0420FCE70020A2
:10432000FAE700BFC47A010801292DE9F8430546E0
:104330000C4616466ED983698B426BD90378022BE3
:104340003FD0032B4FD0012B64D101EB5107416AC1
:1043500001EB5721FFF77EFF10B10120BDE8F88384
:1043600014F0010405F1340807F10109C7F3080747
:1043700018BF18F80720F3B21EBF02F00F0242EA7E
:104380000313DBB208F807300123696A28462B7152
:1043900001EB5921FFF75EFF0028DED1C9F30802C7
:1043A0003CB1C6F3071608F80260012300202B7108
:1043B000D4E718F80230C6F3032623F00F031E4398
:1043C000F1E7416A01EB1421FFF744FF0028C4D153
:1043D000640005F1340304F4FF741E551A19C6F382
:1043E00007265670E1E7416A01EBD411FFF732FF6F
:1043F0000028B2D1A40005F1340304F4FE74234470
:104400001846FFF7C1FD0146184666F31B01FFF78A
:10441000BDFDCAE70220A1E72DE9F84305460E4697
:10442000FFF705FE044660BB31462846FFF7B6FDA0
:1044300005F134092146286307464FF400724846C7
:1044400010F030FB6C896402B4F5004F28BF4FF4C4
:104450000044B4F5007F30D9204601F00EFC8046C0
:1044600090B12246002110F01DFB0026640A6B89E2
:104470009E420BD3404601F002FC6C89A41B18BF7E
:1044800001242046BDE8F8836408E2E7234641465C
:104490006878BA19FFF7ECFC0028EBD12644E6E770
:1044A00001366B899E42E8D2012349466878BA19E1
:1044B000FFF7DEFC0028F3D0DFE70026F1E700007D
:1044C0000023F0B585B00B600E461546FFF780FD62
:1044D000013000F00581854B1C68002C00F0028142
:1044E0003460237805F0FE0563B16078FFF794FC33
:1044F000C30707D40DB1470702D4002005B0F0BDB3
:104500000A20FBE7002360782370FFF78FFCC607C3
:1045100000F1EA800DB14107F2D400212046FFF7F7
:10452000B1FE022840F0C4806E466A4604F5FD7371
:1045300004F23A211846FFF727FD10338B4242F868
:10454000040BF7D1002556F8041B002900F0A780C2
:104550002046FFF797FE012800F2A280B4F83F3012
:10456000B3F5007F40F0A980B4F84A6026B904F1A1
:104570005800FFF709FD064694F84430216B5A1E97
:10458000012AE661E37000F2988094F84150658159
:10459000002D00F092806A1E2A4240F08E80B4F80E
:1045A00045703A07278140F08880B4F8470018B971
:1045B00004F15400FFF7E8FCB4F84220002A7CD054
:1045C00006FB03FE02EB171CF444604575D3A0EB19
:1045D0000C00A842B0FBF5F36FD3454883426CD87A
:1045E0004FF6F57083426AD840F6F575AB428CBF42
:1045F0000225012502330A4401EB0C00032DA361BF
:1046000021626262E0625CD1B4F85E203A4354D128
:1046100004F16000FFF7B8FC9B0003F2FF13B6EB58
:10462000532FA06249D34FF0FF33C4E904338023F2
:10463000032D63712BD1B4F86430012B27D12046B0
:104640000131FFF707FE10BB4AF65523B4F83222BA
:1046500060719A421BD104F13400FFF795FC254BA1
:10466000984214D104F50670FFF78EFC03F1FF5356
:1046700003F500532033984209D104F50770FFF782
:1046800083FC606104F50870FFF77EFC20611A4A24
:104690002570138801339BB21380E3802DE703203C
:1046A0000135042D7FF44FAF042806D1012025E702
:1046B0000428FBD001287FF651AF0D201EE703250B
:1046C00098E7002FF9D0022D02EB0E004FEA4302CB
:1046D0001BBFD21803F00103134603EB52039CE700
:1046E0000B200BE70C2009E7032007E7980B0020BD
:1046F000F5FFFF0F52526141940B002003284B8BB2
:1047000004BF8A8A43EA0243184670470129F8B574
:1047100006460C464ED9836999424BD20378022B48
:1047200029D0032B34D0012B44D101EB5105416A30
:1047300001EB5521FFF78EFD10B14FF0FF30F8BDB2
:10474000716A6F1CC5F308053544304601EB5721EB
:1047500095F83450FFF77EFD0028EED1C7F3080727
:10476000374497F8343045EA0320E3074CBF00098B
:10477000C0F30B00E3E7416A01EB1421FFF76AFD88
:104780000028DAD1640004F4FF743444A08ED6E724
:10479000416A01EBD411FFF75DFD0028CDD1A400E3
:1047A00006F1340004F4FE742044FFF7EDFB20F022
:1047B0007040C4E70120C2E7F8B50C46012C06465C
:1047C000114605682BD9AB69A34228D92AB14FF00D
:1047D000FF322846FFF7A8FD38B921463068FFF7B9
:1047E00095FF2746044608B90020F8BD012816D0D9
:1047F000431C16D0002239462846FFF795FD0028B5
:10480000F3D1D5E90532911E8B4205D201336B619C
:104810006B7943F001036B71A242DED8E4E702201A
:10482000E3E70120E1E72DE9F84381460F460568FB
:1048300049B92E69C6B1AB69B34298BF01266B690D
:10484000A3B9002406E02846FFF760FF01280446CC
:1048500003D801242046BDE8F883421C54D0AB693C
:104860008342F7D83E46EAE70126E8E7BE4216D182
:10487000AB69741C9C4228BF0224D9F80000214671
:10488000FFF744FF0128E4D0431C3DD0F0B1D5F838
:104890001080B8F1010F02D9AB69434500D8B0468A
:1048A0004446AB690134A34203D8B8F1010FC8D024
:1048B00002242146D9F80000FFF728FF40B1012863
:1048C000C7D0013020D04445EBD1BAE7002CE6D068
:1048D0004FF0FF3221462846FFF726FD90B957B921
:1048E000D5E90532023A93422C6110D96B7943F035
:1048F00001036B71AEE7224639462846FFF714FDE7
:104900000028EDD00128A4D14FF0FF34A2E7013BED
:104910006B61EBE72DE9F843076904462037B7F5EB
:10492000001F24BF0023836183698946066873B131
:10493000C7F30808B8F1000F39D141690133836129
:1049400041B93389B3EB571F31D80023A361042049
:10495000BDE8F8837389013B13EA572327D130461A
:10496000FFF7D4FE0128054601D80220F0E7421CDB
:1049700001D10120ECE7B369834212D8B9F1000FED
:10498000E3D020466169FFF74EFF0546A8B1012834
:10499000EBD0431CEDD001463046FFF73DFD00282B
:1049A000E7D1294630466561FFF7F8FAA061343651
:1049B000464400202761E661CAE70720C8E70000F7
:1049C0002DE9F843FF268046354604240768D8F8C9
:1049D000181019B9002C69D0042453E03846FFF7A9
:1049E00039FC044600284DD1D8F81C000378002B70
:1049F000F2D0C27AE52B02F03F0288F8062047D0B9
:104A00002E2B45D022F02001082941D00F2A44D175
:104A100059063BD503F0BF05D8F81030467BC8F8DF
:104A20002C30437BB34233D1428B8ABB0D210378B8
:104A30004FF6FF7923F04003013B4B430121D7F8A8
:104A40000CC0DFF870E01EF8014B045B11B3FF2BC4
:104A50001ED821462CF81340013301320D2AF2D121
:104A60000278520605D521B1FF2B11D800222CF86F
:104A70001320013DEDB200214046FFF74BFF0446F5
:104A80000028A4D00023C8F818300FE0AB42C8D0EB
:104A9000FF25F0E74C45E0D0FAE71DB9FFF789FAAA
:104AA000B04203D04FF0FF33C8F82C302046BDE8A9
:104AB000F88300BF887E0108B1F5001FF8B50646EF
:104AC0000C4601D30220F8BDCA06FBD182680568F6
:104AD0000161BAB92B78022B01D9AB6A9BB92B893A
:104AE000B3EB541FEED9A86AC6E905200028E9D027
:104AF00000EB54203435C4F308042544B061F5615B
:104B00000020E0E713461A466F897F02BC42114637
:104B100003D22846FFF742FAE6E73068FFF7F6FDD2
:104B2000431C024606D00128CCD9AB698342C9D9BF
:104B3000E41BEBE70120C6E7C16A2DE9F0414B1CFD
:104B400004460568066918D1E5274FF00108284694
:104B5000A169FFF77FFBA0B9E3691F7085F80480A6
:104B60002369B3420DD201462046FFF7D3FE002849
:104B7000EDD0042808BF022003E0FFF79DFF0028C6
:104B8000E2D0BDE8F08100002DE9F04F002187B0B0
:104B90000446D0F800A0FFF78FFF0546002840F03C
:104BA0008A804FF0FF084FF0FF39C34604F120031D
:104BB000C4F82C9002935046A169FFF74BFB0546C1
:104BC000002878D1E6693778002F78D0F27AE52F7F
:104BD00002F03F03A37103D0100758D50F2B02D06A
:104BE000C4F82C904BE094F82B3059063DD47A064B
:104BF00043D5236996F80D8007F0BF07E362737B06
:104C000043453CD1738B002B39D10D2301213578DD
:104C1000DAF80CB005F03F05013D5D43294B13F870
:104C2000012BB25A71B3FF2D059328D81046049278
:104C300001F05AF86B1C03903BF81500019301F04A
:104C400053F8039981421AD1049A019D1146059B9C
:104C50001D4A9A42E3D133785B0603D511B13BF884
:104C6000153063B9013F5FFA87FB00212046FFF74B
:104C700051FE054600289ED01DE0BB45BFD04FF039
:104C8000FF0BF2E74FF6FF708242E1D0F7E7BBF18E
:104C9000000F04D13046FFF78CF940450BD094F853
:104CA0002B5015F001059BD10B22304602990FF0D5
:104CB000E9FE002894D1284607B0BDE8F08F04250E
:104CC000F9E700BF887E0108957E01082DE9F04FC5
:104CD0000646036885B001938A4611F8013B2F2BE5
:104CE000FAD05C2BF8D00023B3609AF800301F2B69
:104CF00000F2B68080230021304686F82B3005B0C4
:104D0000BDE8F04FFFF7D8BE2F2800F02F815C28B8
:104D100000F02C817F2806D801469C480FF0CAFE7F
:104D2000002840F0E980FF2F00F0E6802BF81740C4
:104D3000013799E033F8022D202A02D02E2A40F0C4
:104D4000A680013FA0E0994580F0DD80BA4212D1F3
:104D50000B2B07D1DAE0BA4204D044F00304E4B2EA
:104D600000F2D8804FEA88083A460B234FF0080932
:104D70005FFA88F8BEE07F2D3ED944F00201CDE90C
:104D800002232846CBB240F25231009300F07AFF62
:104D9000DDE9022310F0800F054614D07C4900F0B5
:104DA0007F054D5D45B129467A48CDE902230FF0D4
:104DB00081FEDDE9022308B300995F2541F003017C
:104DC000C9B2009110E0FF28ECD9591E894504D3DF
:104DD00044F003049946E4B28CE006EB0901000AB2
:104DE00081F8200009F1010906EB0901009C81F816
:104DF000205009F101097DE00094D4E7A5F14101BB
:104E000089B2192902D848F00208EDE7A5F161013D
:104E100089B219299EBF203D48F00108ADB2E3E7F1
:104E2000A10700F1908008F0010344EA0313DCB20B
:104E300018F0040F18BF44F0080484E05A0700F18A
:104E40009280B379DB0659D5019B03F134013369B4
:104E5000C3F308031944019B1878FFF74FFCB060B7
:104E600000273368D3F80CB01AF8010B48B140F2B0
:104E7000523100F025FF044600283DD01F283FF6A0
:104E800043AF04240BEB4703002F7FF453AF4FF0E5
:104E900000020BEB47032BF817206FB300223BF8FF
:104EA00012001146202802F10102F8D009B92E287B
:104EB00002D144F00304E4B233F8022D2E2A01D0CB
:104EC000013FF9D14FF020334FF000097362336294
:104ED000C6F82730C84608233BF811504A1CCDB10C
:104EE000202D04D02E2D7FF42EAFBA4208D044F0EE
:104EF0000304E4B21146EFE7062034E0052032E077
:104F00009945FFF425AF0B2B7FF425AF0B2344F01D
:104F10000304E4B296F82020E52A04BF052286F8AF
:104F20002020082B04BF4FEA88085FFA88F808F0B1
:104F30000C030C2B04D008F00303032B7FF470AF99
:104F400044F00204E4B2304686F82B40FFF71CFE22
:104F500096F82B3000283FF471AF042803D113F0EA
:104F6000040F08BF052005B0BDE8F08F53461C783C
:104F70009A462F2C03F10103F9D05C2CF7D01F2C9B
:104F80008CBF00240124A4007CE700BFCD7A010877
:104F9000087E0108D67A01082DE9F04F90F82B30F1
:104FA000044613F0A00889B040F0B1800768F968A2
:104FB00031F81820002A72D10DF1140A04F12006EC
:104FC00096E807008AE80700DA0740F1A780402248
:104FD0004FF0010B964D84F82B20B4469AE8070059
:104FE000D7F80CE0ACE80300BBF1050F2CF8022B5E
:104FF0004FEA12428CF8002064D95A46AEF1020002
:1050000030F8021F00294DD1D446072102F00F0EBF
:105010000EF13000392888BF0EF137000139914672
:105020000CF8010D4FEA121202D0B9F10F0FEDD8B2
:105030007E2001F120026A4402F8140C002204F1DF
:105040001F008A4206D010F801CF02F1010EBCF118
:10505000200F39D11F32224404F1270C07298FBFBA
:10506000202001F12000684410F8140C98BF013191
:1050700002F8010F9445F1D120460193FFF784FD1A
:10508000019B8146002845D10BF1010BBBF1640F58
:10509000A3D14FF00709484609B0BDE8F08F08F1E9
:1050A000010885E74FF0100C01F0010E0EEB4202F3
:1050B00012F4803F18BF6A40BCF1010C4FEA510165
:1050C000F2D19DE75A469FE77246BAE78046012132
:1050D0002046FFF71FFC8146002835D00428D8D091
:1050E000D9E701462022E0690FF0DCFC03CEE3693A
:1050F00018605960B27831889A72198194F82B300F
:10510000E26903F01803137301233B71C3E74FF007
:105110000609C0E70428BED184F82B309B0742BFA4
:105120000D2308F10C05B5FBF3F54FF00001204607
:1051300058BF0125D4F800A048BF0135FFF7BCFCDB
:1051400081460028A7D180465046A169FFF782F822
:1051500000286AD1E3691B78E52B01D0002BB5D17B
:1051600008F101084545B2D1013D56D021692046DC
:10517000A1EB4511FFF7A0FC814600288BD13046FA
:10518000FEF717FF4FF6FF7801903846A169FFF749
:1051900061F8814600287FF47EAFE369019AD7F871
:1051A0000CE05A734FF00F024FF00D0CE9B2DA72B7
:1051B0004A1E0CFB02F28446DFF878A0187398763A
:1051C000D876404518BF3EF812001AF8019B0CF142
:1051D000010C03F8090018BF013203EB090B4FEA79
:1051E0001029002808BF4046BCF10D0F8BF8019034
:1051F000E7D1404502D03EF812200AB941F0400103
:1052000019700123002120463B71FFF783FB814683
:1052100000287FF440AF013DB7D13846A169FFF7C0
:1052200019F8814600283FF45CAF4FF0010932E7DE
:1052300021100100887E01081FB5CDE9001003A8E8
:1052400014460391FEF7C4FE013014D00B4B1A68CC
:1052500012B1002119601170019A12B100211A6077
:1052600011802CB10022684601A9FFF729F90446F4
:10527000204604B010BD0B24FAE700BF980B0020B5
:105280002DE9F04F91B0904605460191002800F0BD
:10529000E78002F03F094A4603A901A8FFF710F989
:1052A0000446002840F09080039E4FF4007004965E
:1052B00000F0E3FC0746002800F0D480F06001997C
:1052C00004A8FFF703FD044620B99DF93B30002BED
:1052D000B8BF062418F01C0F7CD0002C42D0042C40
:1052E0006ED104A8FFF758FE0446002868D149F0A3
:1052F0000809FEF7D9FD024601460B980E30FEF76D
:1053000045FE0B9811461630FEF740FE0B9930789B
:10531000FFF7F4F92023CB72002280460B99304628
:10532000FEF78CFF00220B9B1A775A779A77DA7771
:1053300001233371B8F1000F11D0414604A8D6F80B
:1053400030A0FFF739FA0446002839D151463046DB
:10535000FEF780FF08F1FF310446316180BB49F060
:1053600040090AE09DF8163013F0110F3DD118F0F6
:10537000040F6FD118F0080FBBD1336B0B992B6260
:1053800069623078FFF7BAF9A860834601F11C0022
:10539000FEF7FAFD0021F38805F12808E86082464F
:1053A0004FF4007240462E60AB8085F8109069740F
:1053B000E96169610FF076FB19F0200F17D1002425
:1053C000384600F05CFC0CB100232B60204611B085
:1053D000BDE8F08F002CF3D19DF81630DA063BD4EF
:1053E00018F0020FC9D0DB07C7D50724E8E7BAF1E8
:1053F000000FE4D07489C5F814A06402A24519D83E
:105400000024C5F818B0002CDAD1CAF30803002B29
:10541000D5D059463046FEF7C1FDF8B100EB5A220F
:10542000EA61012341467078FEF714FD041E18BF9F
:105430000124C5E759462868FFF768F90128834623
:10544000AAEB040A04D9B0F1FF3FD7D10124D8E771
:105450000224D6E70824B3E70424B1E70224AFE727
:105460000924B3E71124B1E72DE9F04F9A46002350
:1054700087B08846CAF8003005A904461646FEF7EC
:10548000BCFD002840F0A080677C17BB237C13F094
:105490000103019300F09A806369E568ED1AB54253
:1054A00028BF354604F12803029395B16369C3F31D
:1054B0000802002A79D1DDF81490B9F80A20013ADF
:1054C00012EA532217D143B9A06801280CD8022749
:1054D0006774384607B0BDE8F08FA1692068039271
:1054E000FFF714F9039AF0E7431C03D10123019F4E
:1054F0006374EEE7A0614846A169FEF74FFD0028FE
:10550000E5D0B5F5007F02EB00062FD3B9F80A10FD
:1055100002EB552088424FEA552B88BFA1EB020BC6
:105520005B463246414699F80100FEF793FC00289D
:10553000DCD194F91020002A0BDAE069801B584571
:1055400007D24FF4007204F1280108EB40200FF05D
:105550003EFB4FEA4B26DAF80030AD1B3344CAF865
:1055600000306369B044334463619EE7E269B2424C
:105570001AD094F9103004F12801002B0CDA012321
:1055800099F801000391FEF773FC0028AED1237C4B
:10559000039903F07F0323740123324699F8010035
:1055A000FEF758FC0028A1D1E6616169029BC1F3B6
:1055B0000801C1F50076AE4228BF2E46404632466D
:1055C00019440FF004FBC6E7092782E7072780E7A5
:1055D0002DE9F04F9A46002385B08846CAF800307E
:1055E00003A904461646FEF708FD002840F0B480E3
:1055F000657C2DBB237C9A0740F1B0806369F34240
:1056000028BFDE4304F128030093AEB16369C3F3FE
:105610000802002A40F08D80DDF80C90B9F80A707D
:10562000013F17EA53271ED173B9A16871B920460B
:10563000FFF7F9F8014648B9237C43F0400323748F
:10564000284605B0BDE8F08FA169F0E7012902D135
:1056500002256574F4E74B1C01D10125F9E7A36825
:10566000A16103B9A16094F91030002B0DDA012378
:10567000E26999F8010004F12801FEF7F9FB00281E
:10568000EBD1237C03F07F0323744846A169FEF726
:1056900085FC0028DCD0B6F5007F07EB000B35D386
:1056A000B9F80A1007EB562088424FEA56235A46AB
:1056B00088BFCB1B99F8010041460193FEF7D8FB48
:1056C0000028CAD1E169019BA1EB0B0199420CD2E0
:1056D0004FF4007208EB412104F128000FF077FA33
:1056E000227C019B02F07F0222745F02DAF8003014
:1056F000F61B3B44CAF800306369B8441F44E368B2
:105700006761BB422CBFE360E7607EE7E3695B450E
:105710000DD0E1686369994209D901235A4699F885
:10572000010004F12801FEF795FB002895D1C4F88B
:105730001CB06069009BC0F30800C0F50077B74259
:1057400028BF374618443A4641460FF040FA237CBA
:1057500063F07F032374C9E7092571E707256FE725
:105760002DE9F34101A90446FEF747FC002840D18A
:10577000237C13F040000BD01B06019F0FD50123A3
:10578000E269787804F12801FEF772FB18B1012074
:1057900002B0BDE8F081237C03F07F032374FEF7A1
:1057A00083FB216A80463846FEF754FD06460028F2
:1057B000EDD1656AEB7A294643F02003EB72A268CB
:1057C0002068FEF73BFDE16805F11C00FEF7DEFBFB
:1057D000414605F11600FEF7D9FB0123AE74EE74C5
:1057E00038463B71FEF7DFFC237C23F04003237433
:1057F000CEE70920CCE713B50446FFF7B1FF28B97F
:10580000204601A9FEF7F9FB10B9206002B010BDD7
:105810000920FBE72DE9F7430D4601A90446FEF7F1
:10582000ECFB002840F09880667C002E6CD1E36889
:10583000AB4204D2227C12F0020F08BF1D460022A8
:10584000636962616DBB0025E2686369934282BF50
:10585000227CE36042F04002C3F3080388BF227455
:10586000002B51D0E269AA424ED094F91030019F2A
:10587000002B04F128080ADA012341467878FEF764
:10588000F7FA002846D1237C03F07F032374012319
:105890002A4641467878FEF7DDFA00283AD1E561DC
:1058A00032E0019FB7F80A804FEA482883B1013BF4
:1058B0006A1EB2FBF8F2B3FBF8F18A4208D3C8F1D2
:1058C00000021340A1696361ED1A0029BBD002E018
:1058D000A16889B1A1614545636920D863692B44FA
:1058E0006361C5F30803002BADD03846FEF756FBC5
:1058F00040B100EB5525A7E72046FEF794FF0128AD
:10590000014605D102266674304603B0BDE8F08337
:10591000481C01D10126F6E7A160A161D5E7434407
:105920006361237CA5EB08099A0706D52046FEF79C
:105930007AFF054628B90146D0E72068FEF7E6FE63
:1059400005466B1CE6D0012DDCD9BB69AB42D9D929
:105950002946A5614D46BEE70926D5E7F0B585B0D5
:1059600005460191002837D0002203A901A8FEF7BF
:10597000A7FD044638BB039F4FF400702F6000F072
:105980007CF9064650B3F86001992846FFF79EF966
:10599000044690B995F92B30002B07DBAB79DB0679
:1059A00016D53878E969FEF7A9FEA860FB880021C2
:1059B0002846AB80FFF780F80446304600F05FF9D8
:1059C000042C07D00CB100232B60204605B0F0BD9D
:1059D0000524F2E70524F6E70924F6E71124F4E7A5
:1059E00013B501A90446FEF708FB00B9206002B018
:1059F00010BD70B58EB001900E46002202A901A81C
:105A0000FEF75EFD0446C8B94FF4007000F035F9AA
:105A10000546C0B1029B0199D86002A8FFF756F96C
:105A2000044640B99DF93330002B0ADB1EB13146E4
:105A300002A8FEF71DFB284600F021F920460EB013
:105A400070BD0624F7E71124F8E72DE9F0419CB07A
:105A50000190022203A901A8FEF732FD0446E0B935
:105A6000039E4FF40070049600F007F905460028E5
:105A700048D0F060019904A8FFF728F9044648B916
:105A80009DF93B30002B3BDB9DF8168018F0010F91
:105A900007D00724284600F0F2F820461CB0BDE8E5
:105AA000F0810B993078FEF729FE18F0100F0746A9
:105AB0000BD104A8FFF740F804460028EAD1B7B993
:105AC0003046FEF770FB0446E4E72146129010A82A
:105AD0001096FEF7F1FF04460028DBD110A8FEF770
