:020000040800F2
:1000000000000A202967010879670108796701085B
:10001000796701087967010879670108796701083C
:1000200000000000000000000000000079670108E7
:100030007967010800000000796701085F30010856
:10004000796701087967010879670108796701080C
:1000500079670108796701087967010879670108FC
:100060007967010879670108796701082132010879
:10007000273201082D3201083332010839320108D4
:100080003F320108453201084B3201085132010864
:1000900059320108613201086932010871320108E0
:1000A0007932010881320108893201087967010833
:1000B000796701087967010879670108796701089C
:1000C000796701087967010879670108796701088C
:1000D0000000000079670108796701087967010865
:1000E00079670108796701082D1901087967010806
:1000F0004119010845190108591901086D1901082C
:100100008119010895190108A919010879670108E1
:10011000796701087967010879670108796701083B
:100120007967010879670108313D0108493D0108F7
:10013000653D0108813D0108993D0108C93D01085F
:100140007967010879670108BD1901087967010815
:10015000D11901087967010879670108111A0108A6
:10016000251A0108391A0108E15C010879670108BC
:1001700079670108796701087967010879670108DB
:1001800079670108796701087967010879670108CB
:1001900079670108B13D0108293E0108413E010887
:1001A00079670108796701087967010879670108AB
:1001B000796701087967010879670108796701089B
:1001C0007967010879670108E13D0108F93D0108F7
:1001D000113E0108593E010800000000796701083E
:1001E000796701087967010800000000000000003D
:1001F000796701080000000000000000796701082D
:100200007967010879670108796701080000000033
:10021000000000007967010800000000796701080C
:10022000D5190108E9190108FD19010879670108C4
:10023000796701087967010879670108796701081A
:0C024000796701087967010879670108F7
:1002500010F8012B11F8013B012A28BF9A42F7D070
:10026000D01A7047034613F8012B002AFBD1181A45
:100270000138704781F0004102E000BF83F0004385
:1002800030B54FEA41044FEA430594EA050F08BF31
:1002900090EA020F1FBF54EA000C55EA020C7FEAF5
:1002A000645C7FEA655C00F0E2804FEA5454D4EB72
:1002B0005555B8BF6D420CDD2C4480EA020281EA3C
:1002C000030382EA000083EA010180EA020281EA74
:1002D0000303362D88BF30BD11F0004F4FEA0131C6
:1002E0004FF4801C4CEA113102D0404261EB4101D5
:1002F00013F0004F4FEA03334CEA133302D052425B
:1003000063EB430394EA050F00F0A780A4F1010416
:10031000D5F1200E0DDB02FA0EFC22FA05F2801850
:1003200041F1000103FA0EF2801843FA05F3594136
:100330000EE0A5F120050EF1200E012A03FA0EFCB5
:1003400028BF4CF0020C43FA05F3C01851EBE371DF
:1003500001F0004507D54FF0000EDCF1000C7EEBFC
:1003600000006EEB0101B1F5801F1BD3B1F5001F3A
:100370000CD349085FEA30004FEA3C0C04F1010459
:100380004FEA445212F5800F80F09A80BCF1004F82
:1003900008BF5FEA500C50F1000041EB045141EA04
:1003A000050130BD5FEA4C0C404141EB0101013CCD
:1003B00028BFB1F5801FE9D291F0000F04BF0146BC
:1003C0000020B1FA81F308BF2033A3F10B03B3F18E
:1003D00020020CDA0C3208DD02F1140CC2F10C021E
:1003E00001FA0CF021FA02F10CE002F11402D8BF7C
:1003F000C2F1200C01FA02F120FA0CFCDCBF41EA48
:100400000C019040E41AA2BF01EB0451294330BD16
:100410006FEA04041F3C1CDA0C340EDC04F11404F3
:10042000C4F1200220FA04F001FA02F340EA0300CA
:1004300021FA04F345EA030130BDC4F10C04C4F110
:10044000200220FA02F001FA04F340EA03002946F0
:1004500030BD21FA04F0294630BD94F0000F83F43A
:10046000801306BF81F480110134013D4EE77FEA1D
:10047000645C18BF7FEA655C29D094EA050F08BF69
:1004800090EA020F05D054EA000C04BF194610464A
:1004900030BD91EA030F1EBF0021002030BD5FEA8E
:1004A000545C05D14000494128BF41F0004130BDB6
:1004B00014F580043CBF01F5801130BD01F000450A
:1004C00045F0FE4141F470014FF0000030BD7FEA7D
:1004D000645C1ABF194610467FEA655C1CBF0B4678
:1004E000024650EA013406BF52EA033591EA030F8F
:1004F00041F4002130BD00BF90F0000F04BF002187
:10050000704730B54FF4806404F132044FF00005B9
:100510004FF0000150E700BF90F0000F04BF002132
:10052000704730B54FF4806404F1320410F0004598
:1005300048BF40424FF000013EE700BF42004FEA93
:10054000E2014FEA31014FEA02701FBF12F07F4310
:1005500093F07F4F81F06051704732F07F4208BFC7
:10056000704793F07F4F04BF41F40021704730B5CE
:100570004FF4607401F0004521F000411CE700BF1A
:1005800050EA010208BF704730B54FF000050AE09D
:1005900050EA010208BF704730B511F0004502D59E
:1005A000404261EB41014FF4806404F132045FEAA0
:1005B000915C3FF4D8AE4FF003025FEADC0C18BF49
:1005C00003325FEADC0C18BF033202EBDC02C2F13B
:1005D000200300FA03FC20FA02F001FA03FE40EACD
:1005E0000E0021FA02F11444BDE600BF70B54FF0D1
:1005F000FF0C4CF4E06C1CEA11541DBF1CEA1355AF
:1006000094EA0C0F95EA0C0F00F0DEF82C4481EA16
:10061000030621EA4C5123EA4C5350EA013518BF36
:1006200052EA033541F4801143F4801338D0A0FB23
:1006300002CE4FF00005E1FB02E506F00042E0FBD0
:1006400003E54FF00006E1FB03569CF0000F18BFD6
:100650004EF0010EA4F1FF04B6F5007F64F540747E
:1006600004D25FEA4E0E6D4146EB060642EAC62111
:1006700041EA55514FEAC52040EA5E504FEACE2E7E
:10068000B4F1FD0C88BFBCF5E06F1ED8BEF1004F81
:1006900008BF5FEA500E50F1000041EB045170BDFD
:1006A00006F0004646EA010140EA020081EA030141
:1006B000B4EB5C04C2BFD4EB0C0541EA045170BD3D
:1006C00041F480114FF0000E013C00F3AB8014F1B7
:1006D000360FDEBF002001F0004170BDC4F1000400
:1006E000203C35DA0C341BDC04F11404C4F1200581
:1006F00000FA05F320FA04F001FA05F240EA0200DC
:1007000001F0004221F0004110EBD37021FA04F611
:1007100042EB06015EEA430E08BF20EAD37070BDCB
:10072000C4F10C04C4F1200500FA04F320FA05F02A
:1007300001FA04F240EA020001F0004110EBD3702C
:1007400041F100015EEA430E08BF20EAD37070BD9C
:10075000C4F1200500FA05F24EEA020E20FA04F375
:1007600001FA05F243EA020321FA04F001F0004124
:1007700021FA04F220EA020000EBD3705EEA430E95
:1007800008BF20EAD37070BD94F0000F0FD101F0C4
:100790000046400041EB010111F4801F08BF013CFD
:1007A000F7D041EA060195F0000F18BF704703F03B
:1007B0000046520043EB030313F4801F08BF013DC2
:1007C000F7D043EA0603704794EA0C0F0CEA13557E
:1007D00018BF95EA0C0F0CD050EA410618BF52EA38
:1007E0004306D1D181EA030101F000414FF000003E
:1007F00070BD50EA410606BF1046194652EA43064C
:1008000019D094EA0C0F02D150EA013613D195EABF
:100810000C0F05D152EA03361CBF104619460AD107
:1008200081EA030101F0004141F0FE4141F4700111
:100830004FF0000070BD41F0FE4141F4780170BD01
:1008400070B54FF0FF0C4CF4E06C1CEA11541DBF66
:100850001CEA135594EA0C0F95EA0C0F00F0A7F868
:10086000A4EB050481EA030E52EA03354FEA013195
:1008700000F088804FEA03334FF0805545EA1313A8
:1008800043EA12634FEA022245EA111545EA106570
:100890004FEA00260EF000419D4208BF964244F107
:1008A000FD0404F5407402D25B084FEA3202B61A26
:1008B00065EB03055B084FEA32024FF480104FF4FA
:1008C000002CB6EB020E75EB030E22BFB61A75466E
:1008D00040EA0C005B084FEA3202B6EB020E75EB01
:1008E000030E22BFB61A754640EA5C005B084FEA69
:1008F0003202B6EB020E75EB030E22BFB61A754636
:1009000040EA9C005B084FEA3202B6EB020E75EB40
:10091000030E22BFB61A754640EADC0055EA060E01
:1009200018D04FEA051545EA16754FEA06164FEA44
:10093000C30343EA52734FEAC2025FEA1C1CC0D1F0
:1009400011F4801F0BD141EA00014FF000004FF07D
:10095000004CB6E711F4801F04BF01430020B4F13E
:10096000FD0C88BFBCF5E06F3FF6AFAEB5EB030CF6
:1009700004BFB6EB020C5FEA500C50F1000041EBF3
:10098000045170BD0EF0004E4EEA113114EB5C04C0
:10099000C2BFD4EB0C0541EA045170BD41F4801193
:1009A0004FF0000E013C90E645EA060E8DE60CEA9B
:1009B000135594EA0C0F08BF95EA0C0F3FF43BAFB8
:1009C00094EA0C0F0AD150EA01347FF434AF95EA6F
:1009D0000C0F7FF425AF104619462CE795EA0C0F53
:1009E00006D152EA03353FF4FDAE1046194622E720
:1009F00050EA410618BF52EA43067FF4C5AE50EAFA
:100A000041047FF40DAF52EA43057FF4EBAE12E7E9
:100A10004FF0FF3C06E000BF4FF0010C02E000BFCA
:100A20004FF0010C4DF804CD4FEA410C7FEA6C5CAD
:100A30004FEA430C18BF7FEA6C5C1BD001B050EA50
:100A4000410C0CBF52EA430C91EA030F02BF90EA3B
:100A5000020F0020704710F1000F91EA030F58BFFA
:100A6000994208BF90422CBFD8176FEAE37040F05C
:100A7000010070474FEA410C7FEA6C5C02D150EAFA
:100A8000013C07D14FEA430C7FEA6C5CD6D152EAB5
:100A9000033CD3D05DF8040B704700BF844610467A
:100AA00062468C461946634600E000BF01B5FFF779
:100AB000B7FF002848BF10F1000F01BD4DF808ED49
:100AC000FFF7F4FF0CBF012000205DF808FB00BF1A
:100AD0004DF808EDFFF7EAFF34BF012000205DF874
:100AE00008FB00BF4DF808EDFFF7E0FF94BF0120C1
:100AF00000205DF808FB00BF4DF808EDFFF7CEFFC2
:100B000094BF012000205DF808FB00BF4DF808ED00
:100B1000FFF7C4FF34BF012000205DF808FB00BFD1
:100B20004FEA410212F5001215D211D56FF4787315
:100B3000B3EB625212D94FEAC12343F0004343EAB8
:100B4000505311F0004F23FA02F018BF4042704793
:100B50004FF00000704750EA013005D111F000401D
:100B600008BF6FF0004070474FF00000704700BFB3
:100B70004A0011D212F5001211D20DD56FF478731C
:100B8000B3EB62520ED44FEAC12343F0004343EA71
:100B9000505323FA02F070474FF00000704750EABC
:100BA000013002D14FF0FF3070474FF00000704726
:100BB0004FEA4102B2F1E04324BFB3F5001CDCF17F
:100BC000FE5C0DD901F0004C4FEAC0024CEA5070B7
:100BD000B2F1004F40EB830008BF20F001007047E6
:100BE00011F0804F21D113F13872BCBF01F00040E9
:100BF000704741F480114FEA5252C2F11802C2F11B
:100C0000200C10FA0CF320FA02F018BF40F001009B
:100C10004FEAC1234FEAD32303FA0CFC40EA0C004D
:100C200023FA02F34FEA4303CCE77FEA625307D18A
:100C300050EA01331EBF4FF0FE4040F440007047C1
:100C400001F0004040F0FE4040F40000704700BF5B
:100C50007BB972B90029BEBF00204FF0004106E009
:100C600008BF00281CBF6FF000414FF0FF3000F0BC
:100C700057B8ADF1080C6DE904CE002909DB002B53
:100C80001ADB19F0D3F9DDF804E0DDE9022304B042
:100C90007047404261EB4101002B1BDB19F0C6F9A4
:100CA000DDF804E0DDE9022304B0404261EB4101DC
:100CB000524263EB43037047524263EB430319F024
:100CC000B5F9DDF804E0DDE9022304B0404261EB50
:100CD00041017047524263EB430319F0A7F9DDF875
:100CE00004E0DDE9022304B0524263EB43037047A2
:100CF00053B94AB9002908BF00281CBF4FF0FF3183
:100D00004FF0FF3000F00CB8ADF1080C6DE904CEE7
:100D100019F08CF9DDF804E0DDE9022304B0704736
:100D2000704700BF10B5054C237833B9044B13B19D
:100D30000448AFF300800123237010BDC8040020D5
:100D40000000000080A3010808B5034B1BB1034954
:100D50000348AFF3008008BD00000000CC04002071
:100D600080A301084FF48032014B9A61704700BFA5
:100D7000000402422DE9F843A34C94F88230002B82
:100D80003FD04FF080435F6BD4F88830ABB3D4F8DA
:100D90008850637F7D1B6068002B47D09B4E736833
:100DA00098423FD2D6F8403198423DD95021012295
:100DB0008A4228D351219648837901FB03031344C7
:100DC00093F91810642311FB03F18368C91A63298E
:100DD00038DD606848F6A0420023A1FB0001FFF760
:100DE00087FFB0F5967F2DD341F2913398422BD8EF
:100DF0000A23B0FBF3F0854203D32568236833BB95
:100E00002760BDE8F8838B1801334FEA630C56F86E
:100E10002CC0C3F3470360458ABF03F1FF331A4672
:100E2000D9B2C5E70022C5E75022C3E740F6B83380
:100E30004009984228BF1846B0F5FA7F38BF4FF4F2
:100E4000FA70D8E71E20D6E74FF4FA70D3E7704E59
:100E50007D1BF3689D42D4D36E4B9D4204D9002381
:100E600084F83630A365CBE7636873B162686A4B78
:100E70009A420AD894F836303BB162686368B5EBA1
:100E8000520FBDD3B5EB430FBAD82760656094F815
:100E9000362002F0FF032AB9012284F83620A36528
:100EA00084F86830A36D012B03D8A36D0133A365CB
:100EB000A7E7A37E002BA4D194F83B30002BA0D051
:100EC00094F83F30727903F0FF0773B1636D042A21
:100ED00003F1010363654FF0010384F8843090D17E
:100EE000637E83F0010363768BE7237F0133DBB2FC
:100EF0002377236B23B19D4202D80423E376E5E7F1
:100F0000E36A0BB19D42F8D9A36A002B49D09D42F8
:100F100047D80323E376237F13F0030FD6D10023B2
:100F2000042A84F884304FD038494B689D4253D30B
:100F3000D4F8903053B36FF01D01D4F89030B4F86A
:100F40009420EB1A43F30F138B42B8BF0B461E2BB2
:100F5000A8BF1E2307211BB203EB83035B0012FB18
:100F6000013343F3CF03A4F89430B4F894301BB2A8
:100F7000322BC4BF3223A4F89430B4F894301BB29F
:100F80003233BCBF4FF6CE73A4F89430C4F89050FF
:100F9000B4F896309BB2002B40D0002F49D10023EB
:100FA00066E0636A3BB19D4205D80223E376237F66
:100FB00013F0010FB2E7236A23B19D4202D8012347
:100FC000E376ACE70023FBE7637E83F001036376FF
:100FD000637E002BA8D114E7D1F840319D4211D98E
:100FE000502201279742A3D2D3190133581051F848
:100FF0002000C3F3470385428ABF03F1FF331F4636
:10100000DAB2EFE7502793E7CC08002084070020EE
:1010100068090020808D5B007F1A0600002FBED07B
:10102000C7EB471307EB83035B009BB2A4F8963032
:10103000B5E7C7EB471207EB8202B4F896305200CF
:1010400092B2D31A1BB2B2F57A6FA4F8983040F27C
:10105000A880E17E002940F0A4806FF09501DB10AC
:101060008B42B8BF0B46962BA8BF9623A4F89620B8
:1010700096F82422002A00F09680FA21B6F826225B
:10108000B2FBF1F2BA42C0F08E8096F9252202EB53
:10109000820202EB82029200E282E28AB06813448A
:1010A000E27E9BB2012A41F2707204BFA3F5FA738B
:1010B0009BB21BB29342A8BF1346724A9342B8BF79
:1010C0001346E382227EC01A02F0FF03002A00F0DA
:1010D000A780002880F2A08000236B4A136023764B
:1010E0006A4B53F827104FF00108002300F50C401D
:1010F000A0304FEAE07EA0FB010C84F81D8042F294
:10110000107284F83E3001FB0EC10023FFF7F0FDA2
:10111000B4F8949025FA08F70FFA89F94844B842D0
:10112000B8BF3846EB19984228BF1846B4F8983033
:101130001BB2002B14DD56496423B1FBF5F1B4F862
:101140009820B5FBF3F312B26A43B2FBF1F2EB1A4B
:101150009B1A984204D99F423CBF184684F83E80AF
:10116000B4F898301BB2002B0ADC632364226B4373
:10117000B3FBF2F3834203D20122184684F83E20E7
:10118000632862D90022404B09211A605A62D86252
:101190001A610122DA601960A5602368E360227693
:1011A0002FE6002362E794F83A206AB3394AD2570F
:1011B000B4F87010B6F9300202EB820202EB820240
:1011C00009B29200814292B213DDB4F87010091A8C
:1011D00096F8320210FB01F096F92E1200B201EBE4
:1011E000810101EB810189008842D4BF121A521A91
:1011F00092B241F2707112B28A42A8BF0A462149E6
:101200008A42B8BF0A4647E75121B27901FB026220
:101210003A4492F91820CBE7E36D0133E365F0E53A
:101220001A4A002852F82710FFF65DAF637742F2A2
:10123000107284F83E30A0FB01010023FFF758FD37
:10124000B4F894703FB2381817D54FF080435B6AFA
:101250000120C4F888300A230022718A59430E4BBA
:1012600098610E4B1A605A62D9621A610922D860DD
:101270001A60236D03442365C3E5B0EB550FE4D832
:101280007EE700BF18FCFFFF000C0040C40B0020ED
:101290000046C323C6C10108000402420008004002
:1012A00010B50E4A137EC3B100214FF08043117672
:1012B0005B6A0124C2F88830094B588A0A235843D4
:1012C000084B9C61084B19605962D8621961092169
:1012D000DC601960136D2344136510BDCC08002039
:1012E0006809002000040242000800404FF4005248
:1012F000034BC3F88420BFF34F8FBFF36F8F70474A
:1013000000E100E04FF40052014B5A60704700BF0B
:1013100000E100E0012A02D1016000207047022AAA
:1013200005D0032AF9D0002AF7D10260F5E70B684F
:101330000360F2E703681847836810B5044613B1E9
:10134000032201469847204610BD10B504468B681D
:1013500015F000F9204610BD4FF0E021084B094A76
:10136000C3F8B02FD1F8FC2D42F08072C1F8FC2DEB
:1013700000225A601A6842F001021A60704700BFEA
:10138000001000E055CEACC54CF6CC42084B1A60BC
:1013900045F255521A6006225A6064229A60054A44
:1013A000D96809B1013AFBD14AF6AA221A607047FE
:1013B00000300040A186010000226423FA2010B50D
:1013C0000649074CB4FBF3F30132512A41F8043BC0
:1013D00002D000FB02F3F5E710BD00BFC40B0020F4
:1013E000AB21EF09F8B515F0B5FA204D2B68C31AFB
:1013F000632B15D91E4B1F4E5F681F4B346819783D
:101400001E4A01F0FF0C61B914681D490C600121EE
:1014100019701C4B83F800C00023376013602860EC
:10142000F8BDBC42F8D0164914680B689C42154CB4
:1014300009D3D2F800C00B689C4584BF13680B60C9
:1014400000232370E8E70B68D2F800C00968A3EB1B
:101450000C034FF0640C0CFB03F3B3FBF1F3DBB2B2
:1014600023702378632BD7D96323EAE7100D00207C
:10147000001000E01C0D00200C0D0020200D0020AD
:10148000080D0020140D00200023421ECB3012F85E
:10149000011F82420B44FAD101485840704700BFF7
:1014A000EF0DA5F10C4B0D4A1968914212D11A7932
:1014B000032A0FD100220A4913F8010B8B42024480
:1014C000FAD1054B0748D3F8CC305040C31A5842E4
:1014D000584170470020704700E0070833A5F1CD60
:1014E000CCE00708EF0DA5F108B5FFF7DBFF18B159
:1014F000024BD87900F0010008BD00BF00E00708EA
:1015000008B5FFF7CFFF18B1024BD879C0F3400000
:1015100008BD00BF00E0070808B5FFF7C3FF18B11A
:10152000024BD879C0F3800008BD00BF00E0070877
:1015300008B5FFF7B7FF10B1014B5879C0B208BD2D
:1015400000E0070808B5FFF7ADFF10B1014B98792F
:10155000C0B208BD00E0070808B5FFF7A3FF10B14F
:10156000014BD879C0B208BD00E0070830B5054688
:1015700087B072B608F088FC00220423CDE901236D
:1015800001233F2201A902A8CDE90332059308F007
:1015900059FD044628B108F089FC62B6002007B066
:1015A00030BD04F1006102202A1901F5FC2108F088
:1015B000B5FC0028EFD11034D02CF2D108F076FC25
:1015C00062B60120EBE7002310B5934200D110BDB5
:1015D000CC5CC4540133F8E710B50446FFF762FF52
:1015E000014630B12046BDE81040D0220549FFF742
:1015F000EABFCB22601D16F0A6FC034B2360032339
:10160000237110BD00E0070833A5F1CD10B5FFF739
:101610006BFF28B9BDE810407F49804814F040BDF9
:101620007F4C80497D4814F023FD0A22A1687B4845
:1016300014F07BFD7C49794814F01AFD0A22217CC4
:10164000764814F0B7FD7849744814F011FD0A2269
:10165000E168724814F0A1FD7349704814F008FD68
:10166000618A0A2289B26D4814F081FD6E496B4887
:1016700014F0FEFC218B0A2289B2684814F077FD31
:101680006949664814F0F4FC618B0A2289B2634808
:1016900014F06DFD6449614814F0EAFCA18B0A2244
:1016A00089B25E4814F063FD5F495C4814F0E0FCC9
:1016B000E18B0A2289B2594814F059FD5A4957481A
:1016C00014F0D6FC218C0A2289B2544814F04FFD44
:1016D0005549524814F0CCFC618C0A2289B24F481B
:1016E00014F045FD50494D4814F0C2FCA18C0A226B
:1016F00089B24A4814F03BFD4B49484814F0B8FC05
:101700000A2294F83C10454814F054FD46494348D9
:1017100014F0AEFC94F83D100A2249B23F4814F090
:1017200026FD41493D4814F0A3FCE18F0A2289B20D
:101730003A4814F01CFD3C49384814F099FCB4F8C0
:1017400040100A2289B2354814F011FD3649334859
:1017500014F08EFCB4F842100A2209B22F4814F09B
:1017600006FD31492D4814F083FCB4F844100A22D8
:1017700089B22A4814F0FBFC2B49284814F078FC65
:1017800094F846100A2249B2244814F0F0FC264985
:10179000224814F06DFCB4F848100A2209B21F4820
:1017A00014F0E5FC20491D4814F062FC0A2294F86C
:1017B0004A101A4814F0FEFC1B49184814F058FC53
:1017C0000A2294F86C10154814F0F4FC16491348DA
:1017D00014F04EFC0A22E16A104814F0A6FC1249EB
:1017E0000E4814F045FC0A22216B0C4814F09DFCB5
:1017F0000D490A4814F03CFC0A22616B074814F0BA
:1018000094FC0949054814F033FCA16B0A22BDE899
:101810001040024814F0B7BC98A30108C011002082
:1018200000E00708AEA30108FCBA010810B5FFF7F5
:1018300073FE28B9BDE810402349244814F030BC99
:10184000234C2449214814F013FC0A2294F84C102C
:101850001E4814F0AFFC20491C4814F009FC0A2271
:1018600094F84D10194814F0A5FC1B49174814F0C2
:10187000FFFBB4F84E100A2289B2144814F077FC2A
:101880001549124814F0F4FBB4F850100A2289B23A
:101890000E4814F06CFC10490C4814F0E9FBB4F845
:1018A00052100A2289B2094814F061FC0A4907481B
:1018B00014F0DEFBB4F854100A22BDE810400348CF
:1018C00089B214F056BC00BFBDA30108C0110020AE
:1018D00000E00708CDA30108FCBA010838B5FFF7FE
:1018E0001BFE28B9BDE838400E490F4814F0D8BB9C
:1018F0000E490D4814F0BCFB00240D4D2B190A2293
:1019000093F856100848013414F054FC152C04D0F8
:101910000849054814F0ACFBF0E70348BDE838403F
:1019200014F0B6BBD6A30108C0110020E9A301083A
:1019300000E00708FCBA010838B5FFF7E1FD28B957
:10194000BDE838401349144814F0AABB134D14499C
:10195000114814F08DFB0A22A9790F4814F02AFCD3
:1019600010490D4814F084FB00242B1993F87010D3
:101970000A22094849B2013414F0F9FB512C04D071
:101980000949054814F074FBEFE70348BDE8384007
:1019900014F07EBBF5A30108C011002000E0070889
:1019A00006A4010807AA0108FCBA010870B5FFF7F0
:1019B000A7FD044628B90F490F4814F071FB2046D3
:1019C00070BD00250D4E512270190D491544FFF7C9
:1019D000FAFDB5F5F37FF6D10A4B0B4D9B790B4918
:1019E00005482B7014F044FB0A222978024814F0B1
:1019F000E3FBE4E710A40108C011002080090020E7
:101A000070E0070800E00708C808002020A40108CB
:101A100070B5314BB6B09B8A0DF10F049BB2632BAE
:101A200024F00F0407D92D492D4814F039FB002567
:101A3000284636B070BD2B4DD0220021204616F02E
:101A400082FA2046FFF7C8FD04F1080605F10803F5
:101A50000FCB86E80F00D5E9800104F1180383E875
:101A6000030005F5027204F1200307CA83E80700AA
:101A700004F12C0605F505730FCB86E80F00D5F8A9
:101A8000243205F50A72E36304F1400307CA164ED7
:101A900083E807006B79204684F86C303378013393
:101AA0006371E37943F00103E371FFF7EDFCC4F8E0
:101AB000CC002046FFF75AFD054608B90B49B3E7AD
:101AC00063790B490648337014F0D2FA0A22317850
:101AD000034814F071FBABE7CC0800202CA40108EC
:101AE000C011002068090020C90800203EA4010898
:101AF00050A4010870B5214BB6B09B8A0DF10F04BC
:101B00009BB2632B24F00F0407D91D491D4814F024
:101B1000C7FA0025284636B070BDD02200212046E5
:101B2000194E16F010FA04F14C052046FFF754FD4B
:101B30000FCE0FC596E80F00144E85E80F003378DE
:101B4000204601336371E37943F00403E371FFF747
:101B50009BFCC4F8CC002046FFF708FD054608B9F9
:101B60000B49D3E763790B490648337014F080FAC8
:101B70000A223178034814F01FFBCBE7CC08002081
:101B800061A40108C01100209C0B0020C90800209E
:101B90006DA4010879A40108F0B5461EB7B0F3B2F0
:101BA0000DF10F04052B054624F00F0407D9254934
:101BB000254814F075FA0026304637B0F0BD234BA7
:101BC0009B8A9BB2632B01D92149F1E7D0220021E6
:101BD000204616F0B8F92046FFF7FEFC51221D49B9
:101BE0001D4F02FB061104F1700016F06AFA3B78F3
:101BF000204601336371E379A57143F00203E37179
:101C0000FFF742FCC4F8CC002046FFF7AFFC0646C5
:101C100008B91249CCE7637911493B70114B0A4866
:101C20001D7014F025FA0A222946074814F0C2FA5A
:101C30000D49054814F01CFA0A223978024814F0BC
:101C4000BBFAB9E784A40108C0110020CC08002029
:101C500094A4010880090020C9080020A1A401085B
:101C6000AEA40108C8080020FCBA0108174B30B523
:101C70009B8A87B09BB2632B06D91549154814F08F
:101C80000FFA002007B030BD72B608F0FDF8002250
:101C900004230124CDE901233F2301A902A8CDE9B2
:101CA0000343059408F0CEF9054608F0FFF862B644
:101CB0000DB10949E2E7094B09491D70094B054877
:101CC0001D7014F0EDF92046DCE700BFCC080020C1
:101CD000BAA40108C0110020CCA40108C908002042
:101CE000DEA40108C80800204FF0FF32074B10B5F2
:101CF00044F61A711A60FA22054CB4FBF2F0FA327B
:101D00008A4243F8040FF8D110BD00BF84070020B9
:101D10000046C3232DE9F04387B009F00BFD0446CC
:101D2000564B57491B6A5B0648BF4400554814F0A0
:101D30009FF955490A22B4FBF1F1524814F02DFAEB
:101D40005249504814F0ACF9514BB4FBF3F4192C40
:101D500011D050494B4814F08BF90A2219214948F7
:101D600014F005FA4C49474814F082F90A2221463A
:101D7000444814F037FAB42010F037FF0546474EB8
:101D80004FF080410FF068FE2146284635600FF085
:101D9000B3FC306800224FF0FF310FF0A1FD404B43
:101DA00030681B7C002B64D0002308220093C223E0
:101DB000002501210FF052FCDFF80491394BDFF8C8
:101DC000048102AA0121306802930395CDF8149092
:101DD000CDF810800FF087FE02A8FFF7ADFA30684B
:101DE0000FF067FBB42010F000FF07462E4E2F497E
:101DF0000FF032FE2146384637600FF07DFC2A4650
:101E000030684FF0FF310FF06BFD294B02A93068AD
:101E10000293CDE9048903950FF086FE02A8FFF72F
:101E20008BFA30680FF057FAB42010F0DEFE074648
:101E3000204E21490FF010FE2146384637600FF042
:101E40005BFC2A4630684FF6FF710FF049FD1B4BD3
:101E5000306802A90293CDE9048903950FF064FE6E
:101E600002A8FFF769FA306807B0BDE8F0430FF049
:101E700032BA00930922C2239AE700BF000C024441
:101E8000EEA40108C011002040420F00FCA401088C
:101E90008096980001A501085CB601088007002023
:101EA00068090020750D00087C070020000C004028
:101EB000A11200087807002000080040650D000806
:101EC000351300081513000813B50C4C20680FF0EB
:101ED00002FA0B4B20681B7C63B10023082200939D
:101EE000C22301210FF0BAFB206802B0BDE8104008
:101EF0000FF0DFBA00930922C223F2E78007002027
:101F000068090020274A10B5D2F88C3043F0070347
:101F1000C2F88C30BFF34F8F234B04241A68022180
:101F200022F44F7222F003021A601A68CA2042F4A7
:101F30008A7242F001021A609A6842F44F7242F0CB
:101F400003029A604FF480329A614FF400329A6132
:101F50004FF480129A619C6114F056FC0221C32058
:101F600014F052FC0021CB2014F04EFC02211C2066
:101F700014F04AFC0D4B21461A68C02022F0406242
:101F80001A60DA6822F04062DA6014F03DFC214603
:101F9000C82014F039FC2146BDE81040C12014F0DF
:101FA00033BC00BF000C024400040242000802429D
:101FB0000C2014F0F5BB000010B50F4994B00F4889
:101FC00014F06EF801220E4901A804F0ABFB01A841
:101FD00004F031FC044668B101A804F0F0FB0122D2
:101FE000084B094983F83920044814F059F8204671
:101FF00014B010BD0549F7E723A50108C011002062
:1020000013B60108CC08002030A5010836A5010848
:102010000023421E00F2572012F8011F82420B4497
:10202000FAD1014858407047EFBEADDE38B5FFF732
:102030005BFA044628B91A491A4814F031F82046C8
:1020400038BD194919481022FFF7BDFA082210318E
:1020500000F5FC70FFF7B7FA0C2208310830FFF7E3
:10206000B2FA10220C310C30FFF7ADFA0422103115
:102070001030FFF7A8FA043004310C22FFF7A3FA5E
:102080000B4BA0F50A7593F86C306B71FFF71CFFD2
:102090002846FFF7BDFF0749C5F85802CCE700BF47
:1020A0003EA50108C011002008E0070870090020C3
:1020B00000E0070853A5010813B5FFF72DFA044601
:1020C00030B90B490B4813F0EBFF204602B010BDAE
:1020D00009480A492022FFF776FAA0F50D73184641
:1020E0000193FFF795FF019B0549C3F85802E9E703
:1020F00063A50108C01100209C0B00204CE00708DC
:1021000072A501081249B1F8003213B1114AB2FBAD
:10211000F3F3114A1362B1F8023213B10D48B0FB68
:10212000F3F35362B1F8043213B10A48B0FBF3F38E
:102130009362B1F8063213B10648B0FBF3F3D362F1
:10214000B1F8283213B10349B1FBF3F313637047BD
:10215000680900200046C323CC080020084B5B8A96
:10216000FA2B28BFFA23322B38BF32231BB2C3EB22
:10217000431203EB8203034A5B109386704700BF50
:1021800068090020CC080020F8B5FFF78BF9054658
:1021900028B92F492F4813F083FF2846F8BD2E4E4B
:1021A0002E4CF37913F0010F26D02D49102204F1A3
:1021B0000800FFF708FA0822103104F50070FFF755
:1021C00002FA0C22083104F50270FFF7FCF9102224
:1021D0000C3104F50570FFF7F6F90422103104F50F
:1021E0000970FFF7F0F90C22043104F50A70FFF7CB
:1021F000EAF996F86C306371174EF3795A0704D5F3
:10220000202218491848FFF7DEF9F3799B070CD50F
:102210000026164F5122B81915491644FFF7D3F975
:10222000B6F5F37FF6D10023A3710B4B114A597910
:102230000A4811709979104A1170DB79FFF7E8FEAE
:10224000C4F85802FFF75EFFFFF788FF0B49A1E7CC
:102250007CA50108C011002000E0070868090020E3
:1022600008E007084CE007089C0B002080090020CC
:1022700070E00708C9080020C808002091A50108DF
:1022800070B54FF417720021334815F05CFE324AE6
:10229000324B1546136040F2032393804FF448738A
:1022A0009360012313744FF47A73D3606423002680
:1022B0001446538205F1180051222949013615F0C0
:1022C00000FF062E05F15105F4D1264B264AC4F82D
:1022D000003203F17A7303F57A73C4F80432234BA6
:1022E00041F28931C4E982236423A4F8103242F216
:1022F00082331F48C4E98613C4F820321D4B1522CF
:10230000C4E9890342F6F823A4F82C32052384F8A3
:102310002E325023A4F830320A2384F8323284F863
:1023200035324FF40063A4F83632134B3221C4F82F
:10233000383243F698231148A4F83C3215F003FED6
:102340000548FFF765FEC4F85802FFF7DBFEBDE85D
:102350007040FFF703BF00BF68090020462311CD7E
:10236000C6C10108F82AEC2C28231027F82AC80037
:102370000105F401C8327800C409B80BA60B00208F
:1023800002680D4B10B59A4213D10379013B092B1A
:102390000FD84379022B01D0042B0AD18379052B66
:1023A00007D8D0F85842FFF733FE231A5842584155
:1023B00010BD0020FCE700BF462311CD00231A46C4
:1023C00070B54618B04206D18A4218BF8B4214BF7E
:1023D0000120002070BD10F9014B04F10A05EDB297
:1023E000462D08D814B90132D2B2EBE7013404BF4C
:1023F0000133DBB2E6E70020ECE74218904203D15C
:10240000081E18BF0120704710F8013B0A3BDBB2E1
:10241000BE2BF3D90020704710B5512104468079B6
:1024200001FB00401830FFF7C9FF28B909490A48E5
:1024300013F036FE002010BD94F83432002BFAD091
:10244000152104F23E20FFF7D8FF0028F3D10349FD
:10245000EDE700BFACA50108C0110020C8A5010828
:10246000F0B5364EADF52B7D96F839305BB134487A
:1024700004F026F960B9334804F022F998B93249DA
:10248000324813F00DFE002420460DF52B7DF0BDE3
:102490002B496846012204F045F9684604F0CBF95F
:1024A00018B92B49ECE72749F3E74FF4177213A942
:1024B000684604F077F90546684604F080F9B5F5FA
:1024C000177F13D02349214813F0D2FD0A22294651
:1024D0001E4813F07BFE20491C4813F0C9FD0A2258
:1024E0004FF41771194813F073FECCE713A8FFF7E8
:1024F00047FF08B91949C3E713A8FFF78DFF044642
:1025000008B91749BCE7174F2A4613A9384615F0F2
:10251000D8FD002386F83A3086F83D30FFF7F2FD0B
:1025200011490A48FFF71AFE13F0A2FDB9790A22F1
:102530000131064813F01DFEA6E700BFCC080020BD
:10254000E0A50108F6A5010805A60108C0110020B4
:102550001EA601083DA601085BA601085DA60108AC
:102560007DA601086809002091A6010838B50E4C27
:1025700094F839302BB90D490D48BDE8384013F0B7
:102580008FBD94F83C3003F0FF050BB10949F3E728
:10259000012384F83C30FFF763FF84F83C5008B90E
:1025A0000549E9E738BD00BFCC080020F3B50108B4
:1025B000C0110020B1A60108C6A6010800B5594BFC
:1025C00095B093F83930002B00F0A98001A80222C1
:1025D000554904F0A7F801A804F02DF9002800F0EF
:1025E0009E80524901A813F05BFD514901A813F0E8
:1025F00057FD504901A813F053FD4C4901A813F0B1
:102600004FFD01A813F044FD4B4901A813F048FD0C
:102610004A4901A813F044FD494901A813F040FDBF
:10262000484901A813F03CFD474901A813F038FDC3
:10263000464901A813F034FD454901A813F030FDC7
:10264000444901A813F02CFD01A813F021FD4249D3
:1026500001A813F025FD414901A813F021FD4049CF
:1026600001A813F01DFD3F4901A813F019FD3E49D3
:1026700001A813F015FD01A813F00AFD3B4901A8BC
:1026800013F00EFD3A4901A813F00AFD394901A8DB
:1026900013F006FD384901A813F002FD374901A8DF
:1026A00013F0FEFC364901A813F0FAFC354901A8E5
:1026B00013F0F6FC01A813F0EBFC334901A813F06A
:1026C000EFFC324901A813F0EBFC314901A813F0EB
:1026D000E7FC304901A813F0E3FC01A813F0D8FC93
:1026E0002D4901A813F0DCFC2C4901A813F0D8FCFB
:1026F0002B4901A813F0D4FC2A4901A813F0D0FCFF
:10270000294901A813F0CCFC084901A813F0C8FC22
:1027100001A804F054F82549254813F0C1FC15B070
:102720005DF804FBCC080020DAA60108F0A6010839
:1027300019A7010836A7010855A7010865A70108D0
:1027400087A70108A6A70108BFA70108D3A701080A
:10275000F3A7010808A8010820A8010827A8010874
:102760004CA8010874A8010897A80108B1A801089D
:10277000BFA80108E2A8010804A901081FA90108CF
:102780003CA9010861A9010888A9010894A90108C8
:10279000B7A90108DDA90108F5A9010809AA0108DE
:1027A0001CAA010835AA01084DAA01086FAA010850
:1027B000C01100202DE9F041BB4B94B093F83930A3
:1027C000002B00F01F82B94803F07AFF10B1B74820
:1027D00003F08AFF01A80222B44903F0A3FF01A875
:1027E00004F029F8002800F00D826426B04901A801
:1027F00013F056FCAF4901A813F052FCAE4901A8F2
:1028000013F04EFC01A8AD4C13F042FCAC4901A8FA
:1028100013F046FCAB4901A813F02AFC0A226179A7
:1028200001A813F0C9FCA84901A813F021FCA17963
:102830000A22013101A813F09CFC01A813F028FC26
:10284000A24901A813F02CFCA14901A813F010FC27
:10285000A1680A2291FBF6F101A813F066FC9D49DC
:1028600001A813F005FCA1680A2291FBF6F306FB10
:1028700013110029B8BF494201A813F084FC9649FE
:1028800001A813F0F5FB954B217C954A0A250029F8
:1028900018BF1A4601A8114613F002FC914901A87D
:1028A00013F0E6FBE1682A46B1FBF5F101A813F04D
:1028B00099FC8D4901A813F0DBFB2A46618A01A827
:1028C00013F057FC01A813F0E3FB884901A813F0AB
:1028D000E7FB874901A813F0CBFB2A46B4F80012A6
:1028E00001A813F046FC834901A813F0C1FB2A4656
:1028F000B4F8021201A813F03CFC7F4901A813F0C0
:10290000B7FB2A46B4F8041201A813F032FC7B4945
:1029100001A813F0ADFB2A46B4F8061201A813F083
:1029200028FC01A813F0B4FB754901A813F0B8FB0B
:10293000744901A813F09CFB2A46B4F8081201A8B8
:1029400013F017FC704901A813F092FB2A46B4F863
:102950000A1201A813F00DFC6C4901A813F088FBC2
:102960002A46B4F80C1201A813F003FC684901A828
:1029700013F07EFB2A46B4F80E1201A813F0F9FBFF
:10298000644901A813F074FB2A46B4F8101201A898
:1029900013F0EFFB01A813F07BFB5F4901A813F0D4
:1029A0007FFB5E4901A813F063FBDFF8A08194F878
:1029B00024125B4B4FF47A77002918BF434601A8D5
:1029C000194613F06DFB574901A813F051FB2A4635
:1029D00094F9251201A813F0CCFB534901A813F078
:1029E00047FB2A46B4F8261201A813F0C2FB01A83F
:1029F00013F04EFB4D4901A813F052FB4C4901A8BE
:102A000013F036FB2A46B4F8281201A813F0B1FBE4
:102A1000484901A813F02CFB2A46B4F92A1201A850
:102A200013F0A7FB444901A813F022FBB4F82C12C1
:102A30002A46B1FBF7F101A813F099FB254901A83B
:102A400013F016FBB4F82C122A46B1FBF7F307FB80
:102A5000131189B2B1FBF6F101A813F08AFB3749D3
:102A600001A813F005FB2A4694F92E1201A813F0D1
:102A700080FB334901A813F0FBFA2A46B4F930125F
:102A800001A813F076FB2F4901A813F0F1FA2A46AA
:102A900094F8321201A813F08FFB01A813F0F8FA92
:102AA000294901A854E000BFCC0800208DAA0108E4
:102AB000A5AA0108BBAA0108D8AA01086809002034
:102AC000FEAA010807AB01080DAB010819AB01080C
:102AD00023AB01082EA5010832AB01087EAA01082C
:102AE00085AA010838AB010849AB010857AB0108BA
:102AF00065AB01086FAB01087BAB010885AB010832
:102B000092AB0108A0AB0108ADAB0108A8AB01086E
:102B1000B8AB0108CBAB0108DDAB0108E8AB01089D
:102B2000B0BB0108F1AB0108F9AB010802AC010828
:102B30000CAC010819AC01082AAC010839AC010839
:102B40004AAC01085FAC01086FAC0108A2BB0108E8
:102B500013F0A6FA2D4901A813F08AFA2A46B4F810
:102B6000541201A813F005FB01A813F091FA2849AB
:102B700001A813F095FA274901A813F079FA94F8FF
:102B80003412254B01A8002918BF4346194613F0FB
:102B900087FA224901A813F06BFA2A4694F83512F5
:102BA00001A813F009FB1E4901A813F061FA2A4697
:102BB000B4F8361201A813F0DCFA1A4901A813F090
:102BC00057FA2A46B4F8381201A813F0D2FA164977
:102BD00001A813F04DFA2A46B4F83A1201A813F0EE
:102BE000C8FA124901A813F043FAB4F83C122A4675
:102BF00001A813F0BEFA01A803F0E1FD0C490D484D
:102C000013F04EFA14B0BDE8F08100BF7CAC0108AF
:102C100086AC0108E8AB0108B0BB010896AC01081E
:102C2000A6AC0108B4AC0108C3AC0108F9AB0108BB
:102C3000CCAC0108C011002070B5384B044693F8A5
:102C400039309CB0002B36D0052834D8344903A83D
:102C500013F06CFB651C03A909A813F088FB0A227A
:102C6000294606A813F09EFB06A909A813F0E2FB6B
:102C70002C4913F0EBFB0146684613F078FB06A8DD
:102C800013F012FB09A813F00FFB03A813F00CFBC1
:102C9000009803F015FD10B1009803F025FD09A878
:102CA0000222009903F03EFD09A803F0C4FD20B9FB
:102CB000684613F0F9FA1CB070BD1B4909A813F05F
:102CC000D7F90A22294609A813F053FA174909A887
:102CD00013F0E6F9164909A813F0E2F909A813F070
:102CE000D7F95123134D44F61A7603FB04550024FB
:102CF0000A22214609A813F03AFA0F4909A813F04D
:102D0000B7F9FA340A2215F9011F09A813F031FAAC
:102D1000B442EDD109A803F052FDC9E7CC08002068
:102D2000DEAC0108EBA60108EDAC0108FDAC010822
:102D300021AD01087F09002070B1010810B5002401
:102D4000E0B20134FFF778FF062CF9D1BDE810405E
:102D50000149024813F0A4B942AD0108C011002096
:102D600070B5224B94B093F83930002B3CD02048FA
:102D700003F0A6FC10B11E4803F0B6FC01A8022225
:102D80001B4903F0CFFC01A803F055FD60B31949BE
:102D900001A813F085F9184901A813F081F9174922
:102DA00001A813F07DF901A813F072F9002445F28F
:102DB0000826134D0A22214601A813F0D8F911491B
:102DC00001A813F055F904F57A740A2215F8011FC9
:102DD00001A813F0F1F9B442ECD101A803F0EFFC23
:102DE00009490A4813F05CF914B070BDCC08002002
:102DF00054AD01086AAD010887AD0108A1AD010815
:102E0000A50B002070B10108C4AD0108C01100205D
:102E1000F8B5114E96F83C3003F0FF072BB10F497F
:102E20000F48BDE8F84013F03BB94AF6AA25012344
:102E30000C4C256086F83C30FFF7C0FB2560FFF79F
:102E4000B9FC2560FFF77AFF2560FFF789FF256051
:102E5000054986F83C70E3E7CC080020D4AD0108B2
:102E6000C011002000300040EBAD010838B5114C16
:102E700094F83930E3B194F83C30CBB90E4803F004
:102E80001FFC0546A0B901230C490D4884F83C30CD
:102E900013F006F9FFF792FBFFF78CFCFFF74EFFEC
:102EA00084F83C5007490648BDE8384013F0F8B8AC
:102EB00038BD00BFCC080020DAA60108FEAD01082D
:102EC000C01100201DAE010844F61F63984210B5E2
:102ED0000C4A02D992F8520210BD4FF47A71B0FB3D
:102EE000F1F401FB1400224492F83E3292F83F22A2
:102EF00080B2D21A12FB00F292FBF1F29818C0B223
:102F0000EAE700BF68090020F8B53C4C236833B9F4
:102F100013F020FD01223A4B206083F8412013F08A
:102F200019FD2368C01AB0F5FA7F32D313F012FDF1
:102F3000344A05461368324CC31A092B06D910606F
:102F4000CB2013F04BFC80B2A4F842002E4A92F83A
:102F500034323BB972B684F83F3062B6012384F84C
:102F6000413016E0B4F84260B2F83612B2F83832A6
:102F7000B6B272B694F83F0060B962B694F84100F8
:102F800090B90A225B1A93FBF2F3194489B28E427C
:102F9000E4D9F8BD636CA26CEB1A934202D3002310
:102FA00084F83F3062B6F4E7A08AB2F83A1280B2F1
:102FB0008142EED8B2F83C128142EAD39E4234BF3D
:102FC0000021012194F84070B9421CBFE56484F8E7
:102FD00040109E42DDD3E36C92F83522EB1A934207
:102FE000D7D3FFF771FFA064656472B6012384F83C
:102FF0003F30002384F84130D4E700BF740700203D
:10300000CC080020700700206809002038B513F0B4
:10301000A1FC454B93F88020042A16D093F83A205F
:1030200082B993F839206AB193F83720B2B993F88E
:1030300038209AB993F8362002F0FF0182B983F85C
:10304000801002E0032283F8802093F88020042A75
:103050001AD8DFE802F007141A3645000222F2E718
:103060000122F0E7314A1368C31AB3F5FA7F0BD394
:1030700010602F4A536983F00403536104E02B4A24
:103080001368C31A632BF3D838BD2A4A274C137828
:103090002168032B8CBF4FF416756425411AA94291
:1030A000F2D32060032B88BF0423214993BF01334F
:1030B0008B61002348699CBF80F004004861137055
:1030C000E2E71C4A194C13782168052B8CBF4FF49A
:1030D00016756425411AA942D6D32060052BE2E774
:1030E00012490A68821A952ACED9134A0860927941
:1030F00093F8811001325200D2B291420C4A0AD2A6
:10310000516981F00401516193F881200132D2B2FA
:1031100083F88120B8E704219161002283F881209F
:1031200083F88020B0E700BFCC0800206C070020A7
:10313000000402426807002068090020092816D907
:10314000B0F57F6F15D80C4AD2F818324343D2F845
:10315000140248BF03F6FF7300EB233041F28833BB
:103160009842A8BF184620EAE07000B270470020DD
:10317000704741F28830704768090020F8B5C020D8
:1031800013F02CFB224C80B2A4F86A00C82013F084
:1031900025FB80B2A4F86C00C12013F01FFB80B2A5
:1031A000A4F86E00B4F86A004FF4A57680B2FFF779
:1031B000C5FF0A2390FBF3F000B2A4F87000154B92
:1031C000B4F87010B3F92A2209B28A42CCBF0022A7
:1031D000012284F83720B4F86C10D3F81C0289B2AD
:1031E00080FB0101A0FB0607B3F82C5206FB01711E
:1031F0000023094AFDF72CFD00B200EB8000B5EB7F
:10320000400FACBF0123002384F83830F8BD00BF65
:10321000CC08002068090020187C3E0070B513F02F
:1032200099FB2449244A8B8AB2F80C429BB29C42F7
:1032300020D8224DB2F810622C68041BB4420AD385
:103240001F4C2860207880F00105012825701D485A
:103250001AD00224846191F8370040BB91F83810ED
:1032600029BBB2F828229A4221D94FF48012154B7B
:103270009A6170BDB2F80A429C4208D80F4DB2F86C
:103280000E622C68041BD9E74FF40034E2E7B2F871
:1032900008020C4C984295BF02254FF40035A561F9
:1032A000A56194BF0124002405480470D3E71022CF
:1032B000044BDDE7CC0800206809002064070020EB
:1032C000610700200004024270B59649044613F0DD
:1032D000F4F840B1944B998A0A2289B29348BDE828
:1032E000704012F046BF2046914913F0E6F8C0B195
:1032F00064248D4D0A22E98A8C4809B291FBF4F1CD
:1033000012F035FF8B49894812F0B2FEE98A09B202
:1033100091FBF4F304FB131109B20029B8BF494231
:10332000DAE72046844913F0C8F8A8B17E4B0A2595
:10333000B3F86A0080B2FFF701FF90FBF5F6044690
:103340002A4631B2794812F012FF7A49774812F0D2
:103350008FFE06FB1541DFE72046784913F0ADF8F4
:10336000C8B1714BB3F86C10754B89B2D3F81C021D
:103370004FF4A57480FB0101A0FB0405714A04FB16
:1033800001510023FDF764FC642604B294FBF6F5BA
:103390000A222946D6E720466B4913F08EF838B149
:1033A000614BB3F86E10664B89B2D3F82002DFE7A9
:1033B0002046664913F081F820B1614B0A229979C1
:1033C00001318BE72046624913F077F838B10A22C1
:1033D0005B4B59795548BDE8704012F0EDBE204670
:1033E0005C4913F06AF820B1554B0A22B3F8541225
:1033F00074E72046584913F060F840B36425504CF8
:103400000A22A168494891FBF5F112F08EFE494964
:10341000464812F02DFEA1680A2291FBF5F305FB48
:1034200013110029B8BF4942404812F07EFE4B49B3
:103430003E4812F01DFE217C494B4A4A002918BF24
:103440001A461146BDE87040384812F029BE2046A1
:10345000454913F032F810B3394C0A22B4F800127F
:10346000324812F084FE3D49304812F001FE0A2233
:10347000B4F802122D4812F07AFE38492B4812F0A7
:10348000F7FD0A22B4F80412284812F070FE3349FE
:10349000264812F0EDFD0A22B4F806121EE7204677
:1034A000324913F00AF8C0B1254C0A22B4F80812C8
:1034B0001E4812F05CFE29491C4812F0D9FD0A2270
:1034C000B4F80A12194812F052FE2449174812F0B3
:1034D000CFFD0A22B4F80C1200E72046244912F06E
:1034E000ECFF00284AD0164C224B94F82412224AB2
:1034F0000E48002918BF1A46114612F0B9FD1749A7
:103500000A4812F0B5FD0A2294F92512074812F074
:103510002EFE1249054812F0ABFD0A22B4F826121D
:10352000DCE600BFBBA70108CC080020C0110020CA
:1035300007B101082EA501083CB0010850B00108F0
:1035400068090020187C3E002FAE010883AD0108F9
:1035500038AE01086DB401083FAE0108FCBA01089D
:103560007EAA010885AA010847AE01084FAE0108EE
:1035700055AE0108A2BB0108B0BB01082046B24904
:1035800012F09BFF002838D04FF47A75AF4C0A2216
:10359000B4F82812AE4812F0EAFDAE49AC4812F079
:1035A00067FD0A22B4F92A12A94812F0E0FDA949E0
:1035B000A74812F05DFDB4F82C120A22B1FBF5F118
:1035C000A34812F0D4FDA449A14812F051FDB4F86B
:1035D0002C120A22B1FBF5F305FB1311642389B207
:1035E000B1FBF3F19A4812F0C2FD9A49984812F0E3
:1035F0003FFD0A2294F92E1270E62046974912F0F8
:103600005CFF70B1914C0A22B4F93012904812F06C
:10361000AEFD90498E4812F02BFD0A2294F832122A
:10362000D8E620468E4912F048FF48B10A22874B5F
:10363000D968B1FBF2F1BDE87040854812F0D2BD07
:103640002046884912F039FF18B1804B0A22598A66
:1036500044E62046844912F030FF30B37B4C0A2206
:10366000D4F814127A4812F060FD7A49784812F0C2
:10367000FFFC0A22D4F81812754812F056FD75495D
:10368000734812F0F5FC0A22D4F81C12704812F0AC
:103690004CFD70496E4812F0EBFCD4F820120A225F
:1036A000BDE870406A4812F06EBD20466F4912F0C6
:1036B00004FFC8B16E4C0A22B4F86A10644889B29B
:1036C00012F055FD6349624812F0D2FCB4F86C1058
:1036D0000A2289B25E4812F04AFD5E495C4812F047
:1036E000C7FCB4F86E10F7E52046624912F0E5FE1B
:1036F00018B15F4B0A2259689DE720465E4912F0D7
:10370000DCFE60B15D49524812F0B2FC584B0A220F
:10371000998A4F4889B212F02AFD594992E620460B
:10372000584912F0CAFE002844D0484C564948482F
:1037300012F09EFC0A2294F83412454812F03AFD29
:103740004449434812F094FC0A22B4F83612404827
:1037500012F00DFD3F493E4812F08AFC0A22B4F8EF
:1037600038123B4812F003FD3A49394812F080FC08
:103770000A22B4F83A12364812F0F9FC35493448B6
:1037800012F076FC0A22B4F83C12314812F0EFFC39
:1037900030492F4812F06CFC94F835120A222C485C
:1037A00012F008FD2B492A4812F062FC304BB3F8A6
:1037B000421091E52046354912F07FFE054608B1DA
:1037C0003349F0E72046334912F077FEB8B1324969
:1037D0001F4812F04DFC314E0A2216F8011F1C48FA
:1037E000013512F0E7FC152D04D01A49184812F0E3
:1037F0003FFCF1E71648BDE8704012F049BC204696
:10380000274912F05AFE00284ED02649104812F0DF
:103810002FFCFDF7A1FE0A2201460D4812F0CAFC5A
:103820000C490B4812F024FCFDF782FE0A220146E7
:10383000074812F0BFFC0749054812F019FCFDF7D4
:1038400081FE0A220146C5E55EAE01086809002036
:10385000C0110020FCBA01082EA5010866AE0108BF
:1038600072AE010848AF010878AE01087CAE0108CD
:10387000CC08002080AE01088AB2010887AE01089A
:10388000BAA7010860BB0108D2A3010890AE0108E5
:1038900096AE0108CBAE0108EEA30108A50B0020EF
:1038A0009DAE0108A6AE01082046124912F005FEA1
:1038B00018B1BDE87040FDF7A9BE20460E4912F0D0
:1038C000FCFD18B1BDE87040FDF7B0BF20460B49C4
:1038D00012F0F3FD18B1BDE87040FDF7FFBF2046C0
:1038E000074912F0EAFD18B1BDE87040FEF724B8B0
:1038F0000449A7E5B0AE0108BEAE0108C6AE010896
:10390000D1AE0108DAAE01082DE9F0413D2190B0B9
:10391000054612F01CFE041E06DA9749974810B0BF
:10392000BDE8F04112F0BCBB23460022294601A8A5
:1039300012F010FE2946621C04A8FDF706FD01A83E
:1039400012F02EFE04A812F02BFE8D4901A812F0F1
:10395000B4FDB8B104A812F04BFE022801D004282F
:1039600003D1884B5871884900E08849834812F098
:1039700097FB04A812F098FC01A812F095FC10B077
:10398000BDE8F081824901A812F097FD50B104A86A
:1039900012F02EFE0138052802D87A4B9871E2E722
:1039A0007C49E3E77C4901A812F087FD60B104A8D7
:1039B00012F032FEDFED797A20EE270ABDEEC00A62
:1039C000704B83ED020ACEE7754901A812F075FD30
:1039D00090B1744904A812F070FD58B9724904A856
:1039E00012F06BFD003818BF0120664B1874FEF70B
:1039F0006BFAB8E70120F8E76C4901A812F05DFD09
:103A000038B104A812F0F4FD0A2358435D4BD86086
:103A1000A9E7674901A812F050FD70B104A812F09F
:103A2000E7FD80B2FA2828BFFA20322838BF3220BA
:103A3000544B5882FEF792FB95E75E4901A812F0BD
:103A40003CFD40B104A812F0D3FD4E4BA3F8000298
:103A5000FEF758FBEEE7584901A812F02EFD30B1F1
:103A600004A812F0C5FD474BA3F80202F0E7534942
:103A700001A812F022FD30B104A812F0B9FD414BAB
:103A8000A3F80402E4E74E4901A812F016FD30B194
:103A900004A812F0ADFD3B4BA3F80602D8E7494954
:103AA00001A812F00AFD30B104A812F0A1FD354BB7
:103AB000A3F8080257E7444901A812F0FEFC30B110
:103AC00004A812F095FD2F4BA3F80A024BE73F49DB
:103AD00001A812F0F2FC30B104A812F089FD294BC4
:103AE000A3F80C023FE73A4901A812F0E6FC88B1BE
:103AF0002D4904A812F0E1FC50B9364904A812F08F
:103B0000DCFC003818BF01201E4B83F824022AE792
:103B10000120F9E7304901A812F0CFFC30B104A828
:103B200012F066FD174B83F825021CE72B4901A80C
:103B300012F0C3FC30B104A812F05AFD114BA3F8E7
:103B4000260210E7264901A812F0B7FC30B104A8FC
:103B500012F04EFD0B4BA3F8280279E7214901A88A
:103B600012F0ABFC00283FD004A812F041FD054B39
:103B700083F82E02F7E600BFE8AE0108C01100206E
:103B800038AE01086809002033A50108FDAE010820
:103B900083AD01080EAF01081CAF01080000C84248
:103BA0002AAF01087EAA0108DBA9010837AF010886
:103BB00044AF01084EAF01085BAF01086AAF0108CE
:103BC00077AF010887AF010890AF01089CAF0108EB
:103BD000A7AF0108A2BB0108B7AF0108C7AF010832
:103BE000D4AF0108E0AF0108B04901A812F065FCAC
:103BF00088B104A812F0FCFCAD4CAE49A4F8300228
:103C0000AD4812F035FA0A22B4F93012AA4812F07F
:103C1000AEFAAA49AAE6AA4901A812F04EFC88B158
:103C200004A812F0E5FCA24CA64984F83202A2488E
:103C300012F01EFA94F832120A229F4812F0BAFAD1
:103C4000A14993E6A14901A812F037FC68B104A884
:103C500012F0CEFC964C9E49A4F82A02964812F027
:103C600007FA0A22B4F92A12D0E79A4901A812F0F9
:103C700024FC78B304A812F0CFFCDFED977A20EE95
:103C8000270ABCEEC00A10EE103A4FF47A74884D41
:103C900092498948A5F82C3212F0EAF9B5F82C12AD
:103CA0000A22B1FBF4F1844812F061FA8C4982488F
:103CB00012F0DEF9B5F82C120A22B1FBF4F304FB82
:103CC0001311642389B2B1FBF3F17B4812F04FFA70
:103CD00084494BE6844901A812F0EFFB30B104A8F7
:103CE00012F086FC724BC3F814023CE67F4901A82F
:103CF00012F0E3FB30B104A812F07AFC6C4BC3F86D
:103D0000180230E67A4901A812F0D7FB30B104A8B6
:103D100012F06EFC664BC3F81C0224E6754901A83C
:103D200012F0CBFB054630B104A812F061FC604BE9
:103D3000C3F8200217E6704901A812F0BEFB044642
:103D400038B96E4901A812F0B8FB00286BD16C4954
:103D50000CE62C462E4622E0062D25D0694905E6C4
:103D6000A34204F1010705D0214604A812F0DFFBAD
:103D70002C2813D12346324604A907A812F0EAFBE7
:103D800007A812F035FC10AB6C1C03EB850545F859
:103D9000180C07A812F088FA3E4625463C46069BBA
:103DA000A342D9D3062DDBD10A9B414C003B18BF5F
:103DB000012384F8343240F6FF730B9A20469A426E
:103DC000A8BF1A4622EAE272A4F836220C9A93425D
:103DD000A8BF134623EAE373A4F8383243F69823C6
:103DE0000D9A9342A8BF134623EAE373A4F83A322C
:103DF00044F620630E9A9342A8BF1346B3F57A7F28
:103E0000B8BF4FF47A73A4F83C320F9B322BA8BF93
:103E10003223012BB8BF012384F83532FEF7F8F8BE
:103E2000C4F858029FE526462546DFF8848031E035
:103E3000152D34D03449204812F01AF929460A22A7
:103E40001D4812F094F9314990E5A34204F10107AD
:103E500005D0214604A812F06AFB2C2819D123466C
:103E6000324604A90AA812F075FB0AA812F0C0FB9A
:103E700004460AA812F018FAFA2C2046A8BFFA2025
:103E80000A28B8BF0A203E4608EB050383F83E0225
:103E900001353C46069BA342CAD3152DD5D1044813
:103EA000FEF7B6F8024BC3F858025CE5F0AF010824
:103EB00068090020FDAF0108C011002017B00108FB
:103EC0000BB0010819B0010828B0010833B001088F
:103ED00041B001084CB0010800007A4458B0010814
:103EE0002EA5010862B0010864B0010874B0010891
:103EF00083B0010892B0010860BB0108CBAE010895
:103F0000DAAE0108A5B00108B7B00108CBB00108CE
:103F1000F0B5202187B0064612F019FB051E06DA1F
:103F20005549564807B0BDE8F04012F0B9B82B46E5
:103F30000022314603A812F00DFB03A812F058FB33
:103F4000044603A8671E12F0AFF9052F01D94C49AA
:103F5000E7E731466A1C6846FDF7F7F9684612F054
:103F60001FFB6846474912F0A8FA064638B346498F
:103F7000424812F07DF80A222146404812F0F7F834
:103F800042493E4812F074F851220025404B02FB92
:103F900004340A2214F9011F384812F0E8F8502DB1
:103FA00007D1364812F074F8684612F07DF907B070
:103FB000F0BD3849314812F05BF80135E9E72021BE
:103FC000684612F0C4FA051E04DA33492B4812F091
:103FD00067F8E9E72B463246694603A812F0BAFAB9
:103FE00003A812F005FB064603A812F05DF96A1C4F
:103FF000694603A8FDF7A9F903A812F0F9FA0546E6
:1040000003A812F051F944F62062964201D92349DF
:10401000DCE705F10A03462B01D92149D6E7B3B203
:10402000934218BFFA224FF0510114BFB3FBF2F3D1
:1040300050231C4A18BFDBB201FB07220F48134470
:1040400019491D7612F014F80A2221460B4812F085
:104050008EF81649094812F00BF80A223146074833
:1040600012F085F81249054812F002F80A22294692
:10407000024812F07EF897E7D3B00108C011002083
:10408000E2B00108F4B0010883AD010807AA0108F5
:104090002E090020FCBA0108F8B001080EB1010891
:1040A0001AB1010868090020BDA7010835B101084F
:1040B00070B10108F8B59049904811F0F1FF9049AE
:1040C0008E48904C11F0D4FF8F498C4811F0D0FFEE
:1040D0008E498A4811F0CCFF8D4B94F836108D4AEA
:1040E0006426002918BF1A468448114611F0D8FFEB
:1040F0008949824811F0BCFFA18A884D0A2289B201
:104100007E4812F036F886497C4811F0B1FF0A2249
:10411000B5F85412794812F02CF88249774811F01A
:10412000A7FFE18A0A2209B291FBF6F1734812F067
:104130001EF87D49714811F09BFFE18A0A2209B2FD
:1041400091FBF6F306FB131109B20029B8BF4942EF
:1041500089B26A4812F00BF87449684811F0A0FF60
:104160007349664811F084FFA9790A220131634836
:1041700011F0FFFF6F49614811F07AFF6E4B6979CA
:104180006E4A5E48022908BF1A46114611F088FFA0
:104190006B495A4811F06CFFB4F86A000A2780B2E4
:1041A000FEF7CCFF90FBF7F13A4609B2534811F005
:1041B000DEFF6449514811F073FF63494F4811F025
:1041C00057FF4FF4A57CB4F86C10D5F81C0289B2E7
:1041D00080FB0101A0FB0C0E00230CFB01E15B4AFC
:1041E000FCF736FD01B23A4691FBF6F1434811F077
:1041F000BEFF5749414811F053FF56493F4811F05F
:1042000037FF3A46216D3D4811F0ECFF52493B48DB
:1042100011F02EFF3A46616D384811F0E3FF4F4927
:10422000364811F025FF94F839104D4B4D4A33486C
:10423000002918BF1A46114611F032FF4A492F488B
:1042400011F016FF94F83A10484B494A2B480029C0
:1042500018BF1A46114611F023FF4649274811F0AE
:1042600007FF454BA17E454A2448002918BF1A463E
:10427000114611F015FF4249204811F0F9FEE17E88
:104280004FF47A743A461D4811F096FF3D491B4899
:1042900011F0EEFE3A46B5F92A12184811F067FF00
:1042A0002849164811F0FCFE3749144811F0E0FE89
:1042B000B5F82C123A46B1FBF4F1104811F057FF53
:1042C00019490E4811F0D4FEB5F82C123A46B1FB4C
:1042D000F4F304FB131189B2B1FBF6F1074811F0B6
:1042E00046FF1B49054811F0DBFEBDE8F8402749B1
:1042F000024811F0D5BE00BF4EB10108C011002028
:1043000072B10108CC0800208CB10108A8B10108E5
:1043100038B101083CB10108B1B1010868090020B9
:10432000B7B10108BEB101082EA50108EDA701082B
:10433000E9B10108C7B1010841B1010844B1010860
:10434000CEB1010817B001085BB00108187C3E002F
:1043500062B00108D5B10108DBB10108E1B1010883
:1043600033A5010854BD0108E6B1010847B10108B1
:104370004BB10108EFB10108A2BB0108B0BB0108B5
:10438000F6B1010800B201080EB201081BB2010823
:1043900008B52B492B4811F083FE2B49294811F011
:1043A0007FFE2A49274811F07BFE2949254811F054
:1043B00077FE2849234811F073FE2749214811F060
:1043C0006FFE26491F4811F06BFE25491D4811F06C
:1043D00067FE24491B4811F063FE2349194811F078
:1043E0005FFE2249174811F05BFE2149154811F084
:1043F00057FE2049134811F053FE1F49114811F090
:104400004FFE1E490F4811F04BFE1D490D4811F09B
:1044100047FE1C490B4811F043FE1B49094811F0A7
:104420003FFE1A49074811F03BFE1949054811F0B3
:1044300037FEBDE808401749024811F031BE00BF01
:104440003DB20108C01100204FB2010891B201082D
:10445000A9B20108CFB2010800B3010829B30108CD
:1044600045B3010875B301089AB30108BCB301084C
:10447000E0B30108F9B301081EB4010846B401080D
:1044800068B4010872B4010894B40108B8B4010812
:10449000DBB401082BB201082DE9F04712F05AFAFB
:1044A0002E4A04461368C31A312B3DD910601C20D4
:1044B00012F014FADFF8D080431E5D425D4198F897
:1044C0000030274FAB4247D13B780133DBB2022BA0
:1044D0003B7027D9DFF8B49099F80030AB421FD079
:1044E0000128DFF8ACA01F4E20D01F491F4811F053
:1044F000D7FD1F48CAF8004002F09DF930B11C48B2
:1045000002F05DF91B491C4811F03BFF002386F8BF
:10451000393086F83C30032386F8803089F8005023
:1045200003233B7088F80050BDE8F087DAF80030CC
:104530001249E41A0D4811F09BFD0A2221460B484E
:1045400011F02BFE0E49094811F0AAFD0D4907484C
:1045500011F0A6FD0223DFE70023E2E7600500205B
:1045600064050020CC080020FAB40108C011002026
:1045700078050020B1BF01086C05002014B50108C2
:104580002DB5010831B50108010000200000002010
:104590005C05002008B50949094811F0C7FE002153
:1045A000084802F0A9F80021074802F0A5F8BDE884
:1045B00008400249054811F0B9BE00BFB1BF01086B
:1045C0005407002008070020780500206C05002013
:1045D00008B5044811F068FEBDE80840024811F033
:1045E00063BE00BF6C0500205407002010B51949B8
:1045F000194811F055FD184810F056F9FCF752FF14
:10460000164C90B11649144811F04AFD124810F0AA
:104610004BF9FDF7B9FD40B10123124984F83D3053
:104620000D48BDE8104011F03BBD0F490A4811F09C
:1046300037FD094810F038F9FDF722FE0B4906480E
:1046400011F02EFD044810F02FF90223084984F8D8
:104650003D30E5E753B50108C0110020CC0800202B
:104660006BB5010889B501089EB50108B7B5010809
:10467000CDB5010870B5464EA6B096F8393033B9BD
:104680004449454826B0BDE8704011F009BD96F890
:104690003C300BB14149F4E70123414886F83C30F6
:1046A000FDF7B6FC3E4BC3F858023E4802F013F843
:1046B0003D4802F010F83D4802F016F86846022224
:1046C0003A4902F02FF8684602F0B5F800282FD1D9
:1046D000374802F009F80222354913A802F022F8FF
:1046E000149B06AC0193159B19AD0293169B039383
:1046F000179B0493189B05930FCD0FC40FCD0FC4C8
:1047000095E80F0084E80F009DF89430284D8DF84F
:104710004830684602F08FF8044658B925491E48CB
:1047200011F0BEFC86F8394086F83C4026B070BDDA
:104730001E4DEEE74FF417721949684601F08AFFE3
:104740000446684602F03BF80023B4F5177F86F86C
:104750003C3013D01849104811F08AFC0A22214637
:104760000D4811F033FD15490B4811F081FC0A2268
:104770004FF41771084811F02BFDD7E71049064890
:1047800011F076FC2946044811F09EFCCEE700BFEC
:10479000CC080020E6B50108C0110020FDB50108D5
:1047A0006809002013B6010812B60108E0A5010847
:1047B000F6A501081EB601083CB601085BA6010873
:1047C00050B60108062210B50E4CA3790133B3FB95
:1047D000F2F102FB11330422A3710B4B83F880200A
:1047E000002283F88120FFF745FF0849084811F0AF
:1047F0003FFCA1790A22BDE810400548013111F0C3
:10480000B8BC00BF68090020CC080020E9B101084D
:10481000C011002070B5CA2012F060F8B0FA80F024
:104820001E4C4009A07612F095F80646C32012F0FF
:1048300055F8B0FA80F594F873306D09AB421CBF9F
:10484000A66784F87350A36FF31A632B08D994F802
:104850007230012B02D108B1FFF7B4FF84F8725017
:104860000F4B1D6994F8752005F4005385F400552D
:10487000C5F34035AA421CBFE66784F87550E26F65
:10488000B61A632E08D994F87420012A02D10BB10C
:10489000FFF798FF84F8745070BD00BFCC0800206B
:1048A0000008024270B59D4C9C220021204613F066
:1048B0004AFB0123C02084F83B3011F08FFF12F037
:1048C0004BF8FDF71FFBFDF773FB4FF4E131944804
:1048D0000FF0F4FF0A21924811F0CCFC12F03AF8E4
:1048E00005468F480FF0ECFF48B912F033F8401B33
:1048F000B0F5FA6F03D20A2012F030F8F1E78949D7
:10490000874811F0CDFB8849854811F0C9FB8749DC
:10491000834811F0C5FB8649814811F0A9FB0A22A2
:104920004FF417717E4811F053FC82497C4811F016
:104930009FFB0A22D0217A4811F04AFC7E49784830
:1049400011F096FB0A222021754811F041FC7448B1
:104950000FF0AAFF7949724811F0A2FB70480FF0DE
:10496000A3FF77496E4811F09BFBFDF789FC0223FA
:1049700074496B4884F83D3011F092FB68480FF0A1
:1049800093FF01223121704801F08EFE6F4E002806
:104990003CD001236E49624884F8393011F080FB25
:1049A0006C4801F098FEFDF75BFD054678B16A4959
:1049B0005B4811F075FB94F839300BB1002D38D0FD
:1049C00094F83930002B3FD0FEF750FA3CE06349B1
:1049D000534811F065FB6249514811F061FB5048A2
:1049E0000FF062FFFCF75EFD08B3FDF7CDFBE0B111
:1049F0005648FDF711FD68B1012384F83D300023CE
:104A00005849B371464811F04BFB0CE0564984F805
:104A10003900DDE75549424811F042FBFDF730FC13
:104A2000022384F83D300025C5E75149EAE75149A2
:104A3000E8E7FEF71BFAFFF71DFE94F839301BB1CB
:104A40004D49374811F02CFB4C49354811F010FB0B
:104A500094F83D30002B5ED094F83D204849494BF6
:104A6000012A08BF194600252D4811F019FB2C48D2
:104A70000FF01AFFFCF7A0FCFDF736F9FCF76CFC11
:104A8000FDF748F9404B2A4683F823500121302096
:104A900005F022F82A4602212F2005F01DF82A46AB
:104AA00003212D2005F018F84FF48023374DC8203E
:104AB000AB6111F053FF04233549AB61184811F085
:104AC000D7FA344B7179344A1548022908BF1A467F
:104AD000114611F0E5FA3149114811F0C9FAB179DE
:104AE0000A220F48013111F044FB94F83A301BB10F
:104AF0002B490B4811F0D4FAFCF746FC0848294929
:104B000011F0CEFA012384F8823027490448BDE829
:104B1000704011F0C5BA2549A5E700BFCC080020B8
:104B2000C011002073B601089AB6010890A70108C9
:104B3000BAB60108CDB60108E4B6010800B701080D
:104B400012B7010836B70108240D002068090020BB
:104B500050B7010813B601085DB7010873B7010823
:104B6000BFB70108D7B701089DB70108F0B7010822
:104B700016B801083BB801085CB801087FB8010805
:104B8000DCB5010898B5010800ED00E00004024220
:104B9000A8B1010861B601086AB60108E9B10108C7
:104BA0008FB80108B2B80108C2B8010839A90108D4
:104BB00030B52F4BA5B093F8393023B32D4801F011
:104BC0007FFD30B92C492D4825B0BDE8304011F0AB
:104BD00067BA11A80122274901F0A4FD11A801F02C
:104BE0002AFE80B111A801F038FD70B911A801F0BA
:104BF000E6FD2348FDF70CFA214B2249C3F8580281
:104C00001E4811F04DFA25B030BD3F230A2101AAFC
:104C100011A811F017FB002500F190030DEB030024
:104C200000F88C5C9DF80430232BDBD0002BD9D00E
:104C30000D2BD7D03D2101A813F08DF90446002893
:104C4000D0D004F8015B01A812F0AFF885B220467D
:104C500012F0ABF845F207239D42C3D84FF47A73A4
:104C6000B5FBF3F5064B2B4483F83E02BAE700BFD1
:104C7000CC08002054AD0108CAB80108C0110020BA
:104C800068090020D8B8010830B5A24BA9B093F844
:104C900039303BB3A04801F013FD30B99F49A0481B
:104CA00029B0BDE8304011F0FBB915A801229A499E
:104CB00001F038FD15A801F0BEFD98B114220021C5
:104CC000684613F040F915A801F0C7FC60B915A8B3
:104CD00001F075FDFDF716FA92499148FDF73EFA8D
:104CE00011F0DEF929B030BD3F230A2105AA15A82D
:104CF00011F0A8FA002400F1A0036B4403F88C4CD7
:104D00009DF81430232BDED00228DCDD5B2B0DD187
:104D10005D2105A813F01FF90028D4D004701322D8
:104D200068460DF1150113F035F9CCE73D2105A8D2
:104D300013F011F90028C6D000F8014B05AB1D4651
:104D400013F8012B202AFAD0044623780130202BB7
:104D5000FAD028467449FBF77BFA48B9204612F08E
:104D600024F8022801D00428ADD1704B5871AAE76D
:104D700028466F49FBF76CFA40B9204612F015F847
:104D8000013805289FD8694B98719CE728466949E6
:104D9000FBF75EFA68B9204612F004F8664B51EC56
:104DA000100B0022FBF722FCFBF7BAFE5F4B98606A
:104DB00089E728466149FBF74BFA48B92046604924
:104DC00013F011F9003818BF0120584B18747AE716
:104DD00028465C49FBF73CFA38B9204611F0E5FF5C
:104DE0000A235843514BD8606DE728465649FBF7D4
:104DF0002FFA60B9204611F0D8FF80B2FA2828BFF8
:104E0000FA20322838BF3220484B58825BE72846C8
:104E10004E49FBF71DFA30B9204611F0C6FF434B4F
:104E2000A3F800024FE728464949FBF711FA30B9C9
:104E3000204611F0BAFF3D4BA3F8020243E7284693
:104E40004449FBF705FA30B9204611F0AEFF374B65
:104E5000A3F8040237E728463F49FBF7F9F930B9D0
:104E6000204611F0A2FF314BA3F806022BE728469B
:104E70003A49FBF7EDF930B9204611F096FF2B4B7C
:104E8000A3F808021FE728463549FBF7E1F930B9D6
:104E9000204611F08AFF254BA3F80A0213E72846A3
:104EA0003049FBF7D5F930B9204611F07EFF1F4B92
:104EB000A3F80C0207E728462B49FBF7C9F930B9DC
:104EC000204611F072FF194BA3F80E02FBE62846AC
:104ED0002649FBF7BDF930B9204611F066FF134BA8
:104EE000A3F81002EFE628462149FBF7B1F90028A4
:104EF00056D168461F49FBF7ABF900283ED1204642
:104F00001D4913F070F8003818BF0120074B83F8D3
:104F10002402D8E6CC0800208DAA0108E8B80108D0
:104F2000C01100204EBA0108F8B801086809002035
:104F3000FDB8010808B901080000594016B9010878
:104F40007EAA01081BB901082BB9010838B901086C
:104F500041B901084CB9010855B9010861B9010806
:104F60006DB9010868B9010877B9010889B9010864
:104F70009AB9010855AE0108A2BB01086846654907
:104F8000FBF766F900287FF49EAE2046624913F0D5
:104F90002AF8003818BF0120604B83F8340292E6EB
:104FA00028465F49FBF754F930B9204611F0FDFE61
:104FB0005A4B83F8250286E628465A49FBF748F9FA
:104FC000C8B968465849FBF743F930B9204611F093
:104FD000ECFE524BA3F8260275E668464D49FBF7F6
:104FE00037F900287FF46FAE204611F0DEFE4B4B00
:104FF000A3F83C0267E628464C49FBF729F930B98B
:10500000204611F0D2FE454BA3F828025BE6284665
:105010004749FBF71DF930B9204611F0C6FE3F4B5A
:10502000A3F82A024FE628464249FBF711F9A0B936
:10503000204611F0B7FE51EC100BFBF7B9FD9FEDC8
:105040003E7A07EE900A67EE877AFCEEE77A17EE73
:10505000902A324BA3F82C2235E628463749FBF735
:10506000F7F830B9204611F0A0FE2C4B83F82E0241
:1050700029E628463249FBF7EBF830B9204611F013
:1050800094FE264BA3F830021DE628462D49FBF777
:10509000DFF830B9204611F088FE204B83F8320249
:1050A00011E628462849FBF7D3F830B9204611F01D
:1050B0007CFE1A4B83F8350205E628462349FBF7A8
:1050C000C7F830B9204611F070FE144BA3F8360231
:1050D000F9E528461E49FBF7BBF830B9204611F028
:1050E00064FE0E4BA3F83802EDE528461949FBF79C
:1050F000AFF800287FF4E7AD68460649FBF7A8F84B
:1051000000287FF4E0AD204611F04FFE034BA3F8DA
:105110003A02D8E5A2B90108A2BB0108680900203B
:10512000B0B90108B7B9010855AE0108BFB9010807
:10513000CBB90108DBB9010800007A44E9B90108DC
:10514000F9B901080DBA01081CBA01082BBA010807
:1051500038BA010846BA01082DE9F047474DA2B018
:1051600095F83A6095F83630F6B22BB126B901239E
:1051700085F83A30BFF34F8F0027414904A811F05A
:10518000D5F8B94604A90FA8013711F0F0F80A22A2
:10519000394607A811F006F907A90FA811F04AF936
:1051A000384911F053F9014601A811F0E0F807A8B9
:1051B00011F07AF80FA811F077F804A811F074F83C
:1051C000019801F07DFA88B10FA80122019901F040
:1051D000A9FA0FA801F02FFB40B14FF000080FA86B
:1051E00001F03BFAB0B90FA801F0E9FA01A811F0FB
:1051F0005BF8062FC1D195F8363023B11EB9BFF345
:105200004F8F85F83A602049204822B0BDE8F0472A
:1052100010F046BF1F230A2107AA0FA811F012F8A9
:1052200000F188036B4403F86C8C9DF81C30232B31
:10523000D5D00228D3DD3D2107A812F08CFE04460C
:105240000028CCD004F8018B07A811F0AEFD8246EF
:10525000204611F0AAFD44F620639A45BFD800F11C
:105260000A03462BBBD8FA2351229AFBF3FA084BC8
:1052700002FB09339A448AF81800B0E7CC080020F2
:10528000DEAC0108EBA6010860BA0108C0110020DD
:105290006809002070B52C4C94B094F83C3033B1C0
:1052A0002A492B4814B0BDE8704010F0F9BE012621
:1052B0002849274884F83C6010F0F2FE94F83A50F0
:1052C00094F83630EDB243B13DB984F83A60BFF39B
:1052D0004F8F21491E4810F0E3FEFFF7D5FCFFF782
:1052E0003BFFFFF765FC1D48FCF792FE1B4BC3F824
:1052F00058021B4801F0E4F910B1194801F0F4F923
:1053000001A80222164901F00DFA01A801F093FA52
:1053100040B14FF41772114901A801F09BF901A89F
:1053200001F04DFA94F8363023B11DB9BFF34F8F19
:1053300084F83A5000230B49054884F83C3010F0BB
:10534000AFFE14B070BD00BFCC08002072BA0108D7
:10535000C011002089BA010896BA01086809002026
:10536000E0A50108B7BA0108F0B59948C1B00FF03F
:105370002FFA00282CD00A22954901A810F07CFFB2
:1053800001A811F00DF9039BFBB1924E3378002B6D
:105390003ED0914901A811F090F8904C0546C8B153
:1053A00000258F4801F00BFA8E49894810F060FE05
:1053B00021680A22864810F015FF8B498B4835700A
:1053C00010F0DFFF2560FBF79DFF01A810F06CFFD8
:1053D00041B0F0BD864901A811F06FF870B1834F5C
:1053E0007F4801F0ECF9386801F07EF9814978488E
:1053F00010F056FE38467C493570E1E7784801A93F
:1054000010F058FE2368039A134401332360DCE74D
:1054100079492DA810F08AFF2DA901A811F075F87F
:1054200004462DA810F040FF54B104222DA80DEB26
:105430000201FBF78AFF2DA8FDF746FF2DA81EE30A
:105440006E492DA810F072FF2DA901A811F05DF88A
:1054500004462DA810F028FF4CB104222DA80DEB16
:105460000201FBF772FF2DA8FEF74EFAE6E764494A
:105470002DA810F05BFF2DA901A811F046F80446F5
:105480002DA810F011FF4CB104222DA80DEB020144
:10549000FBF75BFF2DA8FEF73BFDCFE7594901A8BD
:1054A00011F00BF870B1584B9B8A9BB2632B04D957
:1054B0005649474810F0F4FD87E7FBF717FFFFF761
:1054C000D9F880E7524901A810F0F7FF58B14E4BC8
:1054D0009B8A9BB2632B01D94E49EAE7FBF706FF93
:1054E000FDF744F86FE74C4901A810F0E6FF10B152
:1054F000FFF77CF869E7494901A810F0DEFF10B119
:10550000FCF786FA61E7464901A810F0D6FF10B112
:10551000FCF78CFD59E7434901A810F0CEFF10B10C
:10552000FCF7E8FA51E7404901A810F0C6FF10B1B6
:10553000FCF7C2FD49E73D492DA810F0F7FE2DA963
:1055400001A810F0E2FF04462DA810F0ADFEBCB19A
:10555000039B082B07D8364B9C790134E4B22046D4
:10556000FCF71AFB31E7082201A92DA8FBF7EDFE95
:105570002DA811F03DF8C4B22DA810F095FEEEE76D
:105580002C4901A810F099FF10B1FCF70FFA1CE7A5
:10559000294901A810F091FF0028A9D1274901A8A5
:1055A00010F08BFF10B1FCF761FB0EE7244901A856
:1055B00010F083FF10B1FEF77DFD06E7214901A839
:1055C00010F07BFF00283FD0FEF7E2FEFDE600BFB3
:1055D000C011002060070020E8BA0108040700207D
:1055E00008070020F3BA0108B1BF010854070020E2
:1055F000FEBA01080CBB01081DBB010822BB010853
:10560000F8AC010827BB0108CC0800202CBB01081E
:1056100036BB010863BD010877BB01083BBB01082D
:1056200048BB010855BB01085CBB010863BB01080E
:10563000680900206BBB010873BB01087FBB010830
:105640008CBB010863B401088D4901A810F035FF37
:1056500028B100228B4B8C49A3F8542229E78B49AF
:1056600001A810F02AFF28B10122894B894983F84B
:105670003B201EE7884901A810F01FFF0028F3D146
:10568000864901A810F019FF40BB854901A810F018
:1056900014FF18BB834901A810F00FFF20BB8249FB
:1056A00001A810F00AFFF8B9804901A810F005FF21
:1056B000044618BB7E4901A810F0FFFE48B3714DA7
:1056C00085F8344272B6724B83F83F4062B6284682
:1056D000FCF79EFC7749C5F85802EAE600226C4BBD
:1056E000754983F83B20E4E6694B734A93F83B1015
:1056F000684B002918BF1A461146DAE60123614CAF
:10570000204684F83432FCF783FC6C49C4F8580214
:10571000CFE66B4901A810F0D0FE20B10122694B01
:1057200069491A70C5E6694901A810F0C6FE20B1A2
:105730000022644B66491A70BBE6664901A810F066
:10574000BCFE58B1524B9B8A9BB2632B01D9624974
:10575000AFE6FBF7CBFDFDF75BFB34E65F4901A845
:1057600010F0ABFE58B14A4B9B8A9BB2632B01D918
:105770005B499EE6FBF7BAFDFFF78CFD23E659492E
:1057800001A810F09AFE48B1414B9B8A9BB2632B53
:10579000DDD8FBF7ABFDFDF7D1FA14E6524901A8BD
:1057A00010F08BFE48B13A4B9B8A9BB2632BDFD83B
:1057B000FBF79CFDFFF7D0FC81E64C4901A810F0F7
:1057C0007CFE48B1324B9B8A9BB2632BBFD8FBF760
:1057D0008DFDFDF7C5FAF6E5454901A810F06DFE0F
:1057E00048B12B4B9B8A9BB2632BC1D8FBF77EFD44
:1057F000FFF7DEF963E63F4901A810F05EFE48B10D
:10580000234B9B8A9BB2632BA1D8FBF76FFDFCF760
:10581000D1FFD8E5384901A810F04FFE48B11C4B24
:105820009B8A9BB2632BA3D8FBF760FDFFF72CFA92
:1058300045E6324901A810F040FE38B1144B93F808
:1058400039300BB92E4934E62E4932E62E4901A8EB
:1058500010F033FE002861D00D4B9B8A9BB2632B66
:1058600001D92A4925E6FBF741FDFCF7A5FB20B14C
:105870002749284810F014FCA5E52749F9E700BF9F
:1058800068B401086809002093BB01089EBB0108A9
:10589000CC080020D3BA0108A5BB0108ACBB0108A5
:1058A000B4BB0108C0BB0108BCBB0108C4BB0108F4
:1058B000D0BB0108D7BB0108DABA0108CABB01088E
:1058C000DEBB0108CA080020E8BB0108F2BB0108E2
:1058D000FDBB010808BC01080FBC01081BBC010886
:1058E00022BC01082EBC010839BC010844BC0108D7
:1058F0004DBC010856BC0108EBB4010865BC0108A9
:105900006ABC010873BC010879BC010880BC0108AD
:105910008CBC0108C011002096BC01089C4901A85C
:1059200010F0CBFDD0B19B4B9B8A9BB2632B01D96E
:105930009949BEE599499A4810F0B2FB642011F0EC
:105940000DF8BFF34F8F9749974BCA6802F4E06296
:105950001343CB60BFF34F8F00BFFDE793492DA8E2
:1059600010F0E4FC2DA901A810F0CFFDB8B99049C2
:1059700001A810F0A2FD051E18BF01252DA810F0EA
:1059800093FC002D00F0A680824A938A9BB2632B81
:1059900007D98849824810F083FB874989E50125AA
:1059A000ECE792F839300BB98449F3E7039B032BFA
:1059B00057D9032201A904A8FBF7C7FC04A810F0DB
:1059C000EFFD069B1BB97E4904A810F0DAFC07A87E
:1059D0000122049900F0A6FE07A800F02CFF002881
:1059E00044D007A800F041FF00283FD075496C481B
:1059F00010F03EFB04A96A4810F05CFB00211AA8D5
:105A000000F07AFE3326704F012207A92DA800F07E
:105A100047FF2E9B20AC1B932F9B33AD1C93309BD9
:105A20001D93319B1E93329B1F930FCD0FC40FCD3F
:105A30000FC495E80F0084E80F009DF8FC301AA809
:105A40008DF8B03000F0F7FE18B1013E16F0FF06F9
:105A500018D15949524810F023FB07A800F0AFFEB7
:105A60000CE0574904A810F061FCA7E757494C48DF
:105A700010F016FB50494A4810F012FB04A810F031
:105A800013FCA2E41AA800F0F0FE5149002818BF48
:105A90003946434810F0ECFA1AA800F0DBFE014644
:105AA0003F4810F0EEFA1AA800F0DFFE58B9494955
:105AB0003B4810F0DDFA1AA800F0BAFE0A220146AF
:105AC000374810F06AFB364810F0E2FA1AA800F0E6
:105AD00076FE99E740492DA810F028FC2DA901A8D1
