:020000040800F2
:1000000000000A2045D4010895D4010895D40108C0
:1000100095D4010895D4010895D4010895D4010818
:1000200000000000000000000000000095D401085E
:1000300095D401080000000095D401086100010872
:1000400095D4010895D4010895D4010895D40108E8
:1000500095D4010895D4010895D4010895D40108D8
:1000600095D4010895D4010895D4010871000108C0
:10007000C5000108190101086D010108C10101084D
:100080001502010869020108BD02010811030108F7
:1000900069030108C103010819040108710401087A
:1000A000C9040108210501087905010895D4010852
:1000B00095D4010895D4010895D4010895D4010878
:1000C00095D4010895D4010895D4010895D4010868
:1000D0000000000095D4010895D4010895D40108CA
:1000E00095D4010895D4010899FD000895D401081C
:1000F000ADFD0008C1FD0008D5FD0008E9FD0008C0
:10010000FDFD000811FE000825FE000895D4010839
:1001100095D4010895D4010895D4010895D4010817
:1001200095D4010895D40108B9170108D51701081D
:10013000F517010815180108311801086918010898
:1001400095D4010895D4010839FE000895D401081A
:100150004DFE000895D4010895D401089DFE0008C5
:10016000B1FE0008C5FE00089D38010895D40108BD
:1001700095D4010895D4010895D4010895D40108B7
:1001800095D4010895D4010895D4010895D40108A7
:1001900095D401084D180108CD180108E918010887
:1001A00095D4010895D4010895D4010895D4010887
:1001B00095D4010895D4010895D4010895D4010877
:1001C00095D4010895D40108851801089D180108E7
:1001D000B5180108051901080000000095D40108B0
:1001E00095D4010895D4010800000000000000002B
:1001F00095D40108000000000000000095D401081B
:1002000095D4010895D4010895D401080000000098
:100210000000000095D401080000000095D40108FA
:1002200061FE000875FE000889FE000895D40108EB
:1002300095D4010895D4010895D4010895D40108F6
:0C02400095D4010895D4010895D401085C
:100250004FF48032014B9A61704700BF00040242A4
:100260002DE9F041634C94F88230002B00F082803D
:100270004FF080435A6BD4F88830ABB1D4F8881073
:1002800094F89A30511A002B40F0788140F6B8303B
:1002900063685B09834228BF0346B3F5FA7F38BF22
:1002A0004FF4FA73994265D32568D4F8B030551BE2
:1002B0009D4222605ED3656094F82E3003F0FF0209
:1002C0002BB9012384F82E30226584F86820236D31
:1002D000042B51D894F86830042B08D894F868306F
:1002E0005A1CD2B204EB830384F868205D65236D49
:1002F00001332365236D052B3CD1636DA26DE16D48
:100300001A44236E1144626E0B441A443A4B616DD9
:10031000A3FB02033948A1EB9301A0FB02020029D1
:10032000B8BF4942B1EB121F4FEA93034FEA1210D4
:1003300000F24181A26DD21A002AB8BF5242904207
:10034000C0F03981E26DD21A002AB8BF5242904201
:10035000C0F03181226ED21A002AB8BF52429042B8
:10036000C0F02981626ED31A002BB8BF5B4298425D
:10037000C0F02181BDE8F081A37C002BFAD194F874
:100380003330002BF6D094F8363003F0FF0C002BFE
:1003900040F02181237DA26A0133DBB22375002A5C
:1003A00040F0F580636A13B19D4240F2F380236A06
:1003B000002B00F005819D4200F202810323E374CB
:1003C000237D9A0740F0E880002294F8A93084F851
:1003D0008420042B00F06A81D4F804339D4280F01D
:1003E0008381D4F840349D4240F2DD8150200121C8
:1003F0000DE000BFA8040020CDCCCCCC1F85EB5174
:10040000D2F80023954298BF194600F231810B18AB
:1004100001335A10814204EB8202C3F34703EFD346
:10042000D4F89030002B40F0E780C4F89050B4F836
:1004300096309BB2002B00F04481C1EB411301EBDD
:100440008303B4F896205B009BB29A1A12B2B3F5FC
:100450007A6FA4F8982000F2BA810022A4F89630AE
:1004600094F8C83243B1B4F8CA32A448A0FB0303DD
:10047000B1EB131F40F2BF8194F83230002B00F033
:1004800028819F4B5B56B4F87000B4F9D46203EB3B
:10049000830303EB830300B29B00B0429BB213DDE6
:1004A000B4F87000801B94F8D66216FB00F694F93D
:1004B000D20236B200EB800000EB80008000864262
:1004C000D4BF9B1B1B1A9BB241F270701BB28342BC
:1004D000A8BF03468B488342B8BF0346E38141F27D
:1004E0007076E38987481A44E37C92B2012B04BFFB
:1004F000A2F5FA7292B213B2B342A8BF3346834256
:10050000B8BF0346E381D4F8A070D4F8AC2027B17B
:10051000D4F8A070EF1BC4F89C70C4F8A050207CE5
:1005200000F0FF0600287FF425AF04EB8101D21A0A
:10053000D1F8441400F1EE800023A2FB010184F8FD
:100540009A6042F210721AF051FEB4F8946036B21A
:10055000331800F19080B3EB550F00F28C80632BC1
:1005600040F28980002101200925674A116051620B
:10057000D3621161D06015602074FBE663689B0A4A
:10058000962B28BF96231E2B38BF1E238AE6954242
:100590003FF608AF0423E3740121E36C94F8A9202B
:1005A0000B44042AE36484F884107FF4E3AE637C94
:1005B0004B406374DEE60023236584F86830D9E697
:1005C000E3697BB19D420DD80223E374237DDB07F1
:1005D0007FF5FAAEE0E70122E36C1344E36484F8AC
:1005E0008420C7E6A36913B19D4240F2FF80002337
:1005F000E3742375E8E600216FF01D02D4F8903013
:100600000720EB1A43F30F139342B8BF13461E2B78
:10061000A8BF1E231BB2B4F8942003EB83035B0036
:1006200012FB003343F3CF03A4F89430B4F89430B2
:100630001BB2322BC4BF3223A4F89430B4F89430E8
:100640001BB23233BCBF4FF6CE73A4F89430C4F85B
:100650009050B4F896309BB2002B30D000297FF434
:10066000ECAE94F8C812002940F092800A4603E7E5
:10067000013BD8B2CBE601204FF08047002109258D
:10068000B4F8B6307F6A03EB830303FA00F21F4E1F
:100690001F4BC4F88870B06119605962DA62196141
:1006A000D8601D60A36C0344A36463E6637C83F09D
:1006B00001036374637C002B7FF48EAE5AE600293D
:1006C000CFD0C1EB411301EB83035B0000229BB24F
:1006D000C4E694F8AA3003EBC30303EBC30323443B
:1006E0000B4493F9BC30CEE6D4F89030002B82D185
:1006F000C4F89050B4F89630B3E700BFD34D621001
:10070000880A020818FCFFFF000C004000040242A7
:1007100000080040012302F50C46A03684F89A3008
:10072000A6FB0103F21701FB023142F21072002313
:100730001AF05CFD8046F7B140F6B832A3899BB24F
:10074000934218D9002348F6A04287FB06011AF00D
:10075000FDFC2A4A00EB600082FB08324FEAE87396
:10076000C3EB620398420246A8BF1A465B429A4214
:10077000ACBF90449844B4F894306A0808FA83F304
:100780009342B8BF13462A44934228BF1346E6E675
:10079000002294F9C932614603EB830303EB830320
:1007A0009B00E3819BE6D4F8903013BBC4F89050D3
:1007B000B4F896309BB20BB9502182E744F620631F
:1007C0005021B4F896209A1A12B2A4F89820E07C2E
:1007D00000287FF442AE6FF09500D2108242B8BF7D
:1007E0000246962AA8BF962292B237E60123E37406
:1007F000EAE5502100E78C46CBE700BF67666666F6
:10080000104B1A7CEAB10020F0B401244FF080476D
:100810000925B3F8B620187402EB82027F6A02FA47
:1008200004F1094E094AC3F88870B461106050623F
:10083000D1621061D46015609A6C22449A64F0BC55
:1008400070477047A80400200004024200080040DE
:100850000D4B0E4A1968914213D11A79032A10D10F
:1008600000220B4813F8011B83420A44FAD1064BBD
:100870000848D3F8CC305040C01AB0FA80F0400994
:1008800070470020704700BF00E0070833A5F1CD96
:10089000CCE00708EF0DA5F12DE9F043054687B040
:1008A00072B6514B9A6AD20704D55049504A5960E2
:1008B0005A609B6A0023042601274FF03F084FF03F
:1008C000010901A902A8CDE90489CDE902670193D4
:1008D00016F0E6FA044600286CD14FF48037022661
:1008E000AC4605F1D00E4348C5F1006542493E4A89
:1008F00005F5FC25D1F88885446006E0D1F88835F7
:10090000A3EB0803B3F57A7F54D8136A13F00B0FE7
:10091000F4D1136A13F47E034AD1136A05EB0C0970
:10092000DB0348BF1763936A866043F00203936258
:10093000EFF3108872B6DCF8003045F80C30DCF8C4
:100940000430C9F80430DCF80830C9F80830DCF8A5
:100950000C30C9F80C3088F31088D1F8888506E08F
:10096000D1F88835A3EB0803B3F57A7F2DD8136A45
:1009700013F00B0FF4D1136A13F47E032AD1136A18
:100980000CF1100CDB0344BF4FF480331363936A04
:10099000F44523F002039362ACD1134B9A6A42F000
:1009A00001029A629B6A62B6012007B0BDE8F0833B
:1009B000436013630C4B9A6A42F001029A629B6A8D
:1009C00062B6002007B0BDE8F083936A23F002030B
:1009D0009362EFE713634468916A1C4321F00201BC
:1009E00044609162E6E700BF0020024023016745B2
:1009F000AB89EFCD00000020A8040020084B094A75
:100A0000196810B5914215D01422074907480CF017
:100A100083FD0222064905480CF07EFD002010BD32
:100A200000E0070833A5F1CD40190208340A002080
:100A3000581902081A79032AE6D10022CB4813F884
:100A4000011B83420A44FAD1C94BCA49D3F8CC00EE
:100A500051408142D8D1DA79C74CD10740F1FC80AE
:100A60001A7A84F8AC205A7A84F8AD209A7A84F8FD
:100A7000AE20DA7A84F8AF201A7B84F8B0205A7B53
:100A800084F8B1209A7B84F8B220DA7B84F8B32012
:100A90001A7C84F8B4205A7C84F8B5209A7C84F8B7
:100AA000B620DA7C84F8B7201A7D84F8B8205A7D05
:100AB00084F8B9209A7D84F8BA20DA7D84F8BB20C6
:100AC0001A7E84F8A4225A7E84F8A5229A7E84F89D
:100AD000A622DA7E84F8A7221A7F84F8A8225A7FF9
:100AE00084F8A9229A7F84F8AA22DA7F84F8AB22BC
:100AF00093F8202084F8AC2293F8212084F8AD22CA
:100B000093F8222084F8AE2293F8232084F8AF22B1
:100B100093F8242084F8B02293F8252084F8B12299
:100B200093F8262084F8B22293F8272084F8B32281
:100B300093F8282084F8B42293F8292084F8B52269
:100B400093F82A2084F8B62293F82B2084F8B72251
:100B500093F82C2084F8B82293F82D2084F8B92239
:100B600093F82E2084F8BA2293F82F2084F8BB2221
:100B700093F8302084F8BC2293F8312084F8BD2209
:100B800093F8322084F8BE2293F8332084F8BF22F1
:100B900093F8342084F8C02293F8352084F8C122D9
:100BA00093F8362084F8C22293F8372084F8C322C1
:100BB00093F8382084F8C42293F8392084F8C522A9
:100BC00093F83A2084F8C62293F83B2084F8C72291
:100BD00093F83C2084F8C82293F83D2084F8C92279
:100BE00093F83E2084F8CA2293F83F2084F8CB2261
:100BF00093F8402084F8CC2293F8412084F8CD2249
:100C000093F8422084F8CE2293F8432084F8CF2230
:100C100093F8442084F8D02293F8452084F8D12218
:100C200093F8462084F8D22293F8472084F8D32200
:100C300093F8482084F8D42293F8492084F8D522E8
:100C400093F84A2084F8D62293F84B2084F8D722D0
:100C500093F86C3084F8A930454BDB795A070BD5F3
:100C6000464A474902F2332302F25320891ACA5CEA
:100C700003F8012F8342FAD13D4BDB799B071BD54B
:100C80003E4A404B02F1180CCCF1000C02F1680016
:100C9000A3EB020E6FEA0C033B496144CA5C03F804
:100CA000012F8342FAD1ACF1510CF44503F151000C
:100CB000F0D1002384F8AA3000222D49334B487923
:100CC00084F89C05887984F89D05C97903F5167028
:100CD00013F8011F98420A44FAD12D49B4F8A432FE
:100CE0005140C4F8FC12002B5CD02A4AB2FBF3F24C
:100CF000B4F8A632A261002B35D0264AB2FBF3F23B
:100D0000B4F8A832E26163B3224AB2FBF3F2B4F85A
:100D1000AA32226213B11F4AB2FBF3F3B4F8CC0239
:100D2000636210B11B4AB2FBF0F0B4F8B630A062B7
:100D3000FA2B28BFFA23322B38BF32231BB2C3EB66
:100D4000431C03EB8C035B101A2213491348A38541
:100D50000CF0E2FB0222124910480CF0DDFB0120EE
:100D600010BD1A46D3E71A46CAE700BFCCE0070811
:100D700000E00708EF0DA5F1A80400204C050020B5
:100D800019DE070802FEFFFF71E007084B0500208F
:100D9000EFBEADDE0046C3235C190208340A002012
:100DA000581902081A46A3E7164BB3F8A42232B327
:100DB0001549B1FBF2F1B3F8A6229961EAB11249E3
:100DC000B1FBF2F1B3F8A822D961A2B10E49B1FB8F
:100DD000F2F1B3F8AA2219625AB10B49B1FBF2F150
:100DE000B3F8CC22596212B10749B1FBF2F29A6210
:100DF00070471146F4E71146EBE71146E2E711466A
:100E0000D9E700BFA80400200046C32341F2111215
:100E100070B5354E82B0D6F8A0452169CB6823F075
:100E20000103CB60CB6823F00203CB60CB6823F0D7
:100E30000403CB60CB6823F00803CB60CB6823F0BE
:100E40001003CB600B6A134204D144F244430A6A94
:100E50001A4239D0012284F84D200B6823F0010397
:100E60000B6096F8B45084F84E2084F84F2084F834
:100E7000502084F8512084F8522084F8532084F8BC
:100E8000542084F8552084F8562084F8572005B360
:100E900000254B6B04F110002B462946CDE9005587
:100EA00018F02AFF08232846A38048F212110FF0F9
:100EB0008FFB237843F001032370D6F8A00502B01E
:100EC000BDE870400EF0ACBD0B6823F001030B6071
:100ED000C0E74B6B04F110002B460221CDE9005511
:100EE00018F00AFF0923DEE7A804002038B5534CA8
:100EF0004FF417720021524D04F1A4001DF026FAA0
:100F000040F2032040F6B83101224FF47A73C4F85E
:100F1000A4506425A4F8A800C4F8AC1084F8B42048
:100F20004849512204F1BC00C4F8B030A4F8B650CE
:100F30001DF065FA5122434904F20D101DF05FFACD
:100F40005122404904F5AF701DF059FA51223D4934
:100F500004F2AF101DF053FA51223A4904F5007023
:100F60001DF04DFA5122374904F251201DF047FA85
:100F700041F2893142F28232C4F8BC123249C4F8DB
:100F8000C022C4F8C81242F6F821C4F8C4220A22CA
:100F90002E484FF03233C4F8A40200F17A7000F505
:100FA0007A70C4F8A8022A48A4F8D012C4F8AC0297
:100FB00028485021C4F8B002052084F8D62284F8CD
:100FC000D922002284F8D2022348A4F8B452C4F8EB
:100FD000DA02224D2248C4F8E232C4F8E632C4F8FC
:100FE000EA32C4F8EE32C4F8F23284F8F632C4F8C9
:100FF000DE02C4F8CC5204F1A30304F2FB20A4F8EF
:10100000D41213F8011F98420A44FAD1154B4DF23D
:1010100011555340C4F8FC324BF249434CF6CD30E5
:101020004CF250314BF68032A36241F66A03C4E9B8
:101030000650C4E90812A38538BD00BFA8040020EB
:10104000462311CD880A02080105F401F82AEC2C88
:1010500028231027F82AC8000008C409C8327800DD
:10106000B80B983AEFBEADDE38B517224E494F485F
:101070000CF052FA02224E494C480CF04DFA4D4CFD
:10108000B4F82436B4F826269BB292B280339B1A69
:101090005A4202F07F0203F07F0358BF5342002BF5
:1010A000EEDC454B454A1968914202D11A79032A70
:1010B00046D0182242493D480CF02EFA02223C4903
:1010C0003A480CF029FAB4F82436B4F826269BB234
:1010D00092B280339B1A5A4202F07F0203F07F03E0
:1010E00058BF5342002BEEDCFFF700FF15223549B5
:1010F0002E480CF011FA02222D492C480CF00CFA63
:10110000B4F82436B4F826269BB292B280339B1AE8
:101110005A4202F07F0203F07F0358BF5342002B74
:10112000EEDC022518222849204884F835500CF0BE
:10113000F3F9BDE8384002221D491C480CF0ECB917
:101140000022224813F8011B83420A44FAD11A49AB
:101150001F4BD1F8CC1053408B42AAD11D221D4900
:1011600012480CF0D9F90222114910480CF0D4F9B8
:10117000B4F82436B4F826269BB292B280339B1A78
:101180005A4202F07F0203F07F0358BF5342002B04
:10119000EEDCFFF733FC00288BD0012314220E492C
:1011A000024884F83530C2E778190208340A002072
:1011B00058190208A804002000E0070833A5F1CD63
:1011C000C8190208E4190208FC190208CCE0070853
:1011D000EF0DA5F190190208B019020838B50025E5
:1011E00090F806C0AE460CEBCC0C0CEBCC0C0CF122
:1011F000180C84440CF1FF310CF1500C03E06145F4
:101200005FFA84FE10D011F9012F0EF1010402F1F2
:101210000A03DBB2462B1DD8002AF0D0013204BFEE
:101220000135EDB26145EED1BEF1510F12D0512D15
:1012300010D090F834325BB100F23D2200F252201F
:1012400012F8013F0A3BDBB2BE2B0FD89042F7D118
:10125000012038BD1B22074907480CF05DF9022226
:10126000064905480CF058F9002038BD17220449FA
:10127000F2E700BF181A0208340A002058190208C1
:10128000341A02082DE9F0419D4DADF5347D95F8F5
:1012900031302BB9002420460DF5347DBDE8F081B6
:1012A000984F09AC002221466846009707F034FFAA
:1012B000002873D0944F002221466846009707F01B
:1012C0002BFF18B1914817F0F3FAE3E74FF40070E1
:1012D0001EF05EFE80460028F4D023680099D86096
:1012E000204607F085FD002840F0F78094F92B3068
:1012F000002BC0F2F2801CAE3146204607F06AFC9B
:1013000040461EF04DFE39460122204608F0CAF83C
:101310002369002B5BD06069002855D00368002B3F
:1013200052D06B464FF4177231460CF0A9FE0028DC
:1013300058D0204605F020FA4FF0FF341D227449A2
:1013400074480CF0E9F80023734808AD8DF820309C
:101350002246A0FB0434E40804EB8403A2EB43031D
:10136000DBB2092B03F130018ABF3733CBB2DBB2DA
:10137000092A05F8013DEBD8284619F0F1F929466C
:10138000024664480CF0C8F80122644961480CF038
:10139000C3F84FF4177017F0D7FA7BE74FF40070DB
:1013A0001EF0F6FD8046002884D023680099D8609E
:1013B000204607F01DFD18B994F92B30002B9ADA5E
:1013C00040461EF0EDFD75E7A369002BA9D11E2252
:1013D000534950480CF0A0F8022252494D480CF0F5
:1013E0009BF857E72046009C05F0C6F9B4F5177F37
:1013F000A4D14D4B32689A4202D01F224B49E8E7F4
:101400003379013B092BF8D87379022B01D0042BD7
:10141000F3D1B379052BF0D80022D6F858420DF15C
:101420006F030DF2C72013F8011F83420A44FAD15B
:101430003F4B53409C42E0D13046FFF7CFFE04467D
:1014400000284ED04FF4177231463A481CF0D7FFAF
:101450000022B5F8A43285F8322085F83520002B1B
:101460004BD0354AB2FBF3F2B5F8A632AA61002B95
:1014700041D0314AB2FBF3F2B5F8A832EA61002B51
:1014800037D02D4AB2FBF3F2B5F8AA322A6273B311
:10149000294AB2FBF3F2B5F8CC326A622BB3264A82
:1014A000B2FBF3F2B5F8B630AA62FA2B28BFFA23E2
:1014B000322B38BF32231BB2C3EB431603EB860338
:1014C0005B101F221D491348AB850CF025F895F8D9
:1014D000AA00013016F0E6FBDDE640461EF060FD96
:1014E000F0E6174817F0E4F9D4E61A46DAE71A46A8
:1014F000D1E71A46C8E71A46BEE71A46B4E700BF66
:10150000A80400205C1A02084C1A0208741A020887
:10151000B01A0208340A0020CDCCCCCCD01A020874
:10152000901A020858190208462311CDD41A02084D
:10153000EFBEADDE4C0500200046C323081B0208A9
:10154000F41A0208F0B5754DA7B095F83130002BAC
:1015500000F0B38095F8343003F0FF02002B40F028
:10156000C380012105F1A30305F2FB2085F83410A7
:1015700013F8011F83420A44FAD1694B694853406A
:10158000C5F8FC3218F08AFE674818F087FE6748F5
:1015900008F018F902226846644907F083FF049BAB
:1015A000002B4BD0059B002B45D01B68002B00F077
:1015B00093805E4F4FF417725D49684606F052FD06
:1015C00004460026684605F0D7F8B4F5177F85F87D
:1015D000346000F08C801322564957480BF09CFF72
:1015E00056488DF86C601BAD2246A0FB0434E4081D
:1015F00004EB8403A2EB4303DBB2092B03F13001BC
:101600008ABF3733CBB2DBB2092A05F8013DEBD8EC
:10161000284619F0A5F82946024647480BF07CFFFA
:101620000122474944480BF077FF4FF4177017F039
:101630008BF927B0F0BD069B002BBAD1414808F0CA
:10164000C1F802223F4913A807F02CFF149B06ACF7
:101650000193169B0DF1640C0393159B179F029346
:10166000BCE80F000FC4BCE80F000FC49CE80F00DB
:10167000189E0497059684E80F009DF894308DF825
:10168000483087B91D2230492B480BF045FF022214
:101690002E4929480BF040FF002385F8313085F8AA
:1016A000343027B0F0BD16B13368002B33D1069B20
:1016B000244F002B7FF47EAFE4E71622244905F285
:1016C0008C500BF029FF0222204905F28C5027B0E4
:1016D000BDE8F0400BF020BF069B002BAED0134FAF
:1016E000002B7FF467AFCDE714221A49E7E71022F9
:1016F000194911480BF010FF384619F031F83946F6
:1017000002460D480BF008FF022210490A480BF070
:1017100003FF27B0F0BD0B4F4CE700BFA80400202B
:10172000EFBEADDE581B0208641B02085C1A0208FB
:101730004C050020901B0208340A0020CDCCCCCCF4
:10174000D01A02084C1A0208701B02085819020825
:10175000281B0208401B0208A41B0208614B93F8D7
:10176000313003B9704700B595B002225E4901A837
:1017700007F098FE059B002B00F0AC80069B002B29
:1017800000F0AB801B68002B00F0A780574901A830
:1017900016F07EFE564901A816F07AFE554901A8BA
:1017A00016F076FE514901A816F072FE01A816F057
:1017B000D1FA514901A816F06BFE504901A816F064
:1017C00067FE4F4901A816F063FE4E4901A816F0C6
:1017D0005FFE4D4901A816F05BFE4C4901A816F0CA
:1017E00057FE4B4901A816F053FE4A4901A816F0CE
:1017F0004FFE01A816F0AEFA474901A816F048FEC0
:10180000464901A816F044FE454901A816F040FEDD
:10181000444901A816F03CFE434901A816F038FEE1
:1018200001A816F097FA414901A816F031FE404987
:1018300001A816F02DFE3F4901A816F029FE3E49E9
:1018400001A816F025FE3D4901A816F021FE3C49ED
:1018500001A816F01DFE3B4901A816F019FE01A8CB
:1018600016F078FA384901A816F012FE374901A897
:1018700016F00EFE364901A816F00AFE354901A8F9
:1018800016F006FE01A816F065FA334901A816F015
:10189000FFFD324901A816F0FBFD314901A816F001
:1018A000F7FD304901A816F0F3FD2F4901A816F005
:1018B000EFFD0E4901A816F0EBFD01A804F05CFF56
:1018C0000E222A492A480BF027FE022229492848DD
:1018D0000BF022FE15B05DF804FB079B002B7FF494
:1018E00055AFF7E7A8040020B81B0208D01B020878
:1018F000FC1B02081C1C02083C1C02084C1C0208B1
:10190000701C0208901C0208AC1C0208C01C0208D3
:10191000E01C0208F81C0208101D0208181D02082D
:10192000401D0208681D02088C1D0208A81D02083F
:10193000B81D0208DC1D0208001E02081C1E020859
:101940003C1E0208641E02088C1E0208981E020833
:10195000BC1E0208E41E0208FC1E0208101F02083A
:10196000241F0208401F0208581F02087C1F02089B
:10197000340A002058190208F0B5034DD5B095F887
:1019800031301BB955B0F0BDA8040020D84E00225C
:1019900002A901A8019607F0BFFB002800F04782CA
:1019A0000EAC02222046D24907F07CFD2369002BB1
:1019B000E8D06369002B00F035821B68002B00F033
:1019C00031822046CB4916F063FD2046CA4916F005
:1019D0005FFDCA49204616F05BFD204616F0BAF9B5
:1019E0002046C74916F054FD2046C64915F0D6FBDF
:1019F000204695F8A91016F0A9FA2046C24915F01C
:101A0000CDFB95F8AA102046013115F0EBFE2046DB
:101A100016F0A0F92046BD4916F03AFD2046BC4913
:101A200015F0BCFBBB4ED5F8AC30204686FB03213D
:101A3000DB17C3EB611115F0AFFC2046B64915F07A
:101A4000ADFB6422D5F8AC10204686FB0136CB17DF
:101A5000C3EB661302FB13110029B8BF494215F00E
:101A60009BFC0222AD49204606F0D0F82046AC4946
:101A700015F094FB95F8B430002B40F0D181A949C2
:101A8000204616F005FD2046A74915F087FB0023E8
:101A9000A648D5F8B0208DF82830A0FB02320AAE57
:101AA000D2081146A0FB0232D20802EB8203A1EB5E
:101AB0004303DBB2092B03F1300C8ABF37335FFAE3
:101AC0008CF3DBB2092906F8013DEAD8304618F05C
:101AD00047FE31460246204606F098F802228F491A
:101AE000204606F093F82046914915F057FBB5F8CB
:101AF000B610204615F076FE204616F02BF920464B
:101B00008C4916F0C5FC20468B4915F047FB204652
:101B1000B5F8A41215F066FE2046884915F03EFB84
:101B20002046B5F8A61215F05DFE2046844915F052
:101B300035FB2046B5F8A81215F054FE2046814921
:101B400015F02CFBB5F8AA12204615F04BFE2046E6
:101B500016F000F920467C4916F09AFC20467B4995
:101B600015F01CFB2046B5F8AC1215F03BFE2046E4
:101B7000774915F013FB2046B5F8AE1215F032FE8A
:101B80002046744915F00AFB2046B5F8B01215F04E
:101B900029FE2046704915F001FB2046B5F8B21227
:101BA00015F020FE20466D4915F0F8FAB5F8B4128C
:101BB000204615F017FE204616F0CCF8204668495E
:101BC00016F066FC2046674915F0E8FA95F8C83229
:101BD000002B00F051816449204616F059FC204644
:101BE000624915F0DBFA204695F9C91215F0FAFDA5
:101BF00020465F4915F0D2FAB5F8CA12204615F012
:101C0000F1FD204616F0A6F820465A4916F040FC91
:101C10002046594915F0C2FA2046B5F8CC1215F005
:101C2000E1FD2046554915F0B9FA2046B5F9CE1226
:101C300015F0D8FD2046524915F0B0FA514EB5F8CE
:101C4000D0122046A6FB0131890915F0A5FB2046DC
:101C5000314915F0A3FA4FF47A71B5F8D0322D4A14
:101C6000A6FB0306B60901FB163189B2A2FB0121CE
:101C70002046490915F0B6FD2046434915F08EFA75
:101C8000204695F9D21215F0ADFD20463F4915F0DA
:101C900085FA2046B5F9D41215F0A4FD20463C493A
:101CA00015F07CFA95F8D612204616F04FF920462A
:101CB00016F050F82046374916F0EAFB2046364920
:101CC00015F06CFAB5F8F812204615F08BFD204699
:101CD00016F040F82046314916F0DAFB204621493B
:101CE00015F05CFA95F8D832002B00F0C38057E06D
:101CF0009C1F0208B41F0208CC1F0208EC1F020838
:101D0000142002082020020828200208342002089B
:101D1000402002081F85EB5154340208581902086C
:101D200050200208941F020858200208CDCCCCCCC9
:101D30006C2002087C2002088C20020898200208EF
:101D4000A4200208B0200208C0200208D020020807
:101D5000D8200208E4200208F42002080821020822
:101D60001C21020828210208B02F02083421020891
:101D70003C2102084821020854210208642102087B
:101D800078210208D34D6210882102089C210208A4
:101D9000B4210208C4210208D4210208E02102086B
:101DA0003649204616F074FB2046354915F0F6F901
:101DB000204695F8D91216F0C9F82046314915F099
:101DC000EDF92046B5F8DA1215F00CFD20462E4943
:101DD00015F0E4F92046B5F8DC1215F003FD2046B5
:101DE0002A4915F0DBF92046B5F8DE1215F0FAFCA9
:101DF0002046274915F0D2F9B5F8E012204615F033
:101E0000F1FC204604F0B8FC1122224922480BF0D4
:101E100083FB0222214920480BF07EFB55B0F0BD28
:101E20001F492DE6A369002B7FF4CBADAAE54FF443
:101E300000701EF0ADF8074600283FF4B1ADDDE9B3
:101E40000113D86002A806F0D3FF78B99DF93330AA
:101E5000002B0BDB0EAC214602A806F0BBFE384679
:101E60001EF09EF8304607F0ADFC9AE538461EF0AD
:101E700097F895E50B4994E70A49ADE6B02F0208BB
:101E8000F021020800220208102202082022020883
:101E90003C2102082C220208340A002058190208AA
:101EA0008C1F0208C02F020801232DE9F04FDDB07E
:101EB00004938A4B0DF1580906930AABA9EB03036F
:101EC0000593874B93F83130002B00F0F0800F2002
:101ED0001EF05EF80190002800F04A830446814B12
:101EE0000FCB07C424F8023B1B0C0F2023701EF0FD
:101EF0004FF80646002800F0838304464FF013088D
:101F000012274FF00E0B019B0FCB07C424F8023BA6
:101F10001B0C2370049B059A303389F800308DF830
:101F2000283000230DF129018B54484618F018FC85
:101F3000451C044628461EF02BF88246F0B12A467E
:101F400049461CF05CFA002C40F0F082002E00F0B4
:101F50004F83414630461EF043FBB04605460028FD
:101F600000F000837E1CBBF1000F13D00E245E4AEC
:101F700029191068127928510A7110E016B13046FB
:101F80001EF00EF805201EF003F805260546002871
:101F900000F0EB82544A92E8030028602971304631
:101FA0001DF0F6FF064610B129461EF07DFB504697
:101FB0001DF0F6FF28461DF0F3FF09AD01981DF056
:101FC000EFFF002228460AA9099607F0A5F8002885
:101FD00000F0D48202223146484607F063FAD9F86D
:101FE0001030002B60D0D9F81430002B00F0E482C0
:101FF0001B68002B00F0E08248463C4915F0CEF803
:102000004846049915F0EEFB4846394916F040FA67
:102010004846384916F03CFA484615F09BFE002326
:1020200007961E46069C01944FF0000331468DF83A
:1020300048300DF1480808462F4BA3FB0131C90871
:1020400001EB8103A0EB4303DBB2092B03F1300268
:102050008ABF3733D3B2DBB2092808F8013DEAD88A
:10206000D9F8144084B1276837B13A7822B1A188F1
:10207000FA88914200F0078122682AB1117819B1DB
:10208000A088D18888423FD0019B484613F9011FA0
:10209000FA36019315F0A6FB44F61A739E42C3D19B
:1020A0004846079E04F068FB30461DF079FF049B0C
:1020B000069A01335132072B049306927FF401AF45
:1020C00011220E490E480BF027FA02220D490C4846
:1020D0005DB0BDE8F04F0BF01FBA00BF63050020F4
:1020E000A8040020402202085022020858220208B8
:1020F000682202088C220208CDCCCCCCB022020887
:10210000340A0020581902085278B24B03EB8201BE
:10211000D1F830161A44496892F834068847C70740
:10212000B2D4627C002AAFD1227C9507ACD561691C
:10213000481C67D00127D4F800A0DFF89CB20296B3
:10214000C1F30805002D61D1BAF80A8008F1FF3803
:1021500018EA512810D1002940F06781A0680028B2
:1021600000F08C81012800F06A81431C00F0598145
:10217000A368A06103B9A06094F91030002B6ADB5A
:10218000A369DAF81820023B023A934250D2BAF817
:102190000A20DAF82C5002FB0355002D48D0B7F581
:1021A000007F454449D308EB57218A424FEA572321
:1021B000884838BFA2EB08039AF80120039300EB8C
:1021C0008201D1F830160244D1F80C8092F834061E
:1021D00059462A46C047039B002840F02281E16906
:1021E000491B8B4200F284815D026169E3682944E6
:1021F0008B4238BF0B467F1BAB446161E3609FD1CC
:10220000029E227C42F0400222743DE704F128083D
:1022100008EB0500C5F50075BD4228BF3D4659468F
:102220002A461CF0ECF8237C63F07F032374DCE780
:102230004FF00203029E637426E7E26963699542E8
:1022400003D0E2689342C0F0278104F12808E561D9
:10225000C3F30805DCE75F489AF80120012300EB8F
:102260008201D1F830160244CD6892F8340604F1A8
:102270002801E269A847002840F0D380237C03F0BE
:102280007F0323747CE7404618F06AFA7A78514B52
:10229000054603EB8201D1F830161A44496892F8DA
:1022A00034068847C00772D4627C002A6FD1227C32
:1022B00091076CD56169CD4200D3CD43002D63D029
:1022C000D4F800B00296C1F30807002F65D1BBF81F
:1022D0000AA00AF1FF3A1AEA512A10D1002940F067
:1022E000BB80A068002800F0D080012800F0BD80ED
:1022F000431C00F0A880A368A06103B9A06094F912
:102300001030002B77DBA369DBF81820023B023A80
:10231000934254D2BBF80A20DBF82C7002FB0377FF
:10232000002F4CD0B5F5007F574457D30AEB552109
:102330008A424FEA5523274838BFA2EB0A039BF88D
:102340000120039300EB8201D1F830160244D1F84A
:102350000CA092F8340641463A46D047039B002829
:1023600071D1E169C91B8B4200F2D1805F026169C2
:10237000E36839448B4238BF0B46ED1BB8446161BA
:10238000E360A0D1029E227C42F040022274D9F880
:102390001440002C7FF470AE76E604F1280A0AEBB4
:1023A0000700C7F50077AF4228BF2F4641463A469F
:1023B0001CF025F8237C63F07F032374D7E74FF0EC
:1023C00002036374D9F81440029E002C7FF454AECB
:1023D0005AE600BFA80400207C250208E269636970
:1023E000974202D0E26893426CD304F1280AE76175
:1023F000C3F30807D3E785489BF80120012300EBCE
:102400008201D1F830160244CF6892F8340604F104
:102410002801E269B847B0B9237C03F07F03237435
:1024200071E70122029E62742EE62046A16905F042
:10243000F9FA00283FF4E4AE01287FF496AE0222B8
:10244000029E627420E601226274D9F81440029E52
:10245000002C7FF411AE17E62046A16905F0E2FAE0
:1024600000288FD001287FF443AF02226274D9F88C
:102470001440029E002C7FF4FFAD05E64146204645
:1024800005F0D0FA0028D7D1BAE65146204605F02B
:10249000C9FA0028E6D175E75C499AF8013004F1E1
:1024A000280801EB8302D2F830260B44926893F897
:1024B0003406164601232A464146B0470028B0D1CB
:1024C0006369C4E651499BF8013004F1280A01EB25
:1024D0008302D2F830260B44926893F834061646ED
:1024E00001233A465146B0470028ACD163697EE7E4
:1024F0004FF400720BEB412104F1280003931BF011
:102500007EFF227C039B02F07F0222746CE64FF474
:10251000007208EB412104F1280003931BF06FFFC8
:10252000227C039B02F07F0222741FE75C44002E92
:1025300051D03046611C1EF053F8804600283FF40D
:102540001EAD2A465146BBF1000F3FD140461BF05D
:1025500056FF661D314640461EF042F805460028EB
:102560007FF405AD40461DF01BFD00252E461EE5FF
:10257000834606464FF005080427CBE44FF400706D
:102580001DF006FD044600283FF424ADDDE90913E3
:10259000D8600AA806F02CFCA0B99DF95330002B96
:1025A00010DB49460AA806F015FB20461DF0F8FC92
:1025B000304607F007F90DE5D9F81830002B7FF405
:1025C0001BAD71E520461DF0EBFC03E508F10E00A4
:1025D0001BF015FFBDE7601C1DF0DAFC80460028EB
:1025E0003FF4D0AC2A465146BBF1000FAED0EDE728
:1025F00040461DF0CDFC054600287FF4B3ACB4E79F
:102600004FF005080427834684E400BFA804002097
:10261000AB4B93F8313003B970472DE9F04FA94C1B
:10262000D9B0002206A905A8059406F075FD00287A
:1026300000F0A88312AF02223846A24906F032FF0A
:102640003B69002B00F08B807B69002B00F07D83C1
:102650001B68002B00F079834FF0000938469A4937
:1026600015F016FF3846994915F012FF384698497B
:1026700015F00EFF384615F06DFB4B46954E964D06
:10268000B1461E464FF0000332460EAC8DF838308E
:102690001146A5FB0232D20802EB8203A1EB4303F1
:1026A000DBB2092B03F130008ABF3733C3B2DBB290
:1026B000092904F8013DEBD8204618F051F82146CD
:1026C0000246384605F0A2FA7C693CB123682BB17A
:1026D0001A781AB1A188DA88914243D04FF00003EA
:1026E00019F8011F8DF838300DF138080A46A5FB9E
:1026F0000131C90801EB8103A2EB4303DBB2092BD3
:1027000003F130008ABF3733C3B2DBB2092A08F8BD
:10271000013DEBD88CB1226832B1117821B1A0888B
:10272000D188884200F0CE81236833B11A7822B173
:10273000A188DA88914200F0F480684B06F57A7639
:1027400099459FD1384604F017F80F22644965482F
:102750000AF0E2FE0222644962480AF0DDFE59B046
:10276000BDE8F08F5B78564901EB8302D2F8302642
:102770000B4493F8340652689047C30777D4637CC0
:10278000002B74D1227C900771D56369591C6BD0E2
:102790004FF00108CDE90196D4F800A0DFF84CB164
:1027A000C3F30806002E64D1BAF80A60013E16EAA7
:1027B000532610D1002B40F06382A068002800F05F
:1027C0008882012800F03383431C00F05382A36801
:1027D000A06103B9A06094F91030002BC0F288808A
:1027E000A369DAF81820023B023A934252D2BAF8AF
:1027F0000A10DAF82C2001FB0323002B4AD0B8F58D
:10280000007F06EB03094CD306EB582291422C487B
:102810009AF801204FEA582338BF8B1B00EB820146
:10282000D1F830160244CE6892F8340659464A462A
:102830000393B047039B002840F01C82E169A1EBA1
:1028400009018B4200F2D0825E026369E268334480
:102850009A4238BF1A46B8EB0608B3446361E26097
:102860009ED1227CDDE9019642F0400222747C690F
:1028700034E704F128018819C6F50076464528BFDB
:102880004646594632461BF0BAFD237C63F07F036F
:102890002374DAE74FF00203DDE9019663747C6983
:1028A0001CE7E3696669994503D0E368B34200F227
:1028B000208204F12801C4F81C90C6F30806DAE768
:1028C000A8040020C4220208DC220208FC2202081C
:1028D0001823020889070020CDCCCCCC9E0700200D
:1028E0003C230208340A0020581902087C250208FB
:1028F00072489AF80120012300EB8201D1F83016CA
:102900000244D1F80C9092F8340604F12801E269EF
:10291000C847002840F0AE81237C03F07F03237476
:102920005EE766495B7801EB8302D2F830260B4400
:10293000526893F834069047C1073FF5FEAE637CBA
:10294000002B7FF4FAAE237C9A077FF5F6AE62691E
:10295000D01C40F29780511C6AD04FF00108CDE99D
:102960000196D4F800A0DFF858B1C2F30806002E93
:1029700062D1BAF80A60013E16EA522610D1002A46
:1029800040F08681A068002800F09B81012800F0BB
:102990004982431C00F06981A368A06103B9A0606B
:1029A00094F91030002B70DBA369DAF81820023B91
:1029B000023A934251D2BAF80A10DAF82C2001FBFD
:1029C0000323002B49D0B8F5007F06EB03094AD357
:1029D00006EB5822914239489AF801204FEA5823D1
:1029E00038BF8B1B00EB8201D1F830160244CE6851
:1029F00092F8340659464A460393B047039B002891
:102A000040F03381E169A1EB09018B4200F2DD81E5
:102A10005E026269E3683244934238BF1346B8EB02
:102A20000608B3446261E3609FD1237CDDE901962F
:102A300043F04003237480E604F128018819C6F5A9
:102A40000076464528BF4646594632461BF0D7FC1D
:102A5000237C63F07F032374DBE74FF00203DDE99F
:102A60000196637469E6E3696669994503D0E36892
:102A70009E42C0F0548104F12801C4F81C90C6F3B2
:102A80000806DBE74FF0020869E70C489AF80120D6
:102A9000012300EB8201D1F830160244D1F80C90EA
:102AA00092F8340604F12801E269C847002840F092
:102AB000DC80237C03F07F03237475E7A8040020E7
:102AC000581902084046019217F04AFE019AAC4B91
:102AD0005278824603EB8201D1F830161A444968D5
:102AE00092F834068847C00779D4627C002A76D1F0
:102AF000227C910773D553466169CB4201D3CB4306
:102B00009A465346002B67D0CDF80490D146D4F8AE
:102B100000B00296C1F30806002E65D1BBF80A602A
:102B2000013E16EA512610D1002940F0C280A0686B
:102B3000002800F0D680012800F07F81431C00F0BF
:102B4000AF80A368A06103B9A06094F91030002B96
:102B500074DBA369DBF81820023B023A934254D29B
:102B6000BBF80A10DBF82C2001FB0323002B4CD010
:102B7000B9F5007F06EB030A51D306EB59229142C7
:102B80007F489BF801204FEA592338BF8B1B00EB8D
:102B90008201D1F830160244CE6892F834064146DC
:102BA00052460393B047039B002879D1E169A1EB1A
:102BB0000A018B4200F227815E026169E3683144B9
:102BC0008B4238BF0B46B9EB0609B0446161E36044
:102BD000A0D1227CDDE9019642F0400222747C699A
:102BE000002C7FF4A1ADA8E504F128018819C6F5F1
:102BF00000764E4528BF4E46414632461BF0FFFB4D
:102C0000237C63F07F032374D7E74FF00203DDE9F1
:102C1000019663747C69002C7FF486AD8DE5E369D1
:102C200066699A4503D0E3689E42C0F0938004F140
:102C30002801C4F81CA0C6F30806D7E750489BF843
:102C40000120012300EB8201D1F830160244D1F8B3
:102C50000CA092F8340604F12801E269D047F8B9D3
:102C6000237C03F07F03237473E70123DDE90196DE
:102C7000637462E50123DDE9019663747C692DE5E7
:102C80002046A16904F0CEFE00287FF49AADE8E565
:102C90002046A16904F0C6FE00287FF477AEC4E6A2
:102CA0000123DDE9019663747C69002C7FF43CAD5F
:102CB00043E52046A16904F0B5FE00287FF43BAF50
:102CC00087E73146204604F0ADFE00287FF45EAE73
:102CD000ABE63146204604F0A5FE00287FF471AD36
:102CE000BFE53146204604F09DFE00287FF423AF67
:102CF0006FE723489AF8013004F1280100EB8302C2
:102D0000D2F830260344966893F834064A460123E5
:102D10000391B0470028ADD166690399CBE5184807
:102D20009AF8013004F1280100EB8302D2F8302632
:102D30000344966893F834064A4601230391B0474A
:102D4000002892D16669039997E6BB69002B7FF44E
:102D500083AC04E50A489BF8013004F1280100EB3C
:102D60008302D2F830260344966893F8340652461C
:102D700001230391B047002892D16669039958E76F
:102D8000A80400204FF400701DF002F90546002849
:102D90003FF450ACDDE90513D86006A806F028F82A
:102DA00078B99DF94330002B0BDB12AF394606A8EA
:102DB00005F010FF28461DF0F3F8204606F002FD4E
:102DC00039E428461DF0ECF834E44FF400720BEBC4
:102DD000412104F1280003931BF011FB227C039B8B
:102DE00002F07F02227413E64FF400720BEB4121D4
:102DF00004F1280003931BF002FB227C039B02F0EA
:102E00007F02227420E54FF4007208EB412104F1A7
:102E1000280003931BF0F3FA227C039B02F07F024D
:102E20002274C9E60223DDE90196637485E4022376
:102E3000DDE9019663747C6950E40223DDE90196C3
:102E400063747C69002C7FF46FAC76E42DE9F04F5D
:102E5000DFF8ECA2DDB09AF8313013B95DB0BDE80F
:102E6000F08FAF4D002206A905A8059506F054F98C
:102E700060B10D22AB49AC480AF04EFB0222AB49CF
:102E8000A9485DB0BDE8F04F0AF046BB4FF40070B2
:102E90001DF07EF804460028EBD0069B0599D8600B
:102EA00006A805F0A5FF002844D19DF94330002B6A
:102EB00040DB0DF15809494606A805F08BFE204677
:102EC0001DF06EF801222946484606F0EBFAD9F8C3
:102ED0001030002BC2D0D9F814B0BBF1000F00F0B5
:102EE0008A81DBF80030002B00F08581DBF81420AC
:102EF000DBF80C309A4200F0B9800024254606AE7B
:102F0000CDE902565D46DAF88825C9F80C203DB1B6
:102F1000296829B1087818B1AC88C88884420DD0D6
:102F2000DAF88835D9F808109B1A8B426FD2D9F895
:102F30001450ECE720461DF033F89AE74A780AEB84
:102F40008201D1F830165244496892F83406884715
:102F5000C10700F1C0806A7C002A40F0BC802A7C56
:102F6000D20740F1B880EA686969541A012C28BF79
:102F700001248A4200F0AB802F680DF11408C1F3E0
:102F80000806002E40F08F80B7F80AB00BF1FF3B27
:102F90001BEA512B00F0B080A869BB690238023BE4
:102FA000984280F0B7807A89FE6A02FB0066002EA4
:102FB00000F0B08006EB0B03B4F5007F0093C0F087
:102FC000C1800BEB54218A424FEA542338BFA2EB55
:102FD0000B037A7801930AEB8201D1F83016524440
:102FE000D1F808B092F834064146009AD847019BC0
:102FF000002800F0CB804FF001036B74D9F80C204F
:10300000DAF88835D9F808109B1A8B428FD3029CC6
:10301000002506AB1D559DF81830232B1DD0E3B1BC
:103020000D2B1AD03D2106A81DF0F2FAA8B10446D6
:1030300006A804F8015B1AF031FA034620469CB258
:103040001AF02CFA45F207239C4206D8384BA3FB12
:1030500004230AEB931383F8E202D9F814B0DBF8E7
:103060000C20DBF814309A427FF447AF484603F057
:1030700083FB00212F4B03F5167013F8012F9842A4
:103080001144FAD12C4B0F224B4027482B49CAF848
:10309000FC320AF041FA0222244923480AF03CFAA1
:1030A0005DB0BDE8F08F05F1280B0BEB0601C6F50E
:1030B0000076A64228BF2646404632461BF09FF9BE
:1030C0006969A41B3144B04469617FF458AF9DF92C
:1030D0001430002B02DAD9F80C2021E70A2BDDE9A5
:1030E000025600F0868001353F2D06F8013B00F0C6
:1030F0008080D9F814B003E7002942D1A8680128DC
:1031000008D9431C70D0BB69A861023B02389842C1
:10311000FFF449AF4FF002036B74D9F80C20FFE6BF
:10312000C42202084C230208340A0020581902085D
:10313000D34D62104B050020EFBEADDE5C230208CC
:10314000A8040020EA69934226D095F91030002B9C
:1031500025DB05F1280B7A7801230AEB8200D0F8F1
:1031600030065244816892F834060E46009A594659
:10317000B047002838D1009B6E69EB61C6F30806A2
:1031800093E7A969286817F033F8B8E795F9102094
:10319000002A19DB5E0293E705F1280BEBE77B7849
:1031A00005F1280B0AEB8300D0F830065344C168C0
:1031B00093F834060E4601235946B047A0B92B7C3C
:1031C00003F07F032B74C6E7E869009A801A8342F4
:1031D000E0D94FF4007208EB402005F1280100937C
:1031E0001BF00DF9009BD5E701226A74D9F80C2079
:1031F00096E62C460CE7D9F81830002B7FF476AE13
:103200002CE600BF2DE9F04FDFF804A1E3B09AF8F7
:10321000313013B963B0BDE8F08F394D00220CA9ED
:1032200007A8079505F078FF60B10F2235493648A9
:103230000AF072F902223549334863B0BDE8F04F15
:103240000AF06AB94FF400701CF0A2FE0446002890
:10325000EBD00C9B0799D8600CA805F0C9FD00289D
:103260004AD19DF95B30002B46DB0DF1700B5946BE
:103270000CA805F0AFFC20461CF092FE0122294666
:10328000584606F00FF9DBF81030002BC2D0DBF8FF
:103290001470002F00F00E823B68002B00F00A82B1
:1032A00000237869F968CDE907338842CDE909330D
:1032B0000B9300F0FF80B84600240CAE254637463D
:1032C000C146CDE904574D46DAF88825CBF80C20E5
:1032D0003DB1296829B1087818B1AC88C888844202
:1032E00018D0DAF88835DBF808109B1A8B4280F08A
:1032F0008C80DBF81450EBE720461CF051FE94E77D
:103300009C1F02086C230208340A00205819020886
:10331000A80400204A780AEB8201D1F83016524402
:10332000496892F834068847C10764D46A7C002A49
:1033300061D12A7CD2075ED5EA686969541A012CEA
:1033400028BF01248A4200F089810DF11B09C8467B
:103350002F68CDF80C90C1F30803002B40F00C81CE
:10336000B7F80A9009F1FF3919EA512900F0F08005
:10337000A869BB690238023B984280F0F7807A89DD
:10338000FB6A02FB0033002B00F0F0804B44B4F5E5
:10339000007F0193C0F0FE8009EB54218A424FEA7E
:1033A000542338BFA2EB09037A7802930AEB820117
:1033B000D1F830165244D1F8089092F834064146BC
:1033C000019AC847029B002840F0028195F910201D
:1033D000002AC0F232814FEA43296969B4EB09043B
:1033E0004944C8446961B6D1DDF80C9099F90030C0
:1033F000002B80F20081DBF80C20DAF88835DBF84E
:1034000008109B1A8B42FFF474AF049C00230CAA93
:1034100013559DF83030232B43D0022C41D95B2B20
:1034200000F02A813D210CA81DF0F2F8002838D0C8
:103430000023044604F8013B9DF830300CAD202BEE
:1034400003D115F8013F202BFBD04378202B03D16B
:1034500014F8013F202BFBD02846A14917F076F93C
:10346000002800F01B8128469E4917F06FF90028BC
:1034700000F0268128469C4917F068F9002800F0E2
:103480009E812846994917F061F9002840F03A8159
:10349000204697491DF0F2F8031E18BF01238AF851
:1034A000B430DBF81480D8F80C20D8F814309A42E5
:1034B0007FF402AF584603F05FF9BAF8A432002B4C
:1034C00000F00C818B4AB2FBF3F2BAF8A632CAF8CC
:1034D0001820002B00F00081864AB2FBF3F2BAF804
:1034E000A832CAF81C20002B00F0F480814AB2FBFD
:1034F000F3F2BAF8AA32CAF8202013B17D4AB2FB1F
:10350000F3F3BAF8CC02CAF8243010B1794AB2FB0E
:10351000F0F0BAF8B630CAF82800FA2B28BFFA2320
:10352000322B38BF32231BB2C3EB431403EB8403AB
:103530005B10112270497148AAF82C3009F0ECFF99
:1035400002226F496D4809F0E7FF63B0BDE8F08FD4
:10355000002942D1A868012845D9431C38D0BB694D
:10356000A861023B02389842FFF409AF4FF0020312
:103570006B74DBF80C20B4E605F1280909EB0301B4
:10358000C3F50079A14528BFA14640464A461AF036
:1035900036FF22E7EA6993422AD095F91030002BD2
:1035A00035DB05F128097A7801230AEB8200D0F88F
:1035B00030065244816892F834060E46019A494614
:1035C000B04728B9019BEB616B69C3F30803D5E7EA
:1035D00001226A74DBF80C2083E6A969286816F0DA
:1035E00007FE0128B9D802226A74DBF80C2078E6BD
:1035F00005F12809E6E70A2BDDE904574CD001352F
:103600003F2D07F8013B2CD0DBF8149059E67B786E
:1036100005F128090AEB8300D0F830065344C1684D
:1036200093F834060E4601234946B0470028CFD10F
:103630002B7C03F07F032B74B5E7E869019A801AAD
:1036400083427FF6C8AE4FF4007208EB402005F1CC
:10365000280101931AF0D3FE019BBCE60DF11B0972
:10366000C4E600238DF86F309DF83030232B3FF4F3
:1036700018AF5B2B7FF4D6AE5D210CA81CF0C8FF01
:1036800000283FF40EAF00220DF131010270132229
:1036900007A81CF0CAFF04E72C46B7E6204619F03D
:1036A000FDFE0228034602D004287FF4FAAE8AF811
:1036B000A930F6E6DBF81830002B7FF4F1ADA9E570
:1036C000204619F0EBFE431E052B3FF6EAAE8AF8C2
:1036D000AA30E6E61A460CE71A4600E71A46F4E670
:1036E0007C2302088423020890230208A0230208F6
:1036F0008C1F02080046C32310250208340A00204C
:10370000581902082846BE4917F020F8002864D04E
:103710002846BC4917F01AF800286DD02846BA4947
:1037200017F014F8002861D02846B84917F00EF8B1
:10373000002874D02846B64917F008F8002868D049
:103740002846B44917F002F8002800F052812846B4
:10375000B14916F0FBFF002800F045812846AF492B
:1037600016F0F4FF002800F038812846AC4916F026
:10377000EDFF002800F02B812846AA4916F0E6FF4D
:10378000002800F086802846A74916F0DFFF0028B1
:1037900079D02846A54916F0D9FF002856D1A4496A
:1037A00007A816F0D3FF00283FD12046A1491CF0FE
:1037B00065FF031E18BF01238AF8C83271E6204650
:1037C00019F069FE002251EC100B9B4B17F08CF99D
:1037D00017F094FCCAF8AC0063E6204619F05EFED0
:1037E00000EB80004000CAF8B0005AE6204619F00D
:1037F00055FEAAF8A40254E6204619F04FFE83B203
:10380000FA2B28BFFA23322B38BF3223AAF8B6305E
:1038100047E6204619F042FEAAF8A80241E62046F3
:1038200019F03CFEAAF8A6023BE6844907A816F068
:103830008DFF00287FF435AE20467E491CF01EFF28
:10384000031E18BF01238AF8D8322AE628467C498D
:1038500016F07CFF002870D028467A4916F076FFD3
:1038600018BB734907A816F071FFC0B1734907A8C8
:1038700016F06CFF00287FF414AE204619F00EFEFF
:10388000AAF8E0020DE6204619F008FEAAF8B402F4
:1038900007E6204619F002FEAAF8B20201E6204629
:1038A00019F0FCFDAAF8CA02FBE52846664916F0A5
:1038B0004DFF002800F085802846644916F046FF39
:1038C000002878D02846624916F040FF00285ED0D4
:1038D0002846604916F03AFF002852D028465E4933
:1038E00016F034FF002846D028465C4916F02EFF1B
:1038F00000283AD028465A4916F028FF78B32846BF
:10390000584916F023FF20B32846574916F01EFFEA
:10391000C8B12846554916F019FF00287FF4C1ADFB
:10392000464907A816F012FF00287FF4BAAD2046DA
:1039300019F0B4FDAAF8DE02B3E5204619F0AEFD99
:103940008AF8C902ADE5204619F0A8FDAAF8DC0204
:10395000A7E5204619F0A2FDAAF8DA02A1E5204663
:1039600019F09CFD8AF8D9029BE5204619F096FDD6
:103970008AF8D60295E5204619F090FDAAF8D402FF
:103980008FE5204619F08AFD8AF8D20289E52046A3
:1039900019F081FD51EC100B17F060FB9FED347AAC
:1039A00007EE900A67EE877AFCEEE77A17EE903A18
:1039B000AAF8D03275E5204619F070FDAAF8CE02BB
:1039C0006FE5204619F06AFDAAF8CC0269E52046A9
:1039D00019F064FDAAF8B00263E5204619F05EFD17
:1039E000AAF8AE025DE5204619F058FDAAF8AC022F
:1039F00057E5204619F052FDAAF8AA0251E500BF8A
:103A0000A8230208B8230208C8230208D423020806
:103A1000E0230208EC230208F8230208002402082D
:103A20000C2402081C240208302402084424020842
:103A30004C240208B02F0208000059405824020804
:103A400068240208702402087824020884240208EA
:103A500094240208A4240208B4240208C8240208FA
:103A6000D8240208E8240208F824020808250208DD
:103A700000007A442DE9F04FDFF880A2DFB09AF819
:103A800032209AF82E30D5B213B1002D00F0C48246
:103A900001230DF1600B06930BAC079541E0B8F1E3
:103AA000000F00F0CE82494640461CF099FD454685
:103AB0000646002800F09980039B03F10108029B51
:103AC000002B00F0A6804FF00E098A4906EB09058D
:103AD0000868097946F80900297140461CF058FA2F
:103AE000804610B131461CF0DFFD38461CF058FA14
:103AF00030461CF055FA01981CF052FA002220467C
:103B00000CA9C4F8008005F007FB002800F08D80A8
:103B100040461CF045FA069B0133072B069300F044
:103B2000B5810F201CF034FA0190002876D00546AC
:103B3000714B0FCB07C525F8023B1B0C0F202B70D8
:103B40001CF026FA8046002800F0758205460E23F8
:103B500012204FF01309CDE90230019B0FCB07C5AE
:103B600025F8023B1B0C2B704FF00001069B0DF15A
:103B7000310230338BF800308DF830300CABABEBCA
:103B80000303D154584616F0EBFD461C054630465B
:103B90001CF0FEF9074670B3324659461AF02FFC66
:103BA000002D3FF47CAF029B05EB0309B8F1000F39
:103BB00000F03882404609F101011CF011FD054674
:103BC000E0B1029B32463946002B00F0218205F11C
:103BD0000E001AF014FC09F10508414628461CF0B5
:103BE000FFFC064600287FF470AF28461CF0D8F989
:103BF0000026B04679E7B8F1000F02D040461CF02D
:103C0000CFF905201CF0C4F94FF00508064600283E
:103C1000EED0384903C9306031715EE70423804635
:103C20004FF00509039302909EE74FF400701CF0DB
:103C3000AFF9054600283FF46BAF0C9B2168D860B4
:103C40000CA805F0D5F800284FD19DF95B30002B6A
:103C50004BDB59460CA804F0BDFF28461CF0A0F928
:103C600001224146584605F01DFCDBF81030002BC0
:103C70003FF44EAFDBF81470002F00F0BD813B68BD
:103C8000002B00F0B981F9687B69994200F0F2805D
:103C90003E46069BCDF8248003F1FF39CDF82090F5
:103CA0000025B1462F460DF13008CDF81480C846E6
:103CB000DAF888150497CBF80C10B8F1000F09D08A
:103CC000D8F8003033B1187820B1B8F80450D8884B
:103CD000854215D0DAF88835DBF808205B1A934264
:103CE00080F08B80DBF81480E7E728461CF058F959
:103CF0000EE700BF5022020840220208A80400205C
:103D00005B780AEB8301D1F830165344496893F885
:103D100034068847C10766D498F81130002B62D169
:103D200098F81030DA075ED5D8F80C30D8F81410AF
:103D30005D1A012D28BF01258B424FD0D8F80070A5
:103D40000194C1F30806002E40F0CD80B7F80A9028
:103D500009F1FF3919EA512900F0AE80D8F81800AE
:103D6000BB690238023B984280F0B6807A89FE6ACD
:103D700002FB0066002E00F0AF8006EB0903B5F5EC
:103D8000007F0293C0F0BD8009EB55218A424FEAC3
:103D9000552338BFA2EB09037A7803930AEB82011B
:103DA000D1F830165244D1F8089092F83406DDE983
:103DB0000112C847039B002840F0C48098F91020E6
:103DC000002AC0F2F3805E02019BD8F8141033443D
:103DD0003144AD1B0193C8F81410B2D194F90030EE
:103DE000002B80F2C080DBF80C10DAF88835DBF8A5
:103DF00008205B1A9342FFF475AF049D4FF0000258
:103E00000CAB5A559DF83030232B2AD0022D28D9DF
:103E10003D210CA81CF0FCFB054610B34FF000033D
:103E20000CA805F8013B19F039FB034628461D464E
:103E300019F034FB44F620639D4212D800F10A03C6
:103E4000462B0ED8834A82FB0532EB17C3EB2213B5
:103E5000089A02EBC20202EBC2025244134483F8F6
:103E6000BC00DBF81460F168736999427FF418AF05
:103E7000DDF82480584602F07FFC40461CF090F8A4
:103E8000069B0133072B06937FF44BAE9AF82E3036
:103E9000079D23B11DB9BFF34F8F8AF8325011220D
:103EA0006D496E4809F038FB02226D496B485FB0DE
:103EB000BDE8F04F09F030BB00294AD1D8F808001E
:103EC000012809D9431C3DD0BB69C8F81800023B42
:103ED00002389842FFF44AAF4FF0020388F81130DD
:103EE000DBF80C10F6E608F1280909EB0601C6F527
:103EF0000076AE4228BF2E46019832461AF07FFA6D
:103F000062E7D8F81C2093422AD098F91030002B91
:103F100035DB08F128097A7801230AEB8200D0F812
:103F200030065244816892F834060E46029A494699
:103F3000B04738B9029BD8F81460C8F81C30C6F3F3
:103F40000806D2E74FF0010388F81130DBF80C10B7
:103F5000C0E6D8F81810D8F8000016F049F9AFE715
:103F600008F12809E6E70A2BDDE9047842D0013799
:103F70001F2F08F8013B2CD0DBF8149095E67B78D6
:103F800008F128090AEB8300D0F830065344C168D1
:103F900093F834060E4601234946B04790BB98F883
:103FA000103003F07F0388F81030B4E7D8F81C0015
:103FB000029A801A83427FF606AF0293019B4FF468
:103FC000007203EB402008F128011AF018FA029B56
:103FD000F9E64FF000038DF84F309DF83030232B79
:103FE0007FF416AFDBF81460F168736999427FF4CF
:103FF00057AE3DE73D4601E7DBF81830002B7FF474
:1040000042AE85E5012388F81130DBF80C1061E63B
:1040100028461AF0F4F9DEE501238AF83230BFF3BE
:104020004F8F35E509F101001BF0B2FF054600286E
:104030007FF4C7ADE5E504234FF00509CDE90203A0
:1040400092E548461BF0A4FF064600287FF434ADF5
:10405000CEE500BFD34D621024250208340A0020AB
:104060005819020838B5104C94F8313013B194F84F
:10407000343003B138BD0D4805F0E6F90546002897
:10408000F8D101230A4884F8343014F011FCFDF70C
:1040900065FBFDF771FCFDF707FF84F83450054818
:1040A000BDE8384014F004BCA8040020B81B020886
:1040B0003825020858250208036953B143691BB12A
:1040C0001B680BB1012070478069003818BF0120C0
:1040D00070471846704700BF03681847012A06D08A
:1040E000022A0AD0032A00D022B1002070470160C2
:1040F000002070470260002070470B6803600020BA
:10410000704700BF0020704747F6FF714269D368CF
:104110005069181A884228BF084670470D4B187816
:1041200010F0010007D1032903D8DFE801F0030BE9
:104130000F060420704703207047074B5B6D5B0A36
:1041400013607047044B1B6D13607047024B5B6D2F
:104150001380704720000020E80A00202DE9F04F6E
:10416000446983B03CB123682BB11A781AB1A18895
:10417000DA88914204D04FF0FF3003B0BDE8F08FF1
:104180005B78DFF8849109EB830252684B445268F4
:10419000187A9047C107EED4637C002BEBD1237CC7
:1041A000DA07E8D5E2686369D61A012E28BF01262E
:1041B0009A423FD027680DF10708C3F30805002D88
:1041C0004DD1B7F80AA00AF1FF3A1AEA532A36D0BD
:1041D000A069BB690238023B98423DD27B89FA6AEA
:1041E00003FB0022002A37D0B6F5007F0AEB020B52
:1041F00043D30AEB562293427A784FEA562509EBCD
:104200008201496838BFA3EB0A054A44D1F808A0E7
:10421000107A2B465A464146D047002848D194F997
:104220001030002B62DB6D026369761B2B44A844BF
:104230006361C2D19DF9070003B0BDE8F08F002B88
:1042400039D1A068012807D9431C31D0BB69A061CE
:10425000023B02389842C1D3022363748BE704F116
:10426000280A0AEB0501C5F50075B54228BF354699
:1042700040462A461AF0C3F8D6E7E26993451FD0B4
:1042800094F91030002B1EDB04F1280A7A78012300
:1042900009EB820149684A448D68107A51465A46B2
:1042A000A84728B96569C4F81CB0C5F30805D8E764
:1042B000012363745FE7A169206815F099FFC1E7E6
:1042C00004F1280AEEE77B7804F1280A09EB830160
:1042D00049684B44CD68187A51460123A847002805
:1042E000E6D1237C03F07F032374CFE7E069A0EBE2
:1042F0000B00854297D94FF4007208EB402004F17F
:1043000028011AF07CF88EE7D40A002008B51122A3
:104310006449654809F000F902226449624809F0DD
:10432000FBF841226249604809F0F6F802225F4931
:104330005D4809F0F1F817225E495B4809F0ECF896
:1043400002225A49584809F0E7F825225A495648A6
:1043500009F0E2F802225549534809F0DDF830220D
:104360005649514809F0D8F8022250494E4809F000
:10437000D3F8282252494C4809F0CEF802224B4982
:10438000494809F0C9F81B224E49474809F0C4F8CA
:1043900002224649444809F0BFF82F224A494248C0
:1043A00009F0BAF8022241493F4809F0B5F8242241
:1043B00046493D4809F0B0F802223C493A4809F024
:1043C000ABF821224249384809F0A6F802223749C1
:1043D000354809F0A1F823223E49334809F09CF8FA
:1043E00002223249304809F097F818223A492E48FB
:1043F00009F092F802222D492B4809F08DF8242269
:104400003649294809F088F802222849264809F047
:1044100083F821223249244809F07EF802222349F8
:10442000214809F079F809222E491F4809F074F84B
:1044300002221E491C4809F06FF821222A491A4815
:1044400009F06AF802221949174809F065F8232291
:104450002649154809F060F802221449124809F06B
:104460005BF822222249104809F056F802220F492F
:104470000D4809F051F81E221E490B4809F04CF86E
:1044800002220A49084809F047F811221A49064849
:1044900009F042F8BDE8084002220449024809F048
:1044A0003BB800BF6C250208340A002058190208E6
:1044B00080250208C4250208DC250208042602081B
:1044C000382602086426020880260208B026020860
:1044D000D8260208FC260208202702083C270208EA
:1044E000642702088827020894270208B8270208D0
:1044F000DC270208002802089029020870B5232250
:10450000BF49C04809F008F80222BF49BD4809F078
:1045100003F81922BD49BB4808F0FEFFBC4C1B2222
:10452000BC49B84808F0F8FF0822BB49B54808F074
:10453000F3FF94F82E30002B00F0E2810322B749FC
:10454000B04808F0E9FF0222AF49AE4808F0E4FFA6
:104550000522B349AB4808F0DFFFA089B14D80B216
:1045600013F0A0FB0622B049A64808F0D5FFB5F825
:10457000540213F097FB0822AC49A24808F0CCFF84
:10458000E089AB4E00B286FB0023C017C0EB63107E
:1045900000B213F05DF8A74901229A4808F0BCFF69
:1045A0006422E08900B286FB0036C317C3EB6613B2
:1045B00002FB130000B20028B8BF404280B213F0E3
:1045C00047F805229C498F4808F0A6FF02228E4931
:1045D0008C4808F0A1FF052298498A4808F09CFF02
:1045E000A879013013F05EFB95490622854808F052
:1045F00093FF6B790222022B14BF924992498148A2
:1046000008F08AFF022280497E4808F085FF0622D2
:104610008E497C4808F080FFB4F86A309BB2092BC1
:1046200040F27D81B3F57F6F00F27B81D5F81822CF
:10463000D5F8140202FB03F341F28832002BB8BF15
:1046400003F6FF7300EB23309042A8BF1046804B67
:1046500020EAE07080B2A3FB0030C00812F0F8FF3F
:1046600001227C49674808F057FF022266496548E5
:1046700008F052FF06227849624808F04DFFB4F86E
:104680006C10D5F81C3289B283FB01318A00980086
:10469000C01842EA937241EB02014B01420143EA26
:1046A000D063801841EB0301001849416B4A002395
:1046B00016F04CFD5E4B00B283FB0023C017C0EB2D
:1046C000631000B212F0C4FF012265494D4808F0A2
:1046D00023FF02224C494B4808F01EFF0522614986
:1046E000484808F019FFA06C14F0FCF805225E4958
:1046F000444808F011FFE06C14F0F4F804225B4920
:10470000404808F009FF94F83130002B40F0048154
:10471000042257493B4808F0FFFE02223A49394833
:1047200008F0FAFE08225349364808F0F5FE94F8DE
:104730003230002B40F0ED8002224F49314808F022
:10474000EBFE022230492F4808F0E6FE06224B49D4
:104750002C4808F0E1FEA37C002B40F0D780032218
:104760004749284808F0D8FE02222749254808F082
:10477000D3FE09224349234808F0CEFEE07C13F023
:1047800055FE0C2240491F4808F0C6FE94F89A30A6
:10479000002B40F0B88006223C491A4808F0BCFEC5
:1047A00002221949174808F0B7FE0922384915486E
:1047B00008F0B2FED4F89C0012F04AFF022212491F
:1047C000104808F0A9FE0D2232490E4808F0A4FE58
:1047D000B5F92A0212F03CFF01221E49094808F0EF
:1047E0009BFE02220849074808F096FE0C222A493F
:1047F000044808F091FE294CB5F82C0250E000BFA7
:104800005C280208340A002058190208802802088F
:10481000A80400209C280208B828020828280208BA
:10482000C42802084C050020CC280208D42802081D
:104830001F85EB5154340208E0280208E8280208DA
:10484000F0280208302802082C280208F82802085C
:10485000CDCCCCCC002B020800290208187C3E00ED
:10486000082902080C290208142902081C29020838
:1048700008380208242902083828020830290208CA
:10488000C02F0208382902084429020854280208C7
:10489000542902086029020870290208D34D6210C9
:1048A000A4FB0030800912F0D3FE01221E491F48EC
:1048B00008F032FE4FF47A71B5F82C321C4AA4FB92
:1048C0000304A40901FB143080B2A2FB00204009BC
:1048D00012F0BEFE01221749144808F01DFE022204
:1048E0001549124808F018FE212214490F4808F013
:1048F00013FEBDE8704002220F490C4808F00CBEC0
:1049000004220F491CE617220E4946E702220E49EF
:1049100027E703220D4911E702220D49FAE600209C
:104920009CE64FF4FA7099E654340208340A0020E9
:104930001F85EB510829020858190208802902082E
:10494000202802083C280208B02F02083428020858
:104950003C1B0208F0B58368046891B0002B55D069
:1049600005463D2120461BF053FE00284ED0041B77
:104970004CD423462946002204A811F01FFE2946E4
:10498000AB68621C01A811F019FE04A811F066FEC4
:1049900001A811F063FE069D049C002D00F08380A9
:1049A0002046A24915F0D2FE98B12046A04915F044
:1049B000CDFE00283BD10198002858D018F072FD98
:1049C000431E052B53D89B4A9B48937113F070FFED
:1049D00014E0019838B318F065FD0228034601D0B1
:1049E000042820D10222934C93499448637108F023
:1049F00093FD02229249914808F08EFD01981BF028
:104A0000CFFA04981BF0CCFA11B0F0BD14228D49F6
:104A10008A4808F081FD02228949884811B0BDE822
:104A2000F04008F079BD102287498448DFE720462E
:104A3000864915F08BFE0346E8B12046844915F0FF
:104A400085FE002851D02046824915F07FFE50BBDC
:104A50000198002800F0868018F024FD00EB80000B
:104A60004300744A7448D36013F022FFC6E77A48C3
:104A700013F01EFFC2E7019878B118F00CFD51EC5D
:104A8000100B16F0EBFA9FED757A07EE900A67EEC1
:104A9000877AFDEEE77A17EE903A664A66489360A9
:104AA00013F006FFAAE7294620466D4A13F0EAFFF5
:104AB000002834D00198002865D018F0F3FC83B2A8
:104AC000FA2B28BFFA23322B38BF32231AB2C2EB9B
:104AD000421102EB8102C2F34F02564C6149564823
:104AE00063828A8513F0E4FE88E7039C019D6CB124
:104AF00028465D4915F02AFE012338B94D4A137442
:104B0000FCF784F94C4813F0D3FE77E7214628469A
:104B1000564A13F0B7FF031E18BF0123EEE72946DC
:104B20002046534A13F0AEFFF0B1019810B118F0CF
:104B3000B9FC80B23F4CA4F80002FCF735F9638A57
:104B4000484AFA2B28BFFA23322B38BF32231BB234
:104B5000C3EB431103EB81035B103748938513F0DC
:104B6000A7FE4BE700237CE78DB12046414915F0B5
:104B7000EDFD60B9019810B118F094FC80B22D4C95
:104B8000A4F80202D9E740F635423223A5E72946C8
:104B90002046394A13F076FF38B1019808B118F071
:104BA00081FC244CA4F80402C7E729462046334A76
:104BB00013F068FF30B1019813F03CFF1D4CA4F8CE
:104BC0000602BAE7294620462D4A13F05BFF50B192
:104BD000019813F02FFF0246164B1748A3F808223E
:104BE00013F066FE0AE729462046264A13F04AFFDC
:104BF00050B1019813F01EFF02460E4B0E48A3F869
:104C00000A2213F055FEF9E6294620461E4A13F003
:104C100039FF00283AD0019813F00CFF0246054BEB
:104C20000548A3F80C2213F043FEE7E6BC2902086E
:104C3000702F02084C0500203C1B0208340A00209B
:104C400058190208A4290208C4290208E829020800
:104C5000F8290208082A0208D82902080000C842D8
:104C6000182A0208A80400208C1F0208E01E02086F
:104C7000242A0208342A0208442A0208542A020874
:104C8000642A0208702A02087C2A02082946204663
:104C9000AB4A13F0F7FE78B1019C039D20462946EC
:104CA000A84A13F0EFFEC0B10123A74AA74882F833
:104CB000243213F0FDFDA1E629462046A44A13F054
:104CC000E1FE98B1019813F0B5FE02469E4B9F4855
:104CD00083F8252213F0ECFD90E6294620469D4AF4
:104CE00013F0D0FE031E18BF0123DEE7294620463D
:104CF000994A13F0C7FE50B1019813F09BFE02468B
:104D0000914B9248A3F8262213F0D2FD76E629466D
:104D10002046924A13F0B6FE30B1019813F08AFE95
:104D2000894CA4F8280208E7294620468C4A13F04B
:104D3000A9FE50B1019813F07DFE0246824B8348D4
:104D400083F82E2213F0B4FD58E629462046854A02
:104D500013F098FE88B1019813F06CFE03467A4C6C
:104D60008148A4F8303211F0A3FCB4F9300212F0FB
:104D7000E9FC7E4813F09CFD40E6294620467C4A2B
:104D800013F080FE88B1019813F054FE03466E4C78
:104D9000784884F8323211F08BFC94F8320212F029
:104DA000A7FC754813F084FD28E629462046734A7F
:104DB00013F068FE88B1019813F03CFE0346624C84
:104DC0006F48A4F82A3211F073FCB4F92A0212F0E9
:104DD000B9FC664813F06CFD10E629462046694A86
:104DE00013F050FE98B30198002841D018F053FBFF
:104DF00051EC100B16F032F99FED637A07EE900A32
:104E000067EE877AFCEEE77A17EE903A4FF47A7401
:104E10004D4D5E48A5F82C3211F04AFCB5F82C0235
:104E2000B0FBF4F012F08EFC594811F041FCB5F8DB
:104E30002C326420B3FBF4F204FB12339BB2B3FBBD
:104E4000F0F012F07FFC534813F032FDD6E529460E
:104E50002046514A13F016FE68B1019813F0EAFD9E
:104E60000246394B3948C3F8142213F021FDC5E539
:104E700000200021BEE729462046484A13F002FEE2
:104E800050B1019813F0D6FD02462F4B2F48C3F8BE
:104E9000182213F00DFDB1E529462046404A13F0D3
:104EA000F1FD50B1019813F0C5FD0246264B27488D
:104EB000C3F81C2213F0FCFCA0E529462046394A21
:104EC00013F0E0FD064650B1019813F0B3FD024621
:104ED0001D4B1E48C3F8202213F0EAFC8EE529463C
:104EE0002046314A13F0CEFD002800F0B880344649
:104EF000324635460399A142C0F0AB80062D55D00D
:104F0000A14207D0019B002B00F0FB801B5D2C2BE6
:104F100040F0F780234601A907A811F04FFB07983E
:104F200013F088FD10AB03EB850343F8180C0798CA
:104F30001BF036F8621C144603990135DBE700BF0D
:104F4000882A0208E01E02084C0500203C1B0208CB
:104F5000982A0208B02F0208A82A0208B82A0208D4
:104F6000C42A0208D42A0208E42A0208002B0208F4
:104F7000F42A0208042B0208142B0208202B020832
:104F8000302B02083C2B020800007A44482B020810
:104F90005434020808290208542B0208642B020822
:104FA000742B0208842B0208442F020844F6206761
:104FB00040F6FF7E43F698210E9A0F989742A8BFBD
:104FC00017463228A8BF32200B9C0D9B7445A8BF02
:104FD00074469942A8BF19460C9B4FF0000C7345CC
:104FE000A8BF7346B7F57A7FB8BF4FF47A77012828
:104FF000B8BF0120474D664685F83502604624EA71
:10500000E47423EAE37364F30F0C63F31F4C0A9B0D
:1050100021EAE1719B1B18BF012361F30F002A46AF
:105020002C46314667F31F40C5F836C2C5F83A0230
:1050300085F8343214F8013B0131B1F5167F1E4476
:10504000F8D1354B35487340C2F8583213F030FC74
:10505000D4E4062DAAD0324813F02AFCCEE4294627
:105060002046304A13F00EFD00284ED00024224680
:1050700026460399274FA14237D3152E22D0A142AD
:1050800005D0019B002B3ED01B5D2C2B3BD1234632
:1050900001A90AA811F092FA0A9813F0CBFC054670
:1050A0000A981AF07DFFFA2D2B46A8BFFA230A2B87
:1050B000B8BF0A23B819621C1446039980F83E321F
:1050C0000136D8E70023134A1946104610F8014B61
:1050D0000131B1F5167F2344F8D10F490F485940EB
:1050E000C2F8581213F0E4FB88E4152EEAD00E48FB
:1050F00011F0DEFA304612F025FB0C4813F0D8FB15
:105100007CE40134F7E60134B5E7094813F0D0FB3D
:1051100074E400BF4C050020EFBEADDE3C1B02086E
:10512000982B0208AC2B0208B42B0208C82B0208EB
:10513000D02B0208F0B5866805688BB0002E00F011
:1051400097802846BA4915F001FB0446002838D15B
:10515000B84BB3F86A309BB2092B25D9B3F57F6FF2
:105160007CD841F28831B44CB448D4F8182203FBFF
:1051700002F2D4F81432002AB8BF02F6FF7203EB31
:1051800022338B42A8BF0B4623EAE3739BB2A0FBFA
:105190000320C20802EB8202A3EB42031CB2002CE4
:1051A000B8BF6442C008A4B212F052FA0122A44966
:1051B000A44808F0B1F920460BB0BDE8F04012F069
:1051C00071BD2846A04915F0C1FA002838D1994A86
:1051D000994BB2F86C10D3F81C2289B282FB0121E2
:1051E000880093009B1840EA927041EB00014A014D
:1051F0005801181842EAD36241EB02010018934AA1
:105200004941002315F0A2FF914B04B283FB042314
:10521000E517C5EB631528B212F01AFA0122884986
:10522000884808F079F9642303FB154000B2002890
:10523000B8BF404280B20BB0BDE8F04012F032BDC2
:105240002846844915F082FA58B12846824915F05B
:105250007DFA68B9784B98790130ADE74FF4FA7070
:10526000A2E7744A744BB2F86E10D3F82022B4E768
:1052700031462846794A13F005FC30B16E4B587917
:105280000BB0BDE8F04013F0D1B831462846744A5F
:1052900013F0F8FB18B1684BB3F854028CE73146B1
:1052A0002846704A13F0EEFB30B3634D684CAB6890
:1052B00084FB0320DB17C3EB601012F0C9F96048D0
:1052C00011F0F6F96421AB6884FB0324DA17C2EB12
:1052D000641201FB123383EAE370A0EBE37012F077
:1052E000B7F9614811F0E4F92B7C23B35F480BB0A8
:1052F000BDE8F04013F0DCBA314628465C4A13F0B2
:10530000C1FBD0B14C4CB4F8000212F01BFA564865
:1053100011F0CEF9B4F8020212F014FA524811F06A
:10532000C7F9B4F8040212F00DFA4F4811F0C0F9B1
:10533000B4F8060240E74F48D9E7314628464E4ABE
:1053400013F0A0FB88B13C4CB4F8080212F0FAF953
:10535000454811F0ADF9B4F80A0212F0F3F94248E9
:1053600011F0A6F9B4F80C0226E731462846434A64
:1053700013F088FBB8B1304C414B94F82402414AF9
:10538000002818BF1A46104611F092F9364811F05D
:105390008FF994F9250212F0D5F9334811F088F904
:1053A000B4F8260208E731462846374A13F06AFB6C
:1053B00058B34FF47A75204CB4F8280212F0C2F9B1
:1053C000294811F075F9B4F92A0212F0BBF9264800
:1053D00011F06EF9B4F82C02B0FBF5F012F0B2F94E
:1053E000174811F065F9B4F82C326420B3FBF5F2DC
:1053F00005FB12339BB2B3FBF0F012F0A3F91A488D
:1054000011F056F994F92E02D6E6314628461F4A85
:1054100013F038FB00283BD0074CB4F9300212F0EF
:1054200091F9114811F044F994F8320228E700BFCD
:10543000E02B0208A80400204C050020CDCCCCCCE9
:1054400054340208340A0020402B0208187C3E0025
:105450001F85EB51E82B0208702F0208BC290208B7
:10546000F42B0208FC2B0208903202088C1F020861
:10547000042C0208941F02080C2C02084C24020879
:10548000B02F0208C02F0208142C02081C2C02089E
:10549000314628469F4A13F0F5FA48B10A239E4A3E
:1054A000D068B0FBF3F00BB0BDE8F04013F01ABACF
:1054B00031462846994A13F0E5FA10B1964B588ABE
:1054C0007AE631462846964A13F0DCFA00284AD09C
:1054D000914CD4F8140212F0BBF8924811F0E8F89D
:1054E000D4F8180212F0B4F88E4811F0E1F8D4F8AC
:1054F0001C0212F0ADF88B4811F0DAF8D4F8204213
:10550000002C4ADA2D230122874801A98DF80430A6
:1055100008F002F800220A2063428DF8242009AC2A
:105520001946B3FBF0F303EB8302A1EB4202D2B2C4
:10553000092A02F130058ABF3732EAB2D2B209290C
:1055400004F8012DECD8204615F00AF92146024650
:10555000754807F0E1FF0222744973480BB0BDE8BB
:10556000F04007F0D9BF31462846714A13F08AFA55
:1055700068B3704CB4F86A0080B212F0E3F869487E
:1055800011F096F8B4F86C0080B212F0DBF86548C0
:1055900011F08EF8B4F86E004CE600220A20234683
:1055A0008DF8242009AC1946B3FBF0F303EB83021A
:1055B000A1EB4202D2B2092A02F130058ABF37328A
:1055C000EAB2D2B2092904F8012DECD8BBE7314682
:1055D0002846594A13F056FA10B1564B586862E7FC
:1055E00031462846554A13F04DFA48B1544811F057
:1055F0005FF8504B988980B212F0A4F8514876E6D3
:1056000031462846504A13F03DFA80B3424C4F4889
:1056100011F04EF894F8340212F06AF8414811F093
:1056200047F8B4F8360212F08DF83E4811F040F811
:10563000B4F8380212F086F83A4811F039F8B4F8A4
:105640003A0212F07FF8374811F032F8B4F83C0211
:1056500012F078F8334811F02BF894F8350212F074
:1056600047F8304811F024F8324B588FE2E53146C4
:105670002846374A13F006FA074628B1354811F094
:1056800017F82C4B588FD5E531462846324A13F08F
:10569000F9F9044698B1314811F00AF8304D02E0AA
:1056A000204811F005F815F8010F013712F020F825
:1056B000152FF5D10BB0BDE8F04012F03DBC3146DE
:1056C0002846284A13F0DEF9002851D0264810F069
:1056D000EFFFFBF7BDF8D0B1244BD879C0B212F080
:1056E00007F8104810F0E4FFFBF7B2F810B11F4BB9
:1056F0005879C0B211F0FCFF0A4810F0D9FFFBF74F
:10570000A7F810B1194B9C79E4B22046B8E52046C1
:10571000E5E700BF282C02084C0500201C2A0208DF
:10572000302C020890320208340A0020581902086E
:10573000342C0208A8040020382C0208402C02084F
:10574000482C0208A41C0208442F0208542C02080A
:10575000582C0208602C0208AC2B0208682C0208A6
:1057600089070020702C02087C2C020800E0070842
:1057700031462846B34A13F085F9002800F0B58178
:10578000B14AB24B12689A4240F0A981AE4B1A79E5
:10579000032A40F0A4810022AD4913F8010B8B428B
:1057A0000244FAD1A84EAB4BD6F8CC1053408B42F2
:1057B00040F09581F379D80740F191810E22A649F6
:1057C000A64807F0A9FEB06811F042FF0122A449E3
:1057D000A24807F0A1FE09AC00230A202546327C2E
:1057E0008DF82430D2B21146B2FBF0F202EB820304
:1057F000A1EB4303DBB2092B03F130068ABF373339
:10580000F3B2DBB2092905F8013DECD8284614F0C3
:10581000A7FF29460246914807F07EFE01229049E3
:105820008E4807F079FE00230A202546864AD26872
:105830008DF824301146B2FBF0F202EB8203A1EBAB
:105840004303DBB2092B03F130068ABF3733F3B2CF
:10585000DBB2092905F8013DECD8284614F080FF99
:1058600029460246784D7D4807F056FE01227C49C4
:105870007A4807F051FE688A264680B211F0E8FEA9
:1058800001227749754807F047FE288B80B211F056
:10589000DFFE01227249714807F03EFE688B80B23C
:1058A00011F0D6FE01226E496C4807F035FEA88B38
:1058B00080B211F0CDFE01226949684807F02CFE44
:1058C000E88B80B211F0C4FE01226549634807F0FD
:1058D00023FE288C80B211F0BBFE012260495F4894
:1058E00007F01AFE688C80B211F0B2FE01225C490A
:1058F0005A4807F011FEA88C80B211F0A9FE0122CF
:105900005749564807F008FE00230A2095F83C2026
:105910008DF82430D2B21146B2FBF0F202EB8203D2
:10592000A1EB4303DBB2092B03F130058ABF373308
:10593000EBB2DBB2092906F8013DECD8304614F091
:105940000FFF414D02463146444807F0E5FD012274
:105950004349424807F0E0FD95F83D00264640B235
:1059600011F076FE01223E493C4807F0D5FDE88F54
:1059700080B211F06DFE01223949384807F0CCFDA4
:10598000B5F8400080B211F063FE0122344933487B
:1059900007F0C2FDB5F8420000B211F059FE012235
:1059A0002F492E4807F0B8FDB5F8440080B211F039
:1059B0004FFE01222A49294807F0AEFD95F846001E
:1059C00040B211F045FE01222549244807F0A4FD0C
:1059D000B5F8480000B211F03BFE012220491F48F3
:1059E00007F09AFD00230A2095F84A208DF824300C
:1059F000D2B21146B2FBF0F202EB8203A1EB4303F9
:105A0000DBB2092B03F130058ABF3733EBB2DBB2CF
:105A1000092906F8013DECD8304614F0A1FE3146C4
:105A200002460E4807F078FD01220D490B4807F0A9
:105A300073FD00230A20044A92F86C208DF824306C
:105A4000D2B20FE0882C020800E0070833A5F1CDA0
:105A5000CCE00708EF0DA5F1B02C0208340A0020B5
:105A6000903202081146B2FBF0F202EB8203A1EB86
:105A70004303DBB2092B03F130058ABF3733EBB2A6
:105A8000DBB2092904F8013DECD8204614F068FE89
:105A900021460246A44CA54807F03EFD0122A44938
:105AA000A24807F039FDE06A11F0D2FD0122A049B9
:105AB0009E4807F031FD206B11F0CAFD01229C4980
:105AC0009A4807F029FD606B11F0C2FD0122984948
:105AD000964807F021FDA06B11F0BAFD3BE51522B9
